{
  "_format": "hh-sol-artifact-1",
  "contractName": "ThreeCredit",
  "sourceName": "contracts/ThreeCredit.sol",
  "abi": [
    {
      "inputs": [
        {
          "internalType": "string",
          "name": "panNumber",
          "type": "string"
        },
        {
          "components": [
            {
              "internalType": "string",
              "name": "employerName",
              "type": "string"
            },
            {
              "internalType": "string",
              "name": "occupation",
              "type": "string"
            },
            {
              "internalType": "uint256",
              "name": "incomePerYear",
              "type": "uint256"
            },
            {
              "internalType": "string",
              "name": "startTime",
              "type": "string"
            },
            {
              "internalType": "string",
              "name": "endTime",
              "type": "string"
            }
          ],
          "internalType": "struct ThreeCredit.EmploymentInformation",
          "name": "employmentInformation",
          "type": "tuple"
        }
      ],
      "name": "addEmploymentInformation",
      "outputs": [],
      "stateMutability": "nonpayable",
      "type": "function"
    },
    {
      "inputs": [
        {
          "internalType": "string",
          "name": "panNumber",
          "type": "string"
        },
        {
          "components": [
            {
              "internalType": "string",
              "name": "loanType",
              "type": "string"
            },
            {
              "internalType": "uint256",
              "name": "loanAmount",
              "type": "uint256"
            },
            {
              "internalType": "uint256",
              "name": "loanTenure",
              "type": "uint256"
            },
            {
              "internalType": "string",
              "name": "repaymentStatus",
              "type": "string"
            }
          ],
          "internalType": "struct ThreeCredit.LoanRepaymentHistory",
          "name": "loanRepaymentHistory",
          "type": "tuple"
        }
      ],
      "name": "addLoanRepaymentHistory",
      "outputs": [],
      "stateMutability": "nonpayable",
      "type": "function"
    },
    {
      "inputs": [
        {
          "internalType": "string",
          "name": "panNumber",
          "type": "string"
        },
        {
          "components": [
            {
              "internalType": "string",
              "name": "name",
              "type": "string"
            },
            {
              "internalType": "string",
              "name": "dateOfBirth",
              "type": "string"
            },
            {
              "internalType": "string",
              "name": "gender",
              "type": "string"
            },
            {
              "internalType": "string",
              "name": "panNumber",
              "type": "string"
            }
          ],
          "internalType": "struct ThreeCredit.PersonalInformation",
          "name": "personalInformation",
          "type": "tuple"
        }
      ],
      "name": "addPersonalInformation",
      "outputs": [],
      "stateMutability": "nonpayable",
      "type": "function"
    },
    {
      "inputs": [
        {
          "internalType": "string",
          "name": "panNumber",
          "type": "string"
        }
      ],
      "name": "getFinancialData",
      "outputs": [
        {
          "components": [
            {
              "internalType": "string",
              "name": "name",
              "type": "string"
            },
            {
              "internalType": "string",
              "name": "dateOfBirth",
              "type": "string"
            },
            {
              "internalType": "string",
              "name": "gender",
              "type": "string"
            },
            {
              "internalType": "string",
              "name": "panNumber",
              "type": "string"
            }
          ],
          "internalType": "struct ThreeCredit.PersonalInformation",
          "name": "",
          "type": "tuple"
        },
        {
          "components": [
            {
              "internalType": "string",
              "name": "employerName",
              "type": "string"
            },
            {
              "internalType": "string",
              "name": "occupation",
              "type": "string"
            },
            {
              "internalType": "uint256",
              "name": "incomePerYear",
              "type": "uint256"
            },
            {
              "internalType": "string",
              "name": "startTime",
              "type": "string"
            },
            {
              "internalType": "string",
              "name": "endTime",
              "type": "string"
            }
          ],
          "internalType": "struct ThreeCredit.EmploymentInformation[]",
          "name": "",
          "type": "tuple[]"
        },
        {
          "components": [
            {
              "components": [
                {
                  "internalType": "string",
                  "name": "loanType",
                  "type": "string"
                },
                {
                  "internalType": "uint256",
                  "name": "loanAmount",
                  "type": "uint256"
                },
                {
                  "internalType": "uint256",
                  "name": "loanTenure",
                  "type": "uint256"
                },
                {
                  "internalType": "string",
                  "name": "repaymentStatus",
                  "type": "string"
                }
              ],
              "internalType": "struct ThreeCredit.LoanRepaymentHistory[]",
              "name": "loanRepaymentHistory",
              "type": "tuple[]"
            }
          ],
          "internalType": "struct ThreeCredit.CreditHistory",
          "name": "",
          "type": "tuple"
        }
      ],
      "stateMutability": "view",
      "type": "function"
    }
  ],
  "bytecode": "0x608060405234801561001057600080fd5b50611737806100206000396000f3fe608060405234801561001057600080fd5b506004361061004c5760003560e01c80631a6219bd146100515780632edef2231461006d57806347f0ca001461009f578063863c60d9146100bb575b600080fd5b61006b60048036038101906100669190610c46565b6100d7565b005b61008760048036038101906100829190610cbe565b610170565b604051610096939291906110b0565b60405180910390f35b6100b960048036038101906100b491906111f8565b610883565b005b6100d560048036038101906100d09190611358565b61093b565b005b600080836040516100e8919061140c565b9081526020016040518091039020905080600501600001829080600181540180825580915050600190039060005260206000209060040201600090919091909150600082015181600001908161013e919061162f565b5060208201518160010155604082015181600201556060820151816003019081610168919061162f565b505050505050565b6101786109c1565b60606101826109e9565b60008085604051610193919061140c565b9081526020016040518091039020604051806060016040529081600082016040518060800160405290816000820180546101cc90611452565b80601f01602080910402602001604051908101604052809291908181526020018280546101f890611452565b80156102455780601f1061021a57610100808354040283529160200191610245565b820191906000526020600020905b81548152906001019060200180831161022857829003601f168201915b5050505050815260200160018201805461025e90611452565b80601f016020809104026020016040519081016040528092919081815260200182805461028a90611452565b80156102d75780601f106102ac576101008083540402835291602001916102d7565b820191906000526020600020905b8154815290600101906020018083116102ba57829003601f168201915b505050505081526020016002820180546102f090611452565b80601f016020809104026020016040519081016040528092919081815260200182805461031c90611452565b80156103695780601f1061033e57610100808354040283529160200191610369565b820191906000526020600020905b81548152906001019060200180831161034c57829003601f168201915b5050505050815260200160038201805461038290611452565b80601f01602080910402602001604051908101604052809291908181526020018280546103ae90611452565b80156103fb5780601f106103d0576101008083540402835291602001916103fb565b820191906000526020600020905b8154815290600101906020018083116103de57829003601f168201915b505050505081525050815260200160048201805480602002602001604051908101604052809291908181526020016000905b828210156106b157838290600052602060002090600502016040518060a001604052908160008201805461046090611452565b80601f016020809104026020016040519081016040528092919081815260200182805461048c90611452565b80156104d95780601f106104ae576101008083540402835291602001916104d9565b820191906000526020600020905b8154815290600101906020018083116104bc57829003601f168201915b505050505081526020016001820180546104f290611452565b80601f016020809104026020016040519081016040528092919081815260200182805461051e90611452565b801561056b5780601f106105405761010080835404028352916020019161056b565b820191906000526020600020905b81548152906001019060200180831161054e57829003601f168201915b505050505081526020016002820154815260200160038201805461058e90611452565b80601f01602080910402602001604051908101604052809291908181526020018280546105ba90611452565b80156106075780601f106105dc57610100808354040283529160200191610607565b820191906000526020600020905b8154815290600101906020018083116105ea57829003601f168201915b5050505050815260200160048201805461062090611452565b80601f016020809104026020016040519081016040528092919081815260200182805461064c90611452565b80156106995780601f1061066e57610100808354040283529160200191610699565b820191906000526020600020905b81548152906001019060200180831161067c57829003601f168201915b5050505050815250508152602001906001019061042d565b5050505081526020016005820160405180602001604052908160008201805480602002602001604051908101604052809291908181526020016000905b82821015610858578382906000526020600020906004020160405180608001604052908160008201805461072190611452565b80601f016020809104026020016040519081016040528092919081815260200182805461074d90611452565b801561079a5780601f1061076f5761010080835404028352916020019161079a565b820191906000526020600020905b81548152906001019060200180831161077d57829003601f168201915b5050505050815260200160018201548152602001600282015481526020016003820180546107c790611452565b80601f01602080910402602001604051908101604052809291908181526020018280546107f390611452565b80156108405780601f1061081557610100808354040283529160200191610840565b820191906000526020600020905b81548152906001019060200180831161082357829003601f168201915b505050505081525050815260200190600101906106ee565b5050505081525050815250509050806000015181602001518260400151935093509350509193909250565b60008083604051610894919061140c565b908152602001604051809103902090508060040182908060018154018082558091505060019003906000526020600020906005020160009091909190915060008201518160000190816108e7919061162f565b5060208201518160010190816108fd919061162f565b5060408201518160020155606082015181600301908161091d919061162f565b506080820151816004019081610933919061162f565b505050505050565b6000808360405161094c919061140c565b9081526020016040518091039020905081816000016000820151816000019081610976919061162f565b50602082015181600101908161098c919061162f565b5060408201518160020190816109a2919061162f565b5060608201518160030190816109b8919061162f565b50905050505050565b6040518060800160405280606081526020016060815260200160608152602001606081525090565b6040518060200160405280606081525090565b6000604051905090565b600080fd5b600080fd5b600080fd5b600080fd5b6000601f19601f8301169050919050565b7f4e487b7100000000000000000000000000000000000000000000000000000000600052604160045260246000fd5b610a6382610a1a565b810181811067ffffffffffffffff82111715610a8257610a81610a2b565b5b80604052505050565b6000610a956109fc565b9050610aa18282610a5a565b919050565b600067ffffffffffffffff821115610ac157610ac0610a2b565b5b610aca82610a1a565b9050602081019050919050565b82818337600083830152505050565b6000610af9610af484610aa6565b610a8b565b905082815260208101848484011115610b1557610b14610a15565b5b610b20848285610ad7565b509392505050565b600082601f830112610b3d57610b3c610a10565b5b8135610b4d848260208601610ae6565b91505092915050565b600080fd5b600080fd5b6000819050919050565b610b7381610b60565b8114610b7e57600080fd5b50565b600081359050610b9081610b6a565b92915050565b600060808284031215610bac57610bab610b56565b5b610bb66080610a8b565b9050600082013567ffffffffffffffff811115610bd657610bd5610b5b565b5b610be284828501610b28565b6000830152506020610bf684828501610b81565b6020830152506040610c0a84828501610b81565b604083015250606082013567ffffffffffffffff811115610c2e57610c2d610b5b565b5b610c3a84828501610b28565b60608301525092915050565b60008060408385031215610c5d57610c5c610a06565b5b600083013567ffffffffffffffff811115610c7b57610c7a610a0b565b5b610c8785828601610b28565b925050602083013567ffffffffffffffff811115610ca857610ca7610a0b565b5b610cb485828601610b96565b9150509250929050565b600060208284031215610cd457610cd3610a06565b5b600082013567ffffffffffffffff811115610cf257610cf1610a0b565b5b610cfe84828501610b28565b91505092915050565b600081519050919050565b600082825260208201905092915050565b60005b83811015610d41578082015181840152602081019050610d26565b60008484015250505050565b6000610d5882610d07565b610d628185610d12565b9350610d72818560208601610d23565b610d7b81610a1a565b840191505092915050565b60006080830160008301518482036000860152610da38282610d4d565b91505060208301518482036020860152610dbd8282610d4d565b91505060408301518482036040860152610dd78282610d4d565b91505060608301518482036060860152610df18282610d4d565b9150508091505092915050565b600081519050919050565b600082825260208201905092915050565b6000819050602082019050919050565b610e3381610b60565b82525050565b600060a0830160008301518482036000860152610e568282610d4d565b91505060208301518482036020860152610e708282610d4d565b9150506040830151610e856040860182610e2a565b5060608301518482036060860152610e9d8282610d4d565b91505060808301518482036080860152610eb78282610d4d565b9150508091505092915050565b6000610ed08383610e39565b905092915050565b6000602082019050919050565b6000610ef082610dfe565b610efa8185610e09565b935083602082028501610f0c85610e1a565b8060005b85811015610f485784840389528151610f298582610ec4565b9450610f3483610ed8565b925060208a01995050600181019050610f10565b50829750879550505050505092915050565b600081519050919050565b600082825260208201905092915050565b6000819050602082019050919050565b60006080830160008301518482036000860152610fa38282610d4d565b9150506020830151610fb86020860182610e2a565b506040830151610fcb6040860182610e2a565b5060608301518482036060860152610fe38282610d4d565b9150508091505092915050565b6000610ffc8383610f86565b905092915050565b6000602082019050919050565b600061101c82610f5a565b6110268185610f65565b93508360208202850161103885610f76565b8060005b8581101561107457848403895281516110558582610ff0565b945061106083611004565b925060208a0199505060018101905061103c565b50829750879550505050505092915050565b600060208301600083015184820360008601526110a38282611011565b9150508091505092915050565b600060608201905081810360008301526110ca8186610d86565b905081810360208301526110de8185610ee5565b905081810360408301526110f28184611086565b9050949350505050565b600060a0828403121561111257611111610b56565b5b61111c60a0610a8b565b9050600082013567ffffffffffffffff81111561113c5761113b610b5b565b5b61114884828501610b28565b600083015250602082013567ffffffffffffffff81111561116c5761116b610b5b565b5b61117884828501610b28565b602083015250604061118c84828501610b81565b604083015250606082013567ffffffffffffffff8111156111b0576111af610b5b565b5b6111bc84828501610b28565b606083015250608082013567ffffffffffffffff8111156111e0576111df610b5b565b5b6111ec84828501610b28565b60808301525092915050565b6000806040838503121561120f5761120e610a06565b5b600083013567ffffffffffffffff81111561122d5761122c610a0b565b5b61123985828601610b28565b925050602083013567ffffffffffffffff81111561125a57611259610a0b565b5b611266858286016110fc565b9150509250929050565b60006080828403121561128657611285610b56565b5b6112906080610a8b565b9050600082013567ffffffffffffffff8111156112b0576112af610b5b565b5b6112bc84828501610b28565b600083015250602082013567ffffffffffffffff8111156112e0576112df610b5b565b5b6112ec84828501610b28565b602083015250604082013567ffffffffffffffff8111156113105761130f610b5b565b5b61131c84828501610b28565b604083015250606082013567ffffffffffffffff8111156113405761133f610b5b565b5b61134c84828501610b28565b60608301525092915050565b6000806040838503121561136f5761136e610a06565b5b600083013567ffffffffffffffff81111561138d5761138c610a0b565b5b61139985828601610b28565b925050602083013567ffffffffffffffff8111156113ba576113b9610a0b565b5b6113c685828601611270565b9150509250929050565b600081905092915050565b60006113e682610d07565b6113f081856113d0565b9350611400818560208601610d23565b80840191505092915050565b600061141882846113db565b915081905092915050565b7f4e487b7100000000000000000000000000000000000000000000000000000000600052602260045260246000fd5b6000600282049050600182168061146a57607f821691505b60208210810361147d5761147c611423565b5b50919050565b60008190508160005260206000209050919050565b60006020601f8301049050919050565b600082821b905092915050565b6000600883026114e57fffffffffffffffffffffffffffffffffffffffffffffffffffffffffffffffff826114a8565b6114ef86836114a8565b95508019841693508086168417925050509392505050565b6000819050919050565b600061152c61152761152284610b60565b611507565b610b60565b9050919050565b6000819050919050565b61154683611511565b61155a61155282611533565b8484546114b5565b825550505050565b600090565b61156f611562565b61157a81848461153d565b505050565b5b8181101561159e57611593600082611567565b600181019050611580565b5050565b601f8211156115e3576115b481611483565b6115bd84611498565b810160208510156115cc578190505b6115e06115d885611498565b83018261157f565b50505b505050565b600082821c905092915050565b6000611606600019846008026115e8565b1980831691505092915050565b600061161f83836115f5565b9150826002028217905092915050565b61163882610d07565b67ffffffffffffffff81111561165157611650610a2b565b5b61165b8254611452565b6116668282856115a2565b600060209050601f8311600181146116995760008415611687578287015190505b6116918582611613565b8655506116f9565b601f1984166116a786611483565b60005b828110156116cf578489015182556001820191506020850194506020810190506116aa565b868310156116ec57848901516116e8601f8916826115f5565b8355505b6001600288020188555050505b50505050505056fea26469706673582212206b6ebea092fd401a36baefbf2a9a363cafeb0fd3615c9daded5f946d07ee7ae264736f6c63430008110033",
  "linkReferences": {},
  "deployedLinkReferences": {}
}