{
  "_format": "hh-sol-artifact-1",
  "contractName": "ThreeCredit",
  "sourceName": "contracts/ThreeCredit.sol",
  "abi": [
    {
      "inputs": [],
      "stateMutability": "nonpayable",
      "type": "constructor"
    },
    {
      "inputs": [
        {
          "internalType": "address",
          "name": "_authorized",
          "type": "address"
        }
      ],
      "name": "addAuthorized",
      "outputs": [],
      "stateMutability": "nonpayable",
      "type": "function"
    },
    {
      "inputs": [
        {
          "internalType": "string",
          "name": "panNumber",
          "type": "string"
        },
        {
          "components": [
            {
              "internalType": "string",
              "name": "employerName",
              "type": "string"
            },
            {
              "internalType": "string",
              "name": "occupation",
              "type": "string"
            },
            {
              "internalType": "uint256",
              "name": "incomePerYear",
              "type": "uint256"
            },
            {
              "internalType": "string",
              "name": "startTime",
              "type": "string"
            },
            {
              "internalType": "string",
              "name": "endTime",
              "type": "string"
            }
          ],
          "internalType": "struct ThreeCredit.EmploymentInformation",
          "name": "employmentInformation",
          "type": "tuple"
        }
      ],
      "name": "addEmploymentInformation",
      "outputs": [],
      "stateMutability": "nonpayable",
      "type": "function"
    },
    {
      "inputs": [
        {
          "internalType": "string",
          "name": "panNumber",
          "type": "string"
        },
        {
          "components": [
            {
              "internalType": "string",
              "name": "loanType",
              "type": "string"
            },
            {
              "internalType": "uint256",
              "name": "loanAmount",
              "type": "uint256"
            },
            {
              "internalType": "uint256",
              "name": "loanTenure",
              "type": "uint256"
            },
            {
              "internalType": "string",
              "name": "repaymentStatus",
              "type": "string"
            }
          ],
          "internalType": "struct ThreeCredit.LoanRepaymentHistory",
          "name": "loanRepaymentHistory",
          "type": "tuple"
        }
      ],
      "name": "addLoanRepaymentHistory",
      "outputs": [],
      "stateMutability": "nonpayable",
      "type": "function"
    },
    {
      "inputs": [
        {
          "internalType": "string",
          "name": "panNumber",
          "type": "string"
        },
        {
          "components": [
            {
              "internalType": "string",
              "name": "name",
              "type": "string"
            },
            {
              "internalType": "string",
              "name": "dateOfBirth",
              "type": "string"
            },
            {
              "internalType": "string",
              "name": "gender",
              "type": "string"
            },
            {
              "internalType": "string",
              "name": "panNumber",
              "type": "string"
            }
          ],
          "internalType": "struct ThreeCredit.PersonalInformation",
          "name": "personalInformation",
          "type": "tuple"
        }
      ],
      "name": "addPersonalInformation",
      "outputs": [],
      "stateMutability": "nonpayable",
      "type": "function"
    },
    {
      "inputs": [
        {
          "internalType": "uint256",
          "name": "",
          "type": "uint256"
        }
      ],
      "name": "authorized",
      "outputs": [
        {
          "internalType": "address",
          "name": "",
          "type": "address"
        }
      ],
      "stateMutability": "view",
      "type": "function"
    },
    {
      "inputs": [
        {
          "internalType": "string",
          "name": "panNumber",
          "type": "string"
        }
      ],
      "name": "getFinancialData",
      "outputs": [
        {
          "components": [
            {
              "internalType": "string",
              "name": "name",
              "type": "string"
            },
            {
              "internalType": "string",
              "name": "dateOfBirth",
              "type": "string"
            },
            {
              "internalType": "string",
              "name": "gender",
              "type": "string"
            },
            {
              "internalType": "string",
              "name": "panNumber",
              "type": "string"
            }
          ],
          "internalType": "struct ThreeCredit.PersonalInformation",
          "name": "",
          "type": "tuple"
        },
        {
          "components": [
            {
              "internalType": "string",
              "name": "employerName",
              "type": "string"
            },
            {
              "internalType": "string",
              "name": "occupation",
              "type": "string"
            },
            {
              "internalType": "uint256",
              "name": "incomePerYear",
              "type": "uint256"
            },
            {
              "internalType": "string",
              "name": "startTime",
              "type": "string"
            },
            {
              "internalType": "string",
              "name": "endTime",
              "type": "string"
            }
          ],
          "internalType": "struct ThreeCredit.EmploymentInformation[]",
          "name": "",
          "type": "tuple[]"
        },
        {
          "components": [
            {
              "components": [
                {
                  "internalType": "string",
                  "name": "loanType",
                  "type": "string"
                },
                {
                  "internalType": "uint256",
                  "name": "loanAmount",
                  "type": "uint256"
                },
                {
                  "internalType": "uint256",
                  "name": "loanTenure",
                  "type": "uint256"
                },
                {
                  "internalType": "string",
                  "name": "repaymentStatus",
                  "type": "string"
                }
              ],
              "internalType": "struct ThreeCredit.LoanRepaymentHistory[]",
              "name": "loanRepaymentHistory",
              "type": "tuple[]"
            }
          ],
          "internalType": "struct ThreeCredit.CreditHistory",
          "name": "",
          "type": "tuple"
        }
      ],
      "stateMutability": "view",
      "type": "function"
    }
  ],
  "bytecode": "0x608060405234801561001057600080fd5b50336000806101000a81548173ffffffffffffffffffffffffffffffffffffffff021916908373ffffffffffffffffffffffffffffffffffffffff160217905550611d2f806100606000396000f3fe608060405234801561001057600080fd5b50600436106100625760003560e01c80630d48669a146100675780631a6219bd146100975780632edef223146100b357806347f0ca00146100e5578063863c60d914610101578063cf1c316a1461011d575b600080fd5b610081600480360381019061007c9190610da7565b610139565b60405161008e9190610e15565b60405180910390f35b6100b160048036038101906100ac9190611030565b610178565b005b6100cd60048036038101906100c891906110a8565b610259565b6040516100dc9392919061149a565b60405180910390f35b6100ff60048036038101906100fa91906115e2565b6109b4565b005b61011b60048036038101906101169190611742565b610ab4565b005b610137600480360381019061013291906117e6565b610b82565b005b6001818154811061014957600080fd5b906000526020600020016000915054906101000a900473ffffffffffffffffffffffffffffffffffffffff1681565b610180610c76565b6101bf576040517f08c379a00000000000000000000000000000000000000000000000000000000081526004016101b690611870565b60405180910390fd5b60006002836040516101d191906118cc565b908152602001604051809103902090508060050160000182908060018154018082558091505060019003906000526020600020906004020160009091909190915060008201518160000190816102279190611aef565b50602082015181600101556040820151816002015560608201518160030190816102519190611aef565b505050505050565b610261610d22565b606061026b610d4a565b610273610c76565b6102b2576040517f08c379a00000000000000000000000000000000000000000000000000000000081526004016102a990611870565b60405180910390fd5b60006002856040516102c491906118cc565b9081526020016040518091039020604051806060016040529081600082016040518060800160405290816000820180546102fd90611912565b80601f016020809104026020016040519081016040528092919081815260200182805461032990611912565b80156103765780601f1061034b57610100808354040283529160200191610376565b820191906000526020600020905b81548152906001019060200180831161035957829003601f168201915b5050505050815260200160018201805461038f90611912565b80601f01602080910402602001604051908101604052809291908181526020018280546103bb90611912565b80156104085780601f106103dd57610100808354040283529160200191610408565b820191906000526020600020905b8154815290600101906020018083116103eb57829003601f168201915b5050505050815260200160028201805461042190611912565b80601f016020809104026020016040519081016040528092919081815260200182805461044d90611912565b801561049a5780601f1061046f5761010080835404028352916020019161049a565b820191906000526020600020905b81548152906001019060200180831161047d57829003601f168201915b505050505081526020016003820180546104b390611912565b80601f01602080910402602001604051908101604052809291908181526020018280546104df90611912565b801561052c5780601f106105015761010080835404028352916020019161052c565b820191906000526020600020905b81548152906001019060200180831161050f57829003601f168201915b505050505081525050815260200160048201805480602002602001604051908101604052809291908181526020016000905b828210156107e257838290600052602060002090600502016040518060a001604052908160008201805461059190611912565b80601f01602080910402602001604051908101604052809291908181526020018280546105bd90611912565b801561060a5780601f106105df5761010080835404028352916020019161060a565b820191906000526020600020905b8154815290600101906020018083116105ed57829003601f168201915b5050505050815260200160018201805461062390611912565b80601f016020809104026020016040519081016040528092919081815260200182805461064f90611912565b801561069c5780601f106106715761010080835404028352916020019161069c565b820191906000526020600020905b81548152906001019060200180831161067f57829003601f168201915b50505050508152602001600282015481526020016003820180546106bf90611912565b80601f01602080910402602001604051908101604052809291908181526020018280546106eb90611912565b80156107385780601f1061070d57610100808354040283529160200191610738565b820191906000526020600020905b81548152906001019060200180831161071b57829003601f168201915b5050505050815260200160048201805461075190611912565b80601f016020809104026020016040519081016040528092919081815260200182805461077d90611912565b80156107ca5780601f1061079f576101008083540402835291602001916107ca565b820191906000526020600020905b8154815290600101906020018083116107ad57829003601f168201915b5050505050815250508152602001906001019061055e565b5050505081526020016005820160405180602001604052908160008201805480602002602001604051908101604052809291908181526020016000905b82821015610989578382906000526020600020906004020160405180608001604052908160008201805461085290611912565b80601f016020809104026020016040519081016040528092919081815260200182805461087e90611912565b80156108cb5780601f106108a0576101008083540402835291602001916108cb565b820191906000526020600020905b8154815290600101906020018083116108ae57829003601f168201915b5050505050815260200160018201548152602001600282015481526020016003820180546108f890611912565b80601f016020809104026020016040519081016040528092919081815260200182805461092490611912565b80156109715780601f1061094657610100808354040283529160200191610971565b820191906000526020600020905b81548152906001019060200180831161095457829003601f168201915b5050505050815250508152602001906001019061081f565b5050505081525050815250509050806000015181602001518260400151935093509350509193909250565b6109bc610c76565b6109fb576040517f08c379a00000000000000000000000000000000000000000000000000000000081526004016109f290611870565b60405180910390fd5b6000600283604051610a0d91906118cc565b90815260200160405180910390209050806004018290806001815401808255809150506001900390600052602060002090600502016000909190919091506000820151816000019081610a609190611aef565b506020820151816001019081610a769190611aef565b50604082015181600201556060820151816003019081610a969190611aef565b506080820151816004019081610aac9190611aef565b505050505050565b610abc610c76565b610afb576040517f08c379a0000000000000000000000000000000000000000000000000000000008152600401610af290611870565b60405180910390fd5b6000600283604051610b0d91906118cc565b9081526020016040518091039020905081816000016000820151816000019081610b379190611aef565b506020820151816001019081610b4d9190611aef565b506040820151816002019081610b639190611aef565b506060820151816003019081610b799190611aef565b50905050505050565b60008054906101000a900473ffffffffffffffffffffffffffffffffffffffff1673ffffffffffffffffffffffffffffffffffffffff163373ffffffffffffffffffffffffffffffffffffffff1614610c10576040517f08c379a0000000000000000000000000000000000000000000000000000000008152600401610c0790611c33565b60405180910390fd5b6001819080600181540180825580915050600190039060005260206000200160009091909190916101000a81548173ffffffffffffffffffffffffffffffffffffffff021916908373ffffffffffffffffffffffffffffffffffffffff16021790555050565b600080600090505b600180549050811015610d19573373ffffffffffffffffffffffffffffffffffffffff1660018281548110610cb657610cb5611c53565b5b9060005260206000200160009054906101000a900473ffffffffffffffffffffffffffffffffffffffff1673ffffffffffffffffffffffffffffffffffffffff1603610d06576001915050610d1f565b8080610d1190611cb1565b915050610c7e565b50600090505b90565b6040518060800160405280606081526020016060815260200160608152602001606081525090565b6040518060200160405280606081525090565b6000604051905090565b600080fd5b600080fd5b6000819050919050565b610d8481610d71565b8114610d8f57600080fd5b50565b600081359050610da181610d7b565b92915050565b600060208284031215610dbd57610dbc610d67565b5b6000610dcb84828501610d92565b91505092915050565b600073ffffffffffffffffffffffffffffffffffffffff82169050919050565b6000610dff82610dd4565b9050919050565b610e0f81610df4565b82525050565b6000602082019050610e2a6000830184610e06565b92915050565b600080fd5b600080fd5b6000601f19601f8301169050919050565b7f4e487b7100000000000000000000000000000000000000000000000000000000600052604160045260246000fd5b610e8382610e3a565b810181811067ffffffffffffffff82111715610ea257610ea1610e4b565b5b80604052505050565b6000610eb5610d5d565b9050610ec18282610e7a565b919050565b600067ffffffffffffffff821115610ee157610ee0610e4b565b5b610eea82610e3a565b9050602081019050919050565b82818337600083830152505050565b6000610f19610f1484610ec6565b610eab565b905082815260208101848484011115610f3557610f34610e35565b5b610f40848285610ef7565b509392505050565b600082601f830112610f5d57610f5c610e30565b5b8135610f6d848260208601610f06565b91505092915050565b600080fd5b600080fd5b600060808284031215610f9657610f95610f76565b5b610fa06080610eab565b9050600082013567ffffffffffffffff811115610fc057610fbf610f7b565b5b610fcc84828501610f48565b6000830152506020610fe084828501610d92565b6020830152506040610ff484828501610d92565b604083015250606082013567ffffffffffffffff81111561101857611017610f7b565b5b61102484828501610f48565b60608301525092915050565b6000806040838503121561104757611046610d67565b5b600083013567ffffffffffffffff81111561106557611064610d6c565b5b61107185828601610f48565b925050602083013567ffffffffffffffff81111561109257611091610d6c565b5b61109e85828601610f80565b9150509250929050565b6000602082840312156110be576110bd610d67565b5b600082013567ffffffffffffffff8111156110dc576110db610d6c565b5b6110e884828501610f48565b91505092915050565b600081519050919050565b600082825260208201905092915050565b60005b8381101561112b578082015181840152602081019050611110565b60008484015250505050565b6000611142826110f1565b61114c81856110fc565b935061115c81856020860161110d565b61116581610e3a565b840191505092915050565b6000608083016000830151848203600086015261118d8282611137565b915050602083015184820360208601526111a78282611137565b915050604083015184820360408601526111c18282611137565b915050606083015184820360608601526111db8282611137565b9150508091505092915050565b600081519050919050565b600082825260208201905092915050565b6000819050602082019050919050565b61121d81610d71565b82525050565b600060a08301600083015184820360008601526112408282611137565b9150506020830151848203602086015261125a8282611137565b915050604083015161126f6040860182611214565b50606083015184820360608601526112878282611137565b915050608083015184820360808601526112a18282611137565b9150508091505092915050565b60006112ba8383611223565b905092915050565b6000602082019050919050565b60006112da826111e8565b6112e481856111f3565b9350836020820285016112f685611204565b8060005b85811015611332578484038952815161131385826112ae565b945061131e836112c2565b925060208a019950506001810190506112fa565b50829750879550505050505092915050565b600081519050919050565b600082825260208201905092915050565b6000819050602082019050919050565b6000608083016000830151848203600086015261138d8282611137565b91505060208301516113a26020860182611214565b5060408301516113b56040860182611214565b50606083015184820360608601526113cd8282611137565b9150508091505092915050565b60006113e68383611370565b905092915050565b6000602082019050919050565b600061140682611344565b611410818561134f565b93508360208202850161142285611360565b8060005b8581101561145e578484038952815161143f85826113da565b945061144a836113ee565b925060208a01995050600181019050611426565b50829750879550505050505092915050565b6000602083016000830151848203600086015261148d82826113fb565b9150508091505092915050565b600060608201905081810360008301526114b48186611170565b905081810360208301526114c881856112cf565b905081810360408301526114dc8184611470565b9050949350505050565b600060a082840312156114fc576114fb610f76565b5b61150660a0610eab565b9050600082013567ffffffffffffffff81111561152657611525610f7b565b5b61153284828501610f48565b600083015250602082013567ffffffffffffffff81111561155657611555610f7b565b5b61156284828501610f48565b602083015250604061157684828501610d92565b604083015250606082013567ffffffffffffffff81111561159a57611599610f7b565b5b6115a684828501610f48565b606083015250608082013567ffffffffffffffff8111156115ca576115c9610f7b565b5b6115d684828501610f48565b60808301525092915050565b600080604083850312156115f9576115f8610d67565b5b600083013567ffffffffffffffff81111561161757611616610d6c565b5b61162385828601610f48565b925050602083013567ffffffffffffffff81111561164457611643610d6c565b5b611650858286016114e6565b9150509250929050565b6000608082840312156116705761166f610f76565b5b61167a6080610eab565b9050600082013567ffffffffffffffff81111561169a57611699610f7b565b5b6116a684828501610f48565b600083015250602082013567ffffffffffffffff8111156116ca576116c9610f7b565b5b6116d684828501610f48565b602083015250604082013567ffffffffffffffff8111156116fa576116f9610f7b565b5b61170684828501610f48565b604083015250606082013567ffffffffffffffff81111561172a57611729610f7b565b5b61173684828501610f48565b60608301525092915050565b6000806040838503121561175957611758610d67565b5b600083013567ffffffffffffffff81111561177757611776610d6c565b5b61178385828601610f48565b925050602083013567ffffffffffffffff8111156117a4576117a3610d6c565b5b6117b08582860161165a565b9150509250929050565b6117c381610df4565b81146117ce57600080fd5b50565b6000813590506117e0816117ba565b92915050565b6000602082840312156117fc576117fb610d67565b5b600061180a848285016117d1565b91505092915050565b600082825260208201905092915050565b7f43616c6c6572206973206e6f7420616e206175686f72697a6564000000000000600082015250565b600061185a601a83611813565b915061186582611824565b602082019050919050565b600060208201905081810360008301526118898161184d565b9050919050565b600081905092915050565b60006118a6826110f1565b6118b08185611890565b93506118c081856020860161110d565b80840191505092915050565b60006118d8828461189b565b915081905092915050565b7f4e487b7100000000000000000000000000000000000000000000000000000000600052602260045260246000fd5b6000600282049050600182168061192a57607f821691505b60208210810361193d5761193c6118e3565b5b50919050565b60008190508160005260206000209050919050565b60006020601f8301049050919050565b600082821b905092915050565b6000600883026119a57fffffffffffffffffffffffffffffffffffffffffffffffffffffffffffffffff82611968565b6119af8683611968565b95508019841693508086168417925050509392505050565b6000819050919050565b60006119ec6119e76119e284610d71565b6119c7565b610d71565b9050919050565b6000819050919050565b611a06836119d1565b611a1a611a12826119f3565b848454611975565b825550505050565b600090565b611a2f611a22565b611a3a8184846119fd565b505050565b5b81811015611a5e57611a53600082611a27565b600181019050611a40565b5050565b601f821115611aa357611a7481611943565b611a7d84611958565b81016020851015611a8c578190505b611aa0611a9885611958565b830182611a3f565b50505b505050565b600082821c905092915050565b6000611ac660001984600802611aa8565b1980831691505092915050565b6000611adf8383611ab5565b9150826002028217905092915050565b611af8826110f1565b67ffffffffffffffff811115611b1157611b10610e4b565b5b611b1b8254611912565b611b26828285611a62565b600060209050601f831160018114611b595760008415611b47578287015190505b611b518582611ad3565b865550611bb9565b601f198416611b6786611943565b60005b82811015611b8f57848901518255600182019150602085019450602081019050611b6a565b86831015611bac5784890151611ba8601f891682611ab5565b8355505b6001600288020188555050505b505050505050565b7f4f6e6c792074686520636f6e7472616374206f776e65722063616e206163636560008201527f737320746869732066756e6374696f6e2e000000000000000000000000000000602082015250565b6000611c1d603183611813565b9150611c2882611bc1565b604082019050919050565b60006020820190508181036000830152611c4c81611c10565b9050919050565b7f4e487b7100000000000000000000000000000000000000000000000000000000600052603260045260246000fd5b7f4e487b7100000000000000000000000000000000000000000000000000000000600052601160045260246000fd5b6000611cbc82610d71565b91507fffffffffffffffffffffffffffffffffffffffffffffffffffffffffffffffff8203611cee57611ced611c82565b5b60018201905091905056fea2646970667358221220752055a9cf5bec95feda291ef6613a592fd6f50bd0fe8351629d0379b2bfbb2064736f6c63430008110033",
  "linkReferences": {},
  "deployedLinkReferences": {}
}