{
  "_format": "hh-sol-artifact-1",
  "contractName": "ThreeCredit",
  "sourceName": "contracts/ThreeCredit.sol",
  "abi": [
    {
      "inputs": [],
      "stateMutability": "nonpayable",
      "type": "constructor"
    },
    {
      "inputs": [
        {
          "internalType": "address",
          "name": "_authorized",
          "type": "address"
        }
      ],
      "name": "addAuthorized",
      "outputs": [],
      "stateMutability": "nonpayable",
      "type": "function"
    },
    {
      "inputs": [
        {
          "internalType": "string",
          "name": "panNumber",
          "type": "string"
        },
        {
          "components": [
            {
              "internalType": "string",
              "name": "employerName",
              "type": "string"
            },
            {
              "internalType": "string",
              "name": "occupation",
              "type": "string"
            },
            {
              "internalType": "uint256",
              "name": "incomePerYear",
              "type": "uint256"
            },
            {
              "internalType": "string",
              "name": "startTime",
              "type": "string"
            },
            {
              "internalType": "string",
              "name": "endTime",
              "type": "string"
            }
          ],
          "internalType": "struct ThreeCredit.EmploymentInformation",
          "name": "employmentInformation",
          "type": "tuple"
        }
      ],
      "name": "addEmploymentInformation",
      "outputs": [],
      "stateMutability": "nonpayable",
      "type": "function"
    },
    {
      "inputs": [
        {
          "internalType": "string",
          "name": "panNumber",
          "type": "string"
        },
        {
          "components": [
            {
              "internalType": "string",
              "name": "loanType",
              "type": "string"
            },
            {
              "internalType": "uint256",
              "name": "loanAmount",
              "type": "uint256"
            },
            {
              "internalType": "uint256",
              "name": "loanTenure",
              "type": "uint256"
            },
            {
              "internalType": "string",
              "name": "repaymentStatus",
              "type": "string"
            }
          ],
          "internalType": "struct ThreeCredit.LoanRepaymentHistory",
          "name": "loanRepaymentHistory",
          "type": "tuple"
        }
      ],
      "name": "addLoanRepaymentHistory",
      "outputs": [],
      "stateMutability": "nonpayable",
      "type": "function"
    },
    {
      "inputs": [
        {
          "internalType": "string",
          "name": "panNumber",
          "type": "string"
        },
        {
          "components": [
            {
              "internalType": "string",
              "name": "name",
              "type": "string"
            },
            {
              "internalType": "string",
              "name": "dateOfBirth",
              "type": "string"
            },
            {
              "internalType": "string",
              "name": "gender",
              "type": "string"
            },
            {
              "internalType": "string",
              "name": "panNumber",
              "type": "string"
            }
          ],
          "internalType": "struct ThreeCredit.PersonalInformation",
          "name": "personalInformation",
          "type": "tuple"
        }
      ],
      "name": "addPersonalInformation",
      "outputs": [],
      "stateMutability": "nonpayable",
      "type": "function"
    },
    {
      "inputs": [
        {
          "internalType": "uint256",
          "name": "",
          "type": "uint256"
        }
      ],
      "name": "authorized",
      "outputs": [
        {
          "internalType": "address",
          "name": "",
          "type": "address"
        }
      ],
      "stateMutability": "view",
      "type": "function"
    },
    {
      "inputs": [
        {
          "internalType": "string",
          "name": "pan",
          "type": "string"
        }
      ],
      "name": "calculateCreditScore",
      "outputs": [
        {
          "internalType": "uint256",
          "name": "",
          "type": "uint256"
        }
      ],
      "stateMutability": "view",
      "type": "function"
    },
    {
      "inputs": [
        {
          "internalType": "string",
          "name": "panNumber",
          "type": "string"
        }
      ],
      "name": "getFinancialData",
      "outputs": [
        {
          "components": [
            {
              "internalType": "string",
              "name": "name",
              "type": "string"
            },
            {
              "internalType": "string",
              "name": "dateOfBirth",
              "type": "string"
            },
            {
              "internalType": "string",
              "name": "gender",
              "type": "string"
            },
            {
              "internalType": "string",
              "name": "panNumber",
              "type": "string"
            }
          ],
          "internalType": "struct ThreeCredit.PersonalInformation",
          "name": "",
          "type": "tuple"
        },
        {
          "components": [
            {
              "internalType": "string",
              "name": "employerName",
              "type": "string"
            },
            {
              "internalType": "string",
              "name": "occupation",
              "type": "string"
            },
            {
              "internalType": "uint256",
              "name": "incomePerYear",
              "type": "uint256"
            },
            {
              "internalType": "string",
              "name": "startTime",
              "type": "string"
            },
            {
              "internalType": "string",
              "name": "endTime",
              "type": "string"
            }
          ],
          "internalType": "struct ThreeCredit.EmploymentInformation[]",
          "name": "",
          "type": "tuple[]"
        },
        {
          "components": [
            {
              "components": [
                {
                  "internalType": "string",
                  "name": "loanType",
                  "type": "string"
                },
                {
                  "internalType": "uint256",
                  "name": "loanAmount",
                  "type": "uint256"
                },
                {
                  "internalType": "uint256",
                  "name": "loanTenure",
                  "type": "uint256"
                },
                {
                  "internalType": "string",
                  "name": "repaymentStatus",
                  "type": "string"
                }
              ],
              "internalType": "struct ThreeCredit.LoanRepaymentHistory[]",
              "name": "loanRepaymentHistory",
              "type": "tuple[]"
            }
          ],
          "internalType": "struct ThreeCredit.CreditHistory",
          "name": "",
          "type": "tuple"
        }
      ],
      "stateMutability": "view",
      "type": "function"
    }
  ],
  "bytecode": "0x608060405234801561001057600080fd5b50336000806101000a81548173ffffffffffffffffffffffffffffffffffffffff021916908373ffffffffffffffffffffffffffffffffffffffff16021790555061268a806100606000396000f3fe608060405234801561001057600080fd5b506004361061007d5760003560e01c806347f0ca001161005b57806347f0ca0014610100578063863c60d91461011c578063a7be0e3414610138578063cf1c316a146101685761007d565b80630d48669a146100825780631a6219bd146100b25780632edef223146100ce575b600080fd5b61009c6004803603810190610097919061166e565b610184565b6040516100a991906116dc565b60405180910390f35b6100cc60048036038101906100c791906118f7565b6101c3565b005b6100e860048036038101906100e3919061196f565b61025d565b6040516100f793929190611d61565b60405180910390f35b61011a60048036038101906101159190611ea9565b610971565b005b61013660048036038101906101319190612009565b610a2a565b005b610152600480360381019061014d919061196f565b610ab1565b60405161015f9190612090565b60405180910390f35b610182600480360381019061017d91906120d7565b6114f5565b005b6001818154811061019457600080fd5b906000526020600020016000915054906101000a900473ffffffffffffffffffffffffffffffffffffffff1681565b60006002836040516101d59190612140565b9081526020016040518091039020905080600501600001829080600181540180825580915050600190039060005260206000209060040201600090919091909150600082015181600001908161022b9190612363565b50602082015181600101556040820151816002015560608201518160030190816102559190612363565b505050505050565b6102656115e9565b606061026f611611565b60006002856040516102819190612140565b9081526020016040518091039020604051806060016040529081600082016040518060800160405290816000820180546102ba90612186565b80601f01602080910402602001604051908101604052809291908181526020018280546102e690612186565b80156103335780601f1061030857610100808354040283529160200191610333565b820191906000526020600020905b81548152906001019060200180831161031657829003601f168201915b5050505050815260200160018201805461034c90612186565b80601f016020809104026020016040519081016040528092919081815260200182805461037890612186565b80156103c55780601f1061039a576101008083540402835291602001916103c5565b820191906000526020600020905b8154815290600101906020018083116103a857829003601f168201915b505050505081526020016002820180546103de90612186565b80601f016020809104026020016040519081016040528092919081815260200182805461040a90612186565b80156104575780601f1061042c57610100808354040283529160200191610457565b820191906000526020600020905b81548152906001019060200180831161043a57829003601f168201915b5050505050815260200160038201805461047090612186565b80601f016020809104026020016040519081016040528092919081815260200182805461049c90612186565b80156104e95780601f106104be576101008083540402835291602001916104e9565b820191906000526020600020905b8154815290600101906020018083116104cc57829003601f168201915b505050505081525050815260200160048201805480602002602001604051908101604052809291908181526020016000905b8282101561079f57838290600052602060002090600502016040518060a001604052908160008201805461054e90612186565b80601f016020809104026020016040519081016040528092919081815260200182805461057a90612186565b80156105c75780601f1061059c576101008083540402835291602001916105c7565b820191906000526020600020905b8154815290600101906020018083116105aa57829003601f168201915b505050505081526020016001820180546105e090612186565b80601f016020809104026020016040519081016040528092919081815260200182805461060c90612186565b80156106595780601f1061062e57610100808354040283529160200191610659565b820191906000526020600020905b81548152906001019060200180831161063c57829003601f168201915b505050505081526020016002820154815260200160038201805461067c90612186565b80601f01602080910402602001604051908101604052809291908181526020018280546106a890612186565b80156106f55780601f106106ca576101008083540402835291602001916106f5565b820191906000526020600020905b8154815290600101906020018083116106d857829003601f168201915b5050505050815260200160048201805461070e90612186565b80601f016020809104026020016040519081016040528092919081815260200182805461073a90612186565b80156107875780601f1061075c57610100808354040283529160200191610787565b820191906000526020600020905b81548152906001019060200180831161076a57829003601f168201915b5050505050815250508152602001906001019061051b565b5050505081526020016005820160405180602001604052908160008201805480602002602001604051908101604052809291908181526020016000905b82821015610946578382906000526020600020906004020160405180608001604052908160008201805461080f90612186565b80601f016020809104026020016040519081016040528092919081815260200182805461083b90612186565b80156108885780601f1061085d57610100808354040283529160200191610888565b820191906000526020600020905b81548152906001019060200180831161086b57829003601f168201915b5050505050815260200160018201548152602001600282015481526020016003820180546108b590612186565b80601f01602080910402602001604051908101604052809291908181526020018280546108e190612186565b801561092e5780601f106109035761010080835404028352916020019161092e565b820191906000526020600020905b81548152906001019060200180831161091157829003601f168201915b505050505081525050815260200190600101906107dc565b5050505081525050815250509050806000015181602001518260400151935093509350509193909250565b60006002836040516109839190612140565b908152602001604051809103902090508060040182908060018154018082558091505060019003906000526020600020906005020160009091909190915060008201518160000190816109d69190612363565b5060208201518160010190816109ec9190612363565b50604082015181600201556060820151816003019081610a0c9190612363565b506080820151816004019081610a229190612363565b505050505050565b6000600283604051610a3c9190612140565b9081526020016040518091039020905081816000016000820151816000019081610a669190612363565b506020820151816001019081610a7c9190612363565b506040820151816002019081610a929190612363565b506060820151816003019081610aa89190612363565b50905050505050565b600080600283604051610ac49190612140565b908152602001604051809103902060405180606001604052908160008201604051806080016040529081600082018054610afd90612186565b80601f0160208091040260200160405190810160405280929190818152602001828054610b2990612186565b8015610b765780601f10610b4b57610100808354040283529160200191610b76565b820191906000526020600020905b815481529060010190602001808311610b5957829003601f168201915b50505050508152602001600182018054610b8f90612186565b80601f0160208091040260200160405190810160405280929190818152602001828054610bbb90612186565b8015610c085780601f10610bdd57610100808354040283529160200191610c08565b820191906000526020600020905b815481529060010190602001808311610beb57829003601f168201915b50505050508152602001600282018054610c2190612186565b80601f0160208091040260200160405190810160405280929190818152602001828054610c4d90612186565b8015610c9a5780601f10610c6f57610100808354040283529160200191610c9a565b820191906000526020600020905b815481529060010190602001808311610c7d57829003601f168201915b50505050508152602001600382018054610cb390612186565b80601f0160208091040260200160405190810160405280929190818152602001828054610cdf90612186565b8015610d2c5780601f10610d0157610100808354040283529160200191610d2c565b820191906000526020600020905b815481529060010190602001808311610d0f57829003601f168201915b505050505081525050815260200160048201805480602002602001604051908101604052809291908181526020016000905b82821015610fe257838290600052602060002090600502016040518060a0016040529081600082018054610d9190612186565b80601f0160208091040260200160405190810160405280929190818152602001828054610dbd90612186565b8015610e0a5780601f10610ddf57610100808354040283529160200191610e0a565b820191906000526020600020905b815481529060010190602001808311610ded57829003601f168201915b50505050508152602001600182018054610e2390612186565b80601f0160208091040260200160405190810160405280929190818152602001828054610e4f90612186565b8015610e9c5780601f10610e7157610100808354040283529160200191610e9c565b820191906000526020600020905b815481529060010190602001808311610e7f57829003601f168201915b5050505050815260200160028201548152602001600382018054610ebf90612186565b80601f0160208091040260200160405190810160405280929190818152602001828054610eeb90612186565b8015610f385780601f10610f0d57610100808354040283529160200191610f38565b820191906000526020600020905b815481529060010190602001808311610f1b57829003601f168201915b50505050508152602001600482018054610f5190612186565b80601f0160208091040260200160405190810160405280929190818152602001828054610f7d90612186565b8015610fca5780601f10610f9f57610100808354040283529160200191610fca565b820191906000526020600020905b815481529060010190602001808311610fad57829003601f168201915b50505050508152505081526020019060010190610d5e565b5050505081526020016005820160405180602001604052908160008201805480602002602001604051908101604052809291908181526020016000905b82821015611189578382906000526020600020906004020160405180608001604052908160008201805461105290612186565b80601f016020809104026020016040519081016040528092919081815260200182805461107e90612186565b80156110cb5780601f106110a0576101008083540402835291602001916110cb565b820191906000526020600020905b8154815290600101906020018083116110ae57829003601f168201915b5050505050815260200160018201548152602001600282015481526020016003820180546110f890612186565b80601f016020809104026020016040519081016040528092919081815260200182805461112490612186565b80156111715780601f1061114657610100808354040283529160200191611171565b820191906000526020600020905b81548152906001019060200180831161115457829003601f168201915b5050505050815250508152602001906001019061101f565b50505050815250508152505090506000816020015190506000826040015160000151905060006207a120836000815181106111c7576111c6612435565b5b602002602001015160400151106111ec5760fa816111e59190612493565b9050611264565b6203d0908360008151811061120457611203612435565b5b60200260200101516040015110611229576064816112229190612493565b9050611263565b620186a08360008151811061124157611240612435565b5b602002602001015160400151106112625760328161125f9190612493565b90505b5b5b60008060005b845181101561149f5784818151811061128657611285612435565b5b6020026020010151602001518261129d9190612493565b91506040518060400160405280600781526020017f6f6e5f74696d6500000000000000000000000000000000000000000000000000815250805190602001208582815181106112ef576112ee612435565b5b60200260200101516060015180519060200120036113445784818151811061131a57611319612435565b5b602002602001015160200151600361133291906124c7565b8361133d9190612493565b925061148c565b6040518060400160405280600c81526020017f73656d695f64656c6179656400000000000000000000000000000000000000008152508051906020012085828151811061139457611393612435565b5b60200260200101516060015180519060200120036113e9578481815181106113bf576113be612435565b5b60200260200101516020015160026113d791906124c7565b836113e29190612493565b925061148b565b6040518060400160405280600781526020017f64656c61796564000000000000000000000000000000000000000000000000008152508051906020012085828151811061143957611438612435565b5b602002602001015160600151805190602001200361148a5784818151811061146457611463612435565b5b602002602001015160200151600161147c91906124c7565b836114879190612493565b92505b5b5b808061149790612509565b91505061126a565b5060008083036114b3576101f490506114e6565b838260036114c191906124c7565b610258856114cf91906124c7565b6114d99190612580565b6114e39190612493565b90505b80975050505050505050919050565b60008054906101000a900473ffffffffffffffffffffffffffffffffffffffff1673ffffffffffffffffffffffffffffffffffffffff163373ffffffffffffffffffffffffffffffffffffffff1614611583576040517f08c379a000000000000000000000000000000000000000000000000000000000815260040161157a90612634565b60405180910390fd5b6001819080600181540180825580915050600190039060005260206000200160009091909190916101000a81548173ffffffffffffffffffffffffffffffffffffffff021916908373ffffffffffffffffffffffffffffffffffffffff16021790555050565b6040518060800160405280606081526020016060815260200160608152602001606081525090565b6040518060200160405280606081525090565b6000604051905090565b600080fd5b600080fd5b6000819050919050565b61164b81611638565b811461165657600080fd5b50565b60008135905061166881611642565b92915050565b6000602082840312156116845761168361162e565b5b600061169284828501611659565b91505092915050565b600073ffffffffffffffffffffffffffffffffffffffff82169050919050565b60006116c68261169b565b9050919050565b6116d6816116bb565b82525050565b60006020820190506116f160008301846116cd565b92915050565b600080fd5b600080fd5b6000601f19601f8301169050919050565b7f4e487b7100000000000000000000000000000000000000000000000000000000600052604160045260246000fd5b61174a82611701565b810181811067ffffffffffffffff8211171561176957611768611712565b5b80604052505050565b600061177c611624565b90506117888282611741565b919050565b600067ffffffffffffffff8211156117a8576117a7611712565b5b6117b182611701565b9050602081019050919050565b82818337600083830152505050565b60006117e06117db8461178d565b611772565b9050828152602081018484840111156117fc576117fb6116fc565b5b6118078482856117be565b509392505050565b600082601f830112611824576118236116f7565b5b81356118348482602086016117cd565b91505092915050565b600080fd5b600080fd5b60006080828403121561185d5761185c61183d565b5b6118676080611772565b9050600082013567ffffffffffffffff81111561188757611886611842565b5b6118938482850161180f565b60008301525060206118a784828501611659565b60208301525060406118bb84828501611659565b604083015250606082013567ffffffffffffffff8111156118df576118de611842565b5b6118eb8482850161180f565b60608301525092915050565b6000806040838503121561190e5761190d61162e565b5b600083013567ffffffffffffffff81111561192c5761192b611633565b5b6119388582860161180f565b925050602083013567ffffffffffffffff81111561195957611958611633565b5b61196585828601611847565b9150509250929050565b6000602082840312156119855761198461162e565b5b600082013567ffffffffffffffff8111156119a3576119a2611633565b5b6119af8482850161180f565b91505092915050565b600081519050919050565b600082825260208201905092915050565b60005b838110156119f25780820151818401526020810190506119d7565b60008484015250505050565b6000611a09826119b8565b611a1381856119c3565b9350611a238185602086016119d4565b611a2c81611701565b840191505092915050565b60006080830160008301518482036000860152611a5482826119fe565b91505060208301518482036020860152611a6e82826119fe565b91505060408301518482036040860152611a8882826119fe565b91505060608301518482036060860152611aa282826119fe565b9150508091505092915050565b600081519050919050565b600082825260208201905092915050565b6000819050602082019050919050565b611ae481611638565b82525050565b600060a0830160008301518482036000860152611b0782826119fe565b91505060208301518482036020860152611b2182826119fe565b9150506040830151611b366040860182611adb565b5060608301518482036060860152611b4e82826119fe565b91505060808301518482036080860152611b6882826119fe565b9150508091505092915050565b6000611b818383611aea565b905092915050565b6000602082019050919050565b6000611ba182611aaf565b611bab8185611aba565b935083602082028501611bbd85611acb565b8060005b85811015611bf95784840389528151611bda8582611b75565b9450611be583611b89565b925060208a01995050600181019050611bc1565b50829750879550505050505092915050565b600081519050919050565b600082825260208201905092915050565b6000819050602082019050919050565b60006080830160008301518482036000860152611c5482826119fe565b9150506020830151611c696020860182611adb565b506040830151611c7c6040860182611adb565b5060608301518482036060860152611c9482826119fe565b9150508091505092915050565b6000611cad8383611c37565b905092915050565b6000602082019050919050565b6000611ccd82611c0b565b611cd78185611c16565b935083602082028501611ce985611c27565b8060005b85811015611d255784840389528151611d068582611ca1565b9450611d1183611cb5565b925060208a01995050600181019050611ced565b50829750879550505050505092915050565b60006020830160008301518482036000860152611d548282611cc2565b9150508091505092915050565b60006060820190508181036000830152611d7b8186611a37565b90508181036020830152611d8f8185611b96565b90508181036040830152611da38184611d37565b9050949350505050565b600060a08284031215611dc357611dc261183d565b5b611dcd60a0611772565b9050600082013567ffffffffffffffff811115611ded57611dec611842565b5b611df98482850161180f565b600083015250602082013567ffffffffffffffff811115611e1d57611e1c611842565b5b611e298482850161180f565b6020830152506040611e3d84828501611659565b604083015250606082013567ffffffffffffffff811115611e6157611e60611842565b5b611e6d8482850161180f565b606083015250608082013567ffffffffffffffff811115611e9157611e90611842565b5b611e9d8482850161180f565b60808301525092915050565b60008060408385031215611ec057611ebf61162e565b5b600083013567ffffffffffffffff811115611ede57611edd611633565b5b611eea8582860161180f565b925050602083013567ffffffffffffffff811115611f0b57611f0a611633565b5b611f1785828601611dad565b9150509250929050565b600060808284031215611f3757611f3661183d565b5b611f416080611772565b9050600082013567ffffffffffffffff811115611f6157611f60611842565b5b611f6d8482850161180f565b600083015250602082013567ffffffffffffffff811115611f9157611f90611842565b5b611f9d8482850161180f565b602083015250604082013567ffffffffffffffff811115611fc157611fc0611842565b5b611fcd8482850161180f565b604083015250606082013567ffffffffffffffff811115611ff157611ff0611842565b5b611ffd8482850161180f565b60608301525092915050565b600080604083850312156120205761201f61162e565b5b600083013567ffffffffffffffff81111561203e5761203d611633565b5b61204a8582860161180f565b925050602083013567ffffffffffffffff81111561206b5761206a611633565b5b61207785828601611f21565b9150509250929050565b61208a81611638565b82525050565b60006020820190506120a56000830184612081565b92915050565b6120b4816116bb565b81146120bf57600080fd5b50565b6000813590506120d1816120ab565b92915050565b6000602082840312156120ed576120ec61162e565b5b60006120fb848285016120c2565b91505092915050565b600081905092915050565b600061211a826119b8565b6121248185612104565b93506121348185602086016119d4565b80840191505092915050565b600061214c828461210f565b915081905092915050565b7f4e487b7100000000000000000000000000000000000000000000000000000000600052602260045260246000fd5b6000600282049050600182168061219e57607f821691505b6020821081036121b1576121b0612157565b5b50919050565b60008190508160005260206000209050919050565b60006020601f8301049050919050565b600082821b905092915050565b6000600883026122197fffffffffffffffffffffffffffffffffffffffffffffffffffffffffffffffff826121dc565b61222386836121dc565b95508019841693508086168417925050509392505050565b6000819050919050565b600061226061225b61225684611638565b61223b565b611638565b9050919050565b6000819050919050565b61227a83612245565b61228e61228682612267565b8484546121e9565b825550505050565b600090565b6122a3612296565b6122ae818484612271565b505050565b5b818110156122d2576122c760008261229b565b6001810190506122b4565b5050565b601f821115612317576122e8816121b7565b6122f1846121cc565b81016020851015612300578190505b61231461230c856121cc565b8301826122b3565b50505b505050565b600082821c905092915050565b600061233a6000198460080261231c565b1980831691505092915050565b60006123538383612329565b9150826002028217905092915050565b61236c826119b8565b67ffffffffffffffff81111561238557612384611712565b5b61238f8254612186565b61239a8282856122d6565b600060209050601f8311600181146123cd57600084156123bb578287015190505b6123c58582612347565b86555061242d565b601f1984166123db866121b7565b60005b82811015612403578489015182556001820191506020850194506020810190506123de565b86831015612420578489015161241c601f891682612329565b8355505b6001600288020188555050505b505050505050565b7f4e487b7100000000000000000000000000000000000000000000000000000000600052603260045260246000fd5b7f4e487b7100000000000000000000000000000000000000000000000000000000600052601160045260246000fd5b600061249e82611638565b91506124a983611638565b92508282019050808211156124c1576124c0612464565b5b92915050565b60006124d282611638565b91506124dd83611638565b92508282026124eb81611638565b9150828204841483151761250257612501612464565b5b5092915050565b600061251482611638565b91507fffffffffffffffffffffffffffffffffffffffffffffffffffffffffffffffff820361254657612545612464565b5b600182019050919050565b7f4e487b7100000000000000000000000000000000000000000000000000000000600052601260045260246000fd5b600061258b82611638565b915061259683611638565b9250826125a6576125a5612551565b5b828204905092915050565b600082825260208201905092915050565b7f4f6e6c792074686520636f6e7472616374206f776e65722063616e206163636560008201527f737320746869732066756e6374696f6e2e000000000000000000000000000000602082015250565b600061261e6031836125b1565b9150612629826125c2565b604082019050919050565b6000602082019050818103600083015261264d81612611565b905091905056fea26469706673582212209856fd49b98fcb7b01513f9856edb9e1c38ba99d95deb4044052c7ee9dfcb75764736f6c63430008110033",
  "linkReferences": {},
  "deployedLinkReferences": {}
}