{
  "_format": "hh-sol-artifact-1",
  "contractName": "ThreeCredit",
  "sourceName": "contracts/ThreeCredit.sol",
  "abi": [
    {
      "inputs": [],
      "stateMutability": "nonpayable",
      "type": "constructor"
    },
    {
      "inputs": [
        {
          "internalType": "address",
          "name": "_authorized",
          "type": "address"
        }
      ],
      "name": "addAuthorized",
      "outputs": [],
      "stateMutability": "nonpayable",
      "type": "function"
    },
    {
      "inputs": [
        {
          "internalType": "string",
          "name": "panNumber",
          "type": "string"
        },
        {
          "components": [
            {
              "internalType": "string",
              "name": "employerName",
              "type": "string"
            },
            {
              "internalType": "string",
              "name": "occupation",
              "type": "string"
            },
            {
              "internalType": "uint256",
              "name": "incomePerYear",
              "type": "uint256"
            },
            {
              "internalType": "string",
              "name": "startTime",
              "type": "string"
            },
            {
              "internalType": "string",
              "name": "endTime",
              "type": "string"
            }
          ],
          "internalType": "struct ThreeCredit.EmploymentInformation",
          "name": "employmentInformation",
          "type": "tuple"
        }
      ],
      "name": "addEmploymentInformation",
      "outputs": [],
      "stateMutability": "nonpayable",
      "type": "function"
    },
    {
      "inputs": [
        {
          "internalType": "string",
          "name": "panNumber",
          "type": "string"
        },
        {
          "components": [
            {
              "internalType": "string",
              "name": "loanType",
              "type": "string"
            },
            {
              "internalType": "uint256",
              "name": "loanAmount",
              "type": "uint256"
            },
            {
              "internalType": "uint256",
              "name": "loanTenure",
              "type": "uint256"
            },
            {
              "internalType": "string",
              "name": "repaymentStatus",
              "type": "string"
            }
          ],
          "internalType": "struct ThreeCredit.LoanRepaymentHistory",
          "name": "loanRepaymentHistory",
          "type": "tuple"
        }
      ],
      "name": "addLoanRepaymentHistory",
      "outputs": [],
      "stateMutability": "nonpayable",
      "type": "function"
    },
    {
      "inputs": [
        {
          "internalType": "string",
          "name": "panNumber",
          "type": "string"
        },
        {
          "components": [
            {
              "internalType": "string",
              "name": "name",
              "type": "string"
            },
            {
              "internalType": "string",
              "name": "dateOfBirth",
              "type": "string"
            },
            {
              "internalType": "string",
              "name": "gender",
              "type": "string"
            },
            {
              "internalType": "string",
              "name": "panNumber",
              "type": "string"
            }
          ],
          "internalType": "struct ThreeCredit.PersonalInformation",
          "name": "personalInformation",
          "type": "tuple"
        }
      ],
      "name": "addPersonalInformation",
      "outputs": [],
      "stateMutability": "nonpayable",
      "type": "function"
    },
    {
      "inputs": [
        {
          "internalType": "uint256",
          "name": "",
          "type": "uint256"
        }
      ],
      "name": "authorized",
      "outputs": [
        {
          "internalType": "address",
          "name": "",
          "type": "address"
        }
      ],
      "stateMutability": "view",
      "type": "function"
    },
    {
      "inputs": [
        {
          "internalType": "string",
          "name": "pan",
          "type": "string"
        }
      ],
      "name": "calculateCreditScore",
      "outputs": [
        {
          "internalType": "uint256",
          "name": "",
          "type": "uint256"
        }
      ],
      "stateMutability": "view",
      "type": "function"
    },
    {
      "inputs": [
        {
          "internalType": "string",
          "name": "panNumber",
          "type": "string"
        }
      ],
      "name": "getFinancialData",
      "outputs": [
        {
          "components": [
            {
              "internalType": "string",
              "name": "name",
              "type": "string"
            },
            {
              "internalType": "string",
              "name": "dateOfBirth",
              "type": "string"
            },
            {
              "internalType": "string",
              "name": "gender",
              "type": "string"
            },
            {
              "internalType": "string",
              "name": "panNumber",
              "type": "string"
            }
          ],
          "internalType": "struct ThreeCredit.PersonalInformation",
          "name": "",
          "type": "tuple"
        },
        {
          "components": [
            {
              "internalType": "string",
              "name": "employerName",
              "type": "string"
            },
            {
              "internalType": "string",
              "name": "occupation",
              "type": "string"
            },
            {
              "internalType": "uint256",
              "name": "incomePerYear",
              "type": "uint256"
            },
            {
              "internalType": "string",
              "name": "startTime",
              "type": "string"
            },
            {
              "internalType": "string",
              "name": "endTime",
              "type": "string"
            }
          ],
          "internalType": "struct ThreeCredit.EmploymentInformation[]",
          "name": "",
          "type": "tuple[]"
        },
        {
          "components": [
            {
              "components": [
                {
                  "internalType": "string",
                  "name": "loanType",
                  "type": "string"
                },
                {
                  "internalType": "uint256",
                  "name": "loanAmount",
                  "type": "uint256"
                },
                {
                  "internalType": "uint256",
                  "name": "loanTenure",
                  "type": "uint256"
                },
                {
                  "internalType": "string",
                  "name": "repaymentStatus",
                  "type": "string"
                }
              ],
              "internalType": "struct ThreeCredit.LoanRepaymentHistory[]",
              "name": "loanRepaymentHistory",
              "type": "tuple[]"
            }
          ],
          "internalType": "struct ThreeCredit.CreditHistory",
          "name": "",
          "type": "tuple"
        }
      ],
      "stateMutability": "view",
      "type": "function"
    }
  ],
  "bytecode": "0x608060405234801561001057600080fd5b50336000806101000a81548173ffffffffffffffffffffffffffffffffffffffff021916908373ffffffffffffffffffffffffffffffffffffffff160217905550612906806100606000396000f3fe608060405234801561001057600080fd5b506004361061007d5760003560e01c806347f0ca001161005b57806347f0ca0014610100578063863c60d91461011c578063a7be0e3414610138578063cf1c316a146101685761007d565b80630d48669a146100825780631a6219bd146100b25780632edef223146100ce575b600080fd5b61009c6004803603810190610097919061187e565b610184565b6040516100a991906118ec565b60405180910390f35b6100cc60048036038101906100c79190611b07565b6101c3565b005b6100e860048036038101906100e39190611b7f565b6102a4565b6040516100f793929190611f71565b60405180910390f35b61011a600480360381019061011591906120b9565b6109ff565b005b61013660048036038101906101319190612219565b610aff565b005b610152600480360381019061014d9190611b7f565b610bcd565b60405161015f91906122a0565b60405180910390f35b610182600480360381019061017d91906122e7565b611659565b005b6001818154811061019457600080fd5b906000526020600020016000915054906101000a900473ffffffffffffffffffffffffffffffffffffffff1681565b6101cb61174d565b61020a576040517f08c379a000000000000000000000000000000000000000000000000000000000815260040161020190612371565b60405180910390fd5b600060028360405161021c91906123cd565b9081526020016040518091039020905080600501600001829080600181540180825580915050600190039060005260206000209060040201600090919091909150600082015181600001908161027291906125f0565b506020820151816001015560408201518160020155606082015181600301908161029c91906125f0565b505050505050565b6102ac6117f9565b60606102b6611821565b6102be61174d565b6102fd576040517f08c379a00000000000000000000000000000000000000000000000000000000081526004016102f490612371565b60405180910390fd5b600060028560405161030f91906123cd565b90815260200160405180910390206040518060600160405290816000820160405180608001604052908160008201805461034890612413565b80601f016020809104026020016040519081016040528092919081815260200182805461037490612413565b80156103c15780601f10610396576101008083540402835291602001916103c1565b820191906000526020600020905b8154815290600101906020018083116103a457829003601f168201915b505050505081526020016001820180546103da90612413565b80601f016020809104026020016040519081016040528092919081815260200182805461040690612413565b80156104535780601f1061042857610100808354040283529160200191610453565b820191906000526020600020905b81548152906001019060200180831161043657829003601f168201915b5050505050815260200160028201805461046c90612413565b80601f016020809104026020016040519081016040528092919081815260200182805461049890612413565b80156104e55780601f106104ba576101008083540402835291602001916104e5565b820191906000526020600020905b8154815290600101906020018083116104c857829003601f168201915b505050505081526020016003820180546104fe90612413565b80601f016020809104026020016040519081016040528092919081815260200182805461052a90612413565b80156105775780601f1061054c57610100808354040283529160200191610577565b820191906000526020600020905b81548152906001019060200180831161055a57829003601f168201915b505050505081525050815260200160048201805480602002602001604051908101604052809291908181526020016000905b8282101561082d57838290600052602060002090600502016040518060a00160405290816000820180546105dc90612413565b80601f016020809104026020016040519081016040528092919081815260200182805461060890612413565b80156106555780601f1061062a57610100808354040283529160200191610655565b820191906000526020600020905b81548152906001019060200180831161063857829003601f168201915b5050505050815260200160018201805461066e90612413565b80601f016020809104026020016040519081016040528092919081815260200182805461069a90612413565b80156106e75780601f106106bc576101008083540402835291602001916106e7565b820191906000526020600020905b8154815290600101906020018083116106ca57829003601f168201915b505050505081526020016002820154815260200160038201805461070a90612413565b80601f016020809104026020016040519081016040528092919081815260200182805461073690612413565b80156107835780601f1061075857610100808354040283529160200191610783565b820191906000526020600020905b81548152906001019060200180831161076657829003601f168201915b5050505050815260200160048201805461079c90612413565b80601f01602080910402602001604051908101604052809291908181526020018280546107c890612413565b80156108155780601f106107ea57610100808354040283529160200191610815565b820191906000526020600020905b8154815290600101906020018083116107f857829003601f168201915b505050505081525050815260200190600101906105a9565b5050505081526020016005820160405180602001604052908160008201805480602002602001604051908101604052809291908181526020016000905b828210156109d4578382906000526020600020906004020160405180608001604052908160008201805461089d90612413565b80601f01602080910402602001604051908101604052809291908181526020018280546108c990612413565b80156109165780601f106108eb57610100808354040283529160200191610916565b820191906000526020600020905b8154815290600101906020018083116108f957829003601f168201915b50505050508152602001600182015481526020016002820154815260200160038201805461094390612413565b80601f016020809104026020016040519081016040528092919081815260200182805461096f90612413565b80156109bc5780601f10610991576101008083540402835291602001916109bc565b820191906000526020600020905b81548152906001019060200180831161099f57829003601f168201915b5050505050815250508152602001906001019061086a565b5050505081525050815250509050806000015181602001518260400151935093509350509193909250565b610a0761174d565b610a46576040517f08c379a0000000000000000000000000000000000000000000000000000000008152600401610a3d90612371565b60405180910390fd5b6000600283604051610a5891906123cd565b90815260200160405180910390209050806004018290806001815401808255809150506001900390600052602060002090600502016000909190919091506000820151816000019081610aab91906125f0565b506020820151816001019081610ac191906125f0565b50604082015181600201556060820151816003019081610ae191906125f0565b506080820151816004019081610af791906125f0565b505050505050565b610b0761174d565b610b46576040517f08c379a0000000000000000000000000000000000000000000000000000000008152600401610b3d90612371565b60405180910390fd5b6000600283604051610b5891906123cd565b9081526020016040518091039020905081816000016000820151816000019081610b8291906125f0565b506020820151816001019081610b9891906125f0565b506040820151816002019081610bae91906125f0565b506060820151816003019081610bc491906125f0565b50905050505050565b6000610bd761174d565b610c16576040517f08c379a0000000000000000000000000000000000000000000000000000000008152600401610c0d90612371565b60405180910390fd5b6000600283604051610c2891906123cd565b908152602001604051809103902060405180606001604052908160008201604051806080016040529081600082018054610c6190612413565b80601f0160208091040260200160405190810160405280929190818152602001828054610c8d90612413565b8015610cda5780601f10610caf57610100808354040283529160200191610cda565b820191906000526020600020905b815481529060010190602001808311610cbd57829003601f168201915b50505050508152602001600182018054610cf390612413565b80601f0160208091040260200160405190810160405280929190818152602001828054610d1f90612413565b8015610d6c5780601f10610d4157610100808354040283529160200191610d6c565b820191906000526020600020905b815481529060010190602001808311610d4f57829003601f168201915b50505050508152602001600282018054610d8590612413565b80601f0160208091040260200160405190810160405280929190818152602001828054610db190612413565b8015610dfe5780601f10610dd357610100808354040283529160200191610dfe565b820191906000526020600020905b815481529060010190602001808311610de157829003601f168201915b50505050508152602001600382018054610e1790612413565b80601f0160208091040260200160405190810160405280929190818152602001828054610e4390612413565b8015610e905780601f10610e6557610100808354040283529160200191610e90565b820191906000526020600020905b815481529060010190602001808311610e7357829003601f168201915b505050505081525050815260200160048201805480602002602001604051908101604052809291908181526020016000905b8282101561114657838290600052602060002090600502016040518060a0016040529081600082018054610ef590612413565b80601f0160208091040260200160405190810160405280929190818152602001828054610f2190612413565b8015610f6e5780601f10610f4357610100808354040283529160200191610f6e565b820191906000526020600020905b815481529060010190602001808311610f5157829003601f168201915b50505050508152602001600182018054610f8790612413565b80601f0160208091040260200160405190810160405280929190818152602001828054610fb390612413565b80156110005780601f10610fd557610100808354040283529160200191611000565b820191906000526020600020905b815481529060010190602001808311610fe357829003601f168201915b505050505081526020016002820154815260200160038201805461102390612413565b80601f016020809104026020016040519081016040528092919081815260200182805461104f90612413565b801561109c5780601f106110715761010080835404028352916020019161109c565b820191906000526020600020905b81548152906001019060200180831161107f57829003601f168201915b505050505081526020016004820180546110b590612413565b80601f01602080910402602001604051908101604052809291908181526020018280546110e190612413565b801561112e5780601f106111035761010080835404028352916020019161112e565b820191906000526020600020905b81548152906001019060200180831161111157829003601f168201915b50505050508152505081526020019060010190610ec2565b5050505081526020016005820160405180602001604052908160008201805480602002602001604051908101604052809291908181526020016000905b828210156112ed57838290600052602060002090600402016040518060800160405290816000820180546111b690612413565b80601f01602080910402602001604051908101604052809291908181526020018280546111e290612413565b801561122f5780601f106112045761010080835404028352916020019161122f565b820191906000526020600020905b81548152906001019060200180831161121257829003601f168201915b50505050508152602001600182015481526020016002820154815260200160038201805461125c90612413565b80601f016020809104026020016040519081016040528092919081815260200182805461128890612413565b80156112d55780601f106112aa576101008083540402835291602001916112d5565b820191906000526020600020905b8154815290600101906020018083116112b857829003601f168201915b50505050508152505081526020019060010190611183565b50505050815250508152505090506000816020015190506000826040015160000151905060006207a1208360008151811061132b5761132a6126c2565b5b602002602001015160400151106113505760fa816113499190612720565b90506113c8565b6203d09083600081518110611368576113676126c2565b5b6020026020010151604001511061138d576064816113869190612720565b90506113c7565b620186a0836000815181106113a5576113a46126c2565b5b602002602001015160400151106113c6576032816113c39190612720565b90505b5b5b60008060005b8451811015611603578481815181106113ea576113e96126c2565b5b602002602001015160200151826114019190612720565b91506040518060400160405280600781526020017f6f6e5f74696d650000000000000000000000000000000000000000000000000081525080519060200120858281518110611453576114526126c2565b5b60200260200101516060015180519060200120036114a85784818151811061147e5761147d6126c2565b5b60200260200101516020015160036114969190612754565b836114a19190612720565b92506115f0565b6040518060400160405280600c81526020017f73656d695f64656c617965640000000000000000000000000000000000000000815250805190602001208582815181106114f8576114f76126c2565b5b602002602001015160600151805190602001200361154d57848181518110611523576115226126c2565b5b602002602001015160200151600261153b9190612754565b836115469190612720565b92506115ef565b6040518060400160405280600781526020017f64656c61796564000000000000000000000000000000000000000000000000008152508051906020012085828151811061159d5761159c6126c2565b5b60200260200101516060015180519060200120036115ee578481815181106115c8576115c76126c2565b5b60200260200101516020015160016115e09190612754565b836115eb9190612720565b92505b5b5b80806115fb90612796565b9150506113ce565b506000808303611617576101f4905061164a565b838260036116259190612754565b610258856116339190612754565b61163d919061280d565b6116479190612720565b90505b80975050505050505050919050565b60008054906101000a900473ffffffffffffffffffffffffffffffffffffffff1673ffffffffffffffffffffffffffffffffffffffff163373ffffffffffffffffffffffffffffffffffffffff16146116e7576040517f08c379a00000000000000000000000000000000000000000000000000000000081526004016116de906128b0565b60405180910390fd5b6001819080600181540180825580915050600190039060005260206000200160009091909190916101000a81548173ffffffffffffffffffffffffffffffffffffffff021916908373ffffffffffffffffffffffffffffffffffffffff16021790555050565b600080600090505b6001805490508110156117f0573373ffffffffffffffffffffffffffffffffffffffff166001828154811061178d5761178c6126c2565b5b9060005260206000200160009054906101000a900473ffffffffffffffffffffffffffffffffffffffff1673ffffffffffffffffffffffffffffffffffffffff16036117dd5760019150506117f6565b80806117e890612796565b915050611755565b50600090505b90565b6040518060800160405280606081526020016060815260200160608152602001606081525090565b6040518060200160405280606081525090565b6000604051905090565b600080fd5b600080fd5b6000819050919050565b61185b81611848565b811461186657600080fd5b50565b60008135905061187881611852565b92915050565b6000602082840312156118945761189361183e565b5b60006118a284828501611869565b91505092915050565b600073ffffffffffffffffffffffffffffffffffffffff82169050919050565b60006118d6826118ab565b9050919050565b6118e6816118cb565b82525050565b600060208201905061190160008301846118dd565b92915050565b600080fd5b600080fd5b6000601f19601f8301169050919050565b7f4e487b7100000000000000000000000000000000000000000000000000000000600052604160045260246000fd5b61195a82611911565b810181811067ffffffffffffffff8211171561197957611978611922565b5b80604052505050565b600061198c611834565b90506119988282611951565b919050565b600067ffffffffffffffff8211156119b8576119b7611922565b5b6119c182611911565b9050602081019050919050565b82818337600083830152505050565b60006119f06119eb8461199d565b611982565b905082815260208101848484011115611a0c57611a0b61190c565b5b611a178482856119ce565b509392505050565b600082601f830112611a3457611a33611907565b5b8135611a448482602086016119dd565b91505092915050565b600080fd5b600080fd5b600060808284031215611a6d57611a6c611a4d565b5b611a776080611982565b9050600082013567ffffffffffffffff811115611a9757611a96611a52565b5b611aa384828501611a1f565b6000830152506020611ab784828501611869565b6020830152506040611acb84828501611869565b604083015250606082013567ffffffffffffffff811115611aef57611aee611a52565b5b611afb84828501611a1f565b60608301525092915050565b60008060408385031215611b1e57611b1d61183e565b5b600083013567ffffffffffffffff811115611b3c57611b3b611843565b5b611b4885828601611a1f565b925050602083013567ffffffffffffffff811115611b6957611b68611843565b5b611b7585828601611a57565b9150509250929050565b600060208284031215611b9557611b9461183e565b5b600082013567ffffffffffffffff811115611bb357611bb2611843565b5b611bbf84828501611a1f565b91505092915050565b600081519050919050565b600082825260208201905092915050565b60005b83811015611c02578082015181840152602081019050611be7565b60008484015250505050565b6000611c1982611bc8565b611c238185611bd3565b9350611c33818560208601611be4565b611c3c81611911565b840191505092915050565b60006080830160008301518482036000860152611c648282611c0e565b91505060208301518482036020860152611c7e8282611c0e565b91505060408301518482036040860152611c988282611c0e565b91505060608301518482036060860152611cb28282611c0e565b9150508091505092915050565b600081519050919050565b600082825260208201905092915050565b6000819050602082019050919050565b611cf481611848565b82525050565b600060a0830160008301518482036000860152611d178282611c0e565b91505060208301518482036020860152611d318282611c0e565b9150506040830151611d466040860182611ceb565b5060608301518482036060860152611d5e8282611c0e565b91505060808301518482036080860152611d788282611c0e565b9150508091505092915050565b6000611d918383611cfa565b905092915050565b6000602082019050919050565b6000611db182611cbf565b611dbb8185611cca565b935083602082028501611dcd85611cdb565b8060005b85811015611e095784840389528151611dea8582611d85565b9450611df583611d99565b925060208a01995050600181019050611dd1565b50829750879550505050505092915050565b600081519050919050565b600082825260208201905092915050565b6000819050602082019050919050565b60006080830160008301518482036000860152611e648282611c0e565b9150506020830151611e796020860182611ceb565b506040830151611e8c6040860182611ceb565b5060608301518482036060860152611ea48282611c0e565b9150508091505092915050565b6000611ebd8383611e47565b905092915050565b6000602082019050919050565b6000611edd82611e1b565b611ee78185611e26565b935083602082028501611ef985611e37565b8060005b85811015611f355784840389528151611f168582611eb1565b9450611f2183611ec5565b925060208a01995050600181019050611efd565b50829750879550505050505092915050565b60006020830160008301518482036000860152611f648282611ed2565b9150508091505092915050565b60006060820190508181036000830152611f8b8186611c47565b90508181036020830152611f9f8185611da6565b90508181036040830152611fb38184611f47565b9050949350505050565b600060a08284031215611fd357611fd2611a4d565b5b611fdd60a0611982565b9050600082013567ffffffffffffffff811115611ffd57611ffc611a52565b5b61200984828501611a1f565b600083015250602082013567ffffffffffffffff81111561202d5761202c611a52565b5b61203984828501611a1f565b602083015250604061204d84828501611869565b604083015250606082013567ffffffffffffffff81111561207157612070611a52565b5b61207d84828501611a1f565b606083015250608082013567ffffffffffffffff8111156120a1576120a0611a52565b5b6120ad84828501611a1f565b60808301525092915050565b600080604083850312156120d0576120cf61183e565b5b600083013567ffffffffffffffff8111156120ee576120ed611843565b5b6120fa85828601611a1f565b925050602083013567ffffffffffffffff81111561211b5761211a611843565b5b61212785828601611fbd565b9150509250929050565b60006080828403121561214757612146611a4d565b5b6121516080611982565b9050600082013567ffffffffffffffff81111561217157612170611a52565b5b61217d84828501611a1f565b600083015250602082013567ffffffffffffffff8111156121a1576121a0611a52565b5b6121ad84828501611a1f565b602083015250604082013567ffffffffffffffff8111156121d1576121d0611a52565b5b6121dd84828501611a1f565b604083015250606082013567ffffffffffffffff81111561220157612200611a52565b5b61220d84828501611a1f565b60608301525092915050565b600080604083850312156122305761222f61183e565b5b600083013567ffffffffffffffff81111561224e5761224d611843565b5b61225a85828601611a1f565b925050602083013567ffffffffffffffff81111561227b5761227a611843565b5b61228785828601612131565b9150509250929050565b61229a81611848565b82525050565b60006020820190506122b56000830184612291565b92915050565b6122c4816118cb565b81146122cf57600080fd5b50565b6000813590506122e1816122bb565b92915050565b6000602082840312156122fd576122fc61183e565b5b600061230b848285016122d2565b91505092915050565b600082825260208201905092915050565b7f43616c6c6572206973206e6f7420616e206175686f72697a6564000000000000600082015250565b600061235b601a83612314565b915061236682612325565b602082019050919050565b6000602082019050818103600083015261238a8161234e565b9050919050565b600081905092915050565b60006123a782611bc8565b6123b18185612391565b93506123c1818560208601611be4565b80840191505092915050565b60006123d9828461239c565b915081905092915050565b7f4e487b7100000000000000000000000000000000000000000000000000000000600052602260045260246000fd5b6000600282049050600182168061242b57607f821691505b60208210810361243e5761243d6123e4565b5b50919050565b60008190508160005260206000209050919050565b60006020601f8301049050919050565b600082821b905092915050565b6000600883026124a67fffffffffffffffffffffffffffffffffffffffffffffffffffffffffffffffff82612469565b6124b08683612469565b95508019841693508086168417925050509392505050565b6000819050919050565b60006124ed6124e86124e384611848565b6124c8565b611848565b9050919050565b6000819050919050565b612507836124d2565b61251b612513826124f4565b848454612476565b825550505050565b600090565b612530612523565b61253b8184846124fe565b505050565b5b8181101561255f57612554600082612528565b600181019050612541565b5050565b601f8211156125a45761257581612444565b61257e84612459565b8101602085101561258d578190505b6125a161259985612459565b830182612540565b50505b505050565b600082821c905092915050565b60006125c7600019846008026125a9565b1980831691505092915050565b60006125e083836125b6565b9150826002028217905092915050565b6125f982611bc8565b67ffffffffffffffff81111561261257612611611922565b5b61261c8254612413565b612627828285612563565b600060209050601f83116001811461265a5760008415612648578287015190505b61265285826125d4565b8655506126ba565b601f19841661266886612444565b60005b828110156126905784890151825560018201915060208501945060208101905061266b565b868310156126ad57848901516126a9601f8916826125b6565b8355505b6001600288020188555050505b505050505050565b7f4e487b7100000000000000000000000000000000000000000000000000000000600052603260045260246000fd5b7f4e487b7100000000000000000000000000000000000000000000000000000000600052601160045260246000fd5b600061272b82611848565b915061273683611848565b925082820190508082111561274e5761274d6126f1565b5b92915050565b600061275f82611848565b915061276a83611848565b925082820261277881611848565b9150828204841483151761278f5761278e6126f1565b5b5092915050565b60006127a182611848565b91507fffffffffffffffffffffffffffffffffffffffffffffffffffffffffffffffff82036127d3576127d26126f1565b5b600182019050919050565b7f4e487b7100000000000000000000000000000000000000000000000000000000600052601260045260246000fd5b600061281882611848565b915061282383611848565b925082612833576128326127de565b5b828204905092915050565b7f4f6e6c792074686520636f6e7472616374206f776e65722063616e206163636560008201527f737320746869732066756e6374696f6e2e000000000000000000000000000000602082015250565b600061289a603183612314565b91506128a58261283e565b604082019050919050565b600060208201905081810360008301526128c98161288d565b905091905056fea2646970667358221220eb5b597366f5ddbbfb891fa718278c754a05b43997ac9ec587adf993e1369ee164736f6c63430008110033",
  "linkReferences": {},
  "deployedLinkReferences": {}
}