{"contracts/ThreeBank.sol":{"ThreeBank":{"abi":[{"inputs":[{"internalType":"string","name":"","type":"string"}],"name":"balance","outputs":[{"internalType":"uint256","name":"","type":"uint256"}],"stateMutability":"view","type":"function"},{"inputs":[{"internalType":"string","name":"panNumber","type":"string"}],"name":"deposit","outputs":[],"stateMutability":"payable","type":"function"},{"inputs":[{"components":[{"internalType":"string","name":"name","type":"string"},{"internalType":"string","name":"dateOfBirth","type":"string"},{"internalType":"string","name":"gender","type":"string"},{"internalType":"string","name":"panNumber","type":"string"}],"internalType":"struct ThreeBank.PersonalInformation","name":"personalInformation","type":"tuple"},{"internalType":"string","name":"panNumber","type":"string"}],"name":"enroll","outputs":[],"stateMutability":"nonpayable","type":"function"},{"inputs":[{"internalType":"string","name":"","type":"string"}],"name":"enrolled","outputs":[{"internalType":"bool","name":"","type":"bool"}],"stateMutability":"view","type":"function"},{"inputs":[{"internalType":"string","name":"","type":"string"}],"name":"loans","outputs":[{"internalType":"string","name":"loanType","type":"string"},{"internalType":"uint256","name":"loanAmount","type":"uint256"},{"internalType":"uint256","name":"loanTenure","type":"uint256"},{"internalType":"string","name":"repaymentStatus","type":"string"}],"stateMutability":"view","type":"function"},{"inputs":[{"internalType":"string","name":"panNumber","type":"string"},{"internalType":"uint256","name":"amount","type":"uint256"}],"name":"makeLoanPayment","outputs":[],"stateMutability":"nonpayable","type":"function"},{"inputs":[{"internalType":"string","name":"panNumber","type":"string"},{"components":[{"internalType":"string","name":"loanType","type":"string"},{"internalType":"uint256","name":"loanAmount","type":"uint256"},{"internalType":"uint256","name":"loanTenure","type":"uint256"},{"internalType":"string","name":"repaymentStatus","type":"string"}],"internalType":"struct Loan","name":"loanDeets","type":"tuple"}],"name":"requestLoan","outputs":[{"internalType":"bool","name":"","type":"bool"}],"stateMutability":"nonpayable","type":"function"},{"inputs":[{"internalType":"uint256","name":"amount","type":"uint256"},{"internalType":"string","name":"panNumber","type":"string"}],"name":"withdraw","outputs":[],"stateMutability":"nonpayable","type":"function"}],"evm":{"bytecode":{"linkReferences":{},"object":"6080604052600060045534801561001557600080fd5b506117f0806100256000396000f3fe60806040526004361061007b5760003560e01c8063a26e11861161004e578063a26e118614610160578063a3f600001461017c578063c6141f63146101a5578063dc048cf2146101e55761007b565b8063082aa974146100805780631473f83c146100bd5780633d80b532146100e657806396acc78e14610123575b600080fd5b34801561008c57600080fd5b506100a760048036038101906100a29190610cf3565b61020e565b6040516100b49190610d86565b60405180910390f35b3480156100c957600080fd5b506100e460048036038101906100df9190610da1565b6103cf565b005b3480156100f257600080fd5b5061010d60048036038101906101089190610dfd565b61062e565b60405161011a9190610e55565b60405180910390f35b34801561012f57600080fd5b5061014a60048036038101906101459190610dfd565b61065c565b6040516101579190610d86565b60405180910390f35b61017a60048036038101906101759190610dfd565b610692565b005b34801561018857600080fd5b506101a3600480360381019061019e9190610f58565b610750565b005b3480156101b157600080fd5b506101cc60048036038101906101c79190610dfd565b610805565b6040516101dc949392919061104f565b60405180910390f35b3480156101f157600080fd5b5061020c600480360381019061020791906110a2565b61095b565b005b600082600281604051610221919061113a565b908152602001604051809103902060009054906101000a900460ff1661027c576040517f08c379a00000000000000000000000000000000000000000000000000000000081526004016102739061119d565b60405180910390fd5b600454836020015111156102c5576040517f08c379a00000000000000000000000000000000000000000000000000000000081526004016102bc90611209565b60405180910390fd5b60006003856040516102d7919061113a565b90815260200160405180910390206001015414610329576040517f08c379a000000000000000000000000000000000000000000000000000000000815260040161032090611275565b60405180910390fd5b826020015160018560405161033e919061113a565b9081526020016040518091039020600082825461035b91906112c4565b9250508190555082600385604051610373919061113a565b908152602001604051809103902060008201518160000190816103969190611504565b50602082015181600101556040820151816002015560608201518160030190816103c09190611504565b50905050600191505092915050565b816002816040516103e0919061113a565b908152602001604051809103902060009054906101000a900460ff1661043b576040517f08c379a00000000000000000000000000000000000000000000000000000000081526004016104329061119d565b60405180910390fd5b600060038460405161044d919061113a565b9081526020016040518091039020600101541161049f576040517f08c379a000000000000000000000000000000000000000000000000000000000815260040161049690611622565b60405180910390fd5b816001846040516104b0919061113a565b9081526020016040518091039020541015610500576040517f08c379a00000000000000000000000000000000000000000000000000000000081526004016104f79061168e565b60405180910390fd5b60008211610543576040517f08c379a000000000000000000000000000000000000000000000000000000000815260040161053a906116fa565b60405180910390fd5b600383604051610553919061113a565b90815260200160405180910390206001015482106105bb5760038360405161057b919061113a565b908152602001604051809103902060010154915060006003846040516105a1919061113a565b9081526020016040518091039020600101819055506105f4565b816003846040516105cc919061113a565b908152602001604051809103902060010160008282546105ec919061171a565b925050819055505b81600184604051610605919061113a565b90815260200160405180910390206000828254610622919061171a565b92505081905550505050565b6001818051602081018201805184825260208301602085012081835280955050505050506000915090505481565b6002818051602081018201805184825260208301602085012081835280955050505050506000915054906101000a900460ff1681565b806002816040516106a3919061113a565b908152602001604051809103902060009054906101000a900460ff166106fe576040517f08c379a00000000000000000000000000000000000000000000000000000000081526004016106f59061119d565b60405180910390fd5b3460018360405161070f919061113a565b9081526020016040518091039020600082825461072c91906112c4565b92505081905550346004600082825461074591906112c4565b925050819055505050565b6001600282604051610762919061113a565b908152602001604051809103902060006101000a81548160ff02191690831515021790555081600082604051610798919061113a565b908152602001604051809103902060008201518160000190816107bb9190611504565b5060208201518160010190816107d19190611504565b5060408201518160020190816107e79190611504565b5060608201518160030190816107fd9190611504565b509050505050565b60038180516020810182018051848252602083016020850120818352809550505050505060009150905080600001805461083e90611327565b80601f016020809104026020016040519081016040528092919081815260200182805461086a90611327565b80156108b75780601f1061088c576101008083540402835291602001916108b7565b820191906000526020600020905b81548152906001019060200180831161089a57829003601f168201915b5050505050908060010154908060020154908060030180546108d890611327565b80601f016020809104026020016040519081016040528092919081815260200182805461090490611327565b80156109515780601f1061092657610100808354040283529160200191610951565b820191906000526020600020905b81548152906001019060200180831161093457829003601f168201915b5050505050905084565b8060028160405161096c919061113a565b908152602001604051809103902060009054906101000a900460ff166109c7576040517f08c379a00000000000000000000000000000000000000000000000000000000081526004016109be9061119d565b60405180910390fd5b826001836040516109d8919061113a565b9081526020016040518091039020541015610a28576040517f08c379a0000000000000000000000000000000000000000000000000000000008152600401610a1f9061179a565b60405180910390fd5b82600183604051610a39919061113a565b90815260200160405180910390206000828254610a56919061171a565b925050819055503373ffffffffffffffffffffffffffffffffffffffff166108fc849081150290604051600060405180830381858888f19350505050158015610aa3573d6000803e3d6000fd5b50505050565b6000604051905090565b600080fd5b600080fd5b600080fd5b600080fd5b6000601f19601f8301169050919050565b7f4e487b7100000000000000000000000000000000000000000000000000000000600052604160045260246000fd5b610b1082610ac7565b810181811067ffffffffffffffff82111715610b2f57610b2e610ad8565b5b80604052505050565b6000610b42610aa9565b9050610b4e8282610b07565b919050565b600067ffffffffffffffff821115610b6e57610b6d610ad8565b5b610b7782610ac7565b9050602081019050919050565b82818337600083830152505050565b6000610ba6610ba184610b53565b610b38565b905082815260208101848484011115610bc257610bc1610ac2565b5b610bcd848285610b84565b509392505050565b600082601f830112610bea57610be9610abd565b5b8135610bfa848260208601610b93565b91505092915050565b600080fd5b600080fd5b6000819050919050565b610c2081610c0d565b8114610c2b57600080fd5b50565b600081359050610c3d81610c17565b92915050565b600060808284031215610c5957610c58610c03565b5b610c636080610b38565b9050600082013567ffffffffffffffff811115610c8357610c82610c08565b5b610c8f84828501610bd5565b6000830152506020610ca384828501610c2e565b6020830152506040610cb784828501610c2e565b604083015250606082013567ffffffffffffffff811115610cdb57610cda610c08565b5b610ce784828501610bd5565b60608301525092915050565b60008060408385031215610d0a57610d09610ab3565b5b600083013567ffffffffffffffff811115610d2857610d27610ab8565b5b610d3485828601610bd5565b925050602083013567ffffffffffffffff811115610d5557610d54610ab8565b5b610d6185828601610c43565b9150509250929050565b60008115159050919050565b610d8081610d6b565b82525050565b6000602082019050610d9b6000830184610d77565b92915050565b60008060408385031215610db857610db7610ab3565b5b600083013567ffffffffffffffff811115610dd657610dd5610ab8565b5b610de285828601610bd5565b9250506020610df385828601610c2e565b9150509250929050565b600060208284031215610e1357610e12610ab3565b5b600082013567ffffffffffffffff811115610e3157610e30610ab8565b5b610e3d84828501610bd5565b91505092915050565b610e4f81610c0d565b82525050565b6000602082019050610e6a6000830184610e46565b92915050565b600060808284031215610e8657610e85610c03565b5b610e906080610b38565b9050600082013567ffffffffffffffff811115610eb057610eaf610c08565b5b610ebc84828501610bd5565b600083015250602082013567ffffffffffffffff811115610ee057610edf610c08565b5b610eec84828501610bd5565b602083015250604082013567ffffffffffffffff811115610f1057610f0f610c08565b5b610f1c84828501610bd5565b604083015250606082013567ffffffffffffffff811115610f4057610f3f610c08565b5b610f4c84828501610bd5565b60608301525092915050565b60008060408385031215610f6f57610f6e610ab3565b5b600083013567ffffffffffffffff811115610f8d57610f8c610ab8565b5b610f9985828601610e70565b925050602083013567ffffffffffffffff811115610fba57610fb9610ab8565b5b610fc685828601610bd5565b9150509250929050565b600081519050919050565b600082825260208201905092915050565b60005b8381101561100a578082015181840152602081019050610fef565b60008484015250505050565b600061102182610fd0565b61102b8185610fdb565b935061103b818560208601610fec565b61104481610ac7565b840191505092915050565b600060808201905081810360008301526110698187611016565b90506110786020830186610e46565b6110856040830185610e46565b81810360608301526110978184611016565b905095945050505050565b600080604083850312156110b9576110b8610ab3565b5b60006110c785828601610c2e565b925050602083013567ffffffffffffffff8111156110e8576110e7610ab8565b5b6110f485828601610bd5565b9150509250929050565b600081905092915050565b600061111482610fd0565b61111e81856110fe565b935061112e818560208601610fec565b80840191505092915050565b60006111468284611109565b915081905092915050565b7f55736572206e6f7420656e726f6c6c6564000000000000000000000000000000600082015250565b6000611187601183610fdb565b915061119282611151565b602082019050919050565b600060208201905081810360008301526111b68161117a565b9050919050565b7f4e6f7420656e6f7567682066756e647320696e2062616e6b0000000000000000600082015250565b60006111f3601883610fdb565b91506111fe826111bd565b602082019050919050565b60006020820190508181036000830152611222816111e6565b9050919050565b7f596f7520616c726561647920686176652061206c6f616e206163746976650000600082015250565b600061125f601e83610fdb565b915061126a82611229565b602082019050919050565b6000602082019050818103600083015261128e81611252565b9050919050565b7f4e487b7100000000000000000000000000000000000000000000000000000000600052601160045260246000fd5b60006112cf82610c0d565b91506112da83610c0d565b92508282019050808211156112f2576112f1611295565b5b92915050565b7f4e487b7100000000000000000000000000000000000000000000000000000000600052602260045260246000fd5b6000600282049050600182168061133f57607f821691505b602082108103611352576113516112f8565b5b50919050565b60008190508160005260206000209050919050565b60006020601f8301049050919050565b600082821b905092915050565b6000600883026113ba7fffffffffffffffffffffffffffffffffffffffffffffffffffffffffffffffff8261137d565b6113c4868361137d565b95508019841693508086168417925050509392505050565b6000819050919050565b60006114016113fc6113f784610c0d565b6113dc565b610c0d565b9050919050565b6000819050919050565b61141b836113e6565b61142f61142782611408565b84845461138a565b825550505050565b600090565b611444611437565b61144f818484611412565b505050565b5b818110156114735761146860008261143c565b600181019050611455565b5050565b601f8211156114b85761148981611358565b6114928461136d565b810160208510156114a1578190505b6114b56114ad8561136d565b830182611454565b50505b505050565b600082821c905092915050565b60006114db600019846008026114bd565b1980831691505092915050565b60006114f483836114ca565b9150826002028217905092915050565b61150d82610fd0565b67ffffffffffffffff81111561152657611525610ad8565b5b6115308254611327565b61153b828285611477565b600060209050601f83116001811461156e576000841561155c578287015190505b61156685826114e8565b8655506115ce565b601f19841661157c86611358565b60005b828110156115a45784890151825560018201915060208501945060208101905061157f565b868310156115c157848901516115bd601f8916826114ca565b8355505b6001600288020188555050505b505050505050565b7f596f7520646f6e7420686176652061206c6f616e000000000000000000000000600082015250565b600061160c601483610fdb565b9150611617826115d6565b602082019050919050565b6000602082019050818103600083015261163b816115ff565b9050919050565b7f596f7520646f6e7420686176652074686174206d756368206d6f6e6579000000600082015250565b6000611678601d83610fdb565b915061168382611642565b602082019050919050565b600060208201905081810360008301526116a78161166b565b9050919050565b7f5061796d656e742073686f756c6420626520706f736974697665000000000000600082015250565b60006116e4601a83610fdb565b91506116ef826116ae565b602082019050919050565b60006020820190508181036000830152611713816116d7565b9050919050565b600061172582610c0d565b915061173083610c0d565b925082820390508181111561174857611747611295565b5b92915050565b7f496e73756666696369656e742042616c616e6365000000000000000000000000600082015250565b6000611784601483610fdb565b915061178f8261174e565b602082019050919050565b600060208201905081810360008301526117b381611777565b905091905056fea26469706673582212202a358053251224f6156cdc433fa6afc7340e8f93521a903cf0633e1e7419921f64736f6c63430008110033","opcodes":"PUSH1 0x80 PUSH1 0x40 MSTORE PUSH1 0x0 PUSH1 0x4 SSTORE CALLVALUE DUP1 ISZERO PUSH2 0x15 JUMPI PUSH1 0x0 DUP1 REVERT JUMPDEST POP PUSH2 0x17F0 DUP1 PUSH2 0x25 PUSH1 0x0 CODECOPY PUSH1 0x0 RETURN INVALID PUSH1 0x80 PUSH1 0x40 MSTORE PUSH1 0x4 CALLDATASIZE LT PUSH2 0x7B JUMPI PUSH1 0x0 CALLDATALOAD PUSH1 0xE0 SHR DUP1 PUSH4 0xA26E1186 GT PUSH2 0x4E JUMPI DUP1 PUSH4 0xA26E1186 EQ PUSH2 0x160 JUMPI DUP1 PUSH4 0xA3F60000 EQ PUSH2 0x17C JUMPI DUP1 PUSH4 0xC6141F63 EQ PUSH2 0x1A5 JUMPI DUP1 PUSH4 0xDC048CF2 EQ PUSH2 0x1E5 JUMPI PUSH2 0x7B JUMP JUMPDEST DUP1 PUSH4 0x82AA974 EQ PUSH2 0x80 JUMPI DUP1 PUSH4 0x1473F83C EQ PUSH2 0xBD JUMPI DUP1 PUSH4 0x3D80B532 EQ PUSH2 0xE6 JUMPI DUP1 PUSH4 0x96ACC78E EQ PUSH2 0x123 JUMPI JUMPDEST PUSH1 0x0 DUP1 REVERT JUMPDEST CALLVALUE DUP1 ISZERO PUSH2 0x8C JUMPI PUSH1 0x0 DUP1 REVERT JUMPDEST POP PUSH2 0xA7 PUSH1 0x4 DUP1 CALLDATASIZE SUB DUP2 ADD SWAP1 PUSH2 0xA2 SWAP2 SWAP1 PUSH2 0xCF3 JUMP JUMPDEST PUSH2 0x20E JUMP JUMPDEST PUSH1 0x40 MLOAD PUSH2 0xB4 SWAP2 SWAP1 PUSH2 0xD86 JUMP JUMPDEST PUSH1 0x40 MLOAD DUP1 SWAP2 SUB SWAP1 RETURN JUMPDEST CALLVALUE DUP1 ISZERO PUSH2 0xC9 JUMPI PUSH1 0x0 DUP1 REVERT JUMPDEST POP PUSH2 0xE4 PUSH1 0x4 DUP1 CALLDATASIZE SUB DUP2 ADD SWAP1 PUSH2 0xDF SWAP2 SWAP1 PUSH2 0xDA1 JUMP JUMPDEST PUSH2 0x3CF JUMP JUMPDEST STOP JUMPDEST CALLVALUE DUP1 ISZERO PUSH2 0xF2 JUMPI PUSH1 0x0 DUP1 REVERT JUMPDEST POP PUSH2 0x10D PUSH1 0x4 DUP1 CALLDATASIZE SUB DUP2 ADD SWAP1 PUSH2 0x108 SWAP2 SWAP1 PUSH2 0xDFD JUMP JUMPDEST PUSH2 0x62E JUMP JUMPDEST PUSH1 0x40 MLOAD PUSH2 0x11A SWAP2 SWAP1 PUSH2 0xE55 JUMP JUMPDEST PUSH1 0x40 MLOAD DUP1 SWAP2 SUB SWAP1 RETURN JUMPDEST CALLVALUE DUP1 ISZERO PUSH2 0x12F JUMPI PUSH1 0x0 DUP1 REVERT JUMPDEST POP PUSH2 0x14A PUSH1 0x4 DUP1 CALLDATASIZE SUB DUP2 ADD SWAP1 PUSH2 0x145 SWAP2 SWAP1 PUSH2 0xDFD JUMP JUMPDEST PUSH2 0x65C JUMP JUMPDEST PUSH1 0x40 MLOAD PUSH2 0x157 SWAP2 SWAP1 PUSH2 0xD86 JUMP JUMPDEST PUSH1 0x40 MLOAD DUP1 SWAP2 SUB SWAP1 RETURN JUMPDEST PUSH2 0x17A PUSH1 0x4 DUP1 CALLDATASIZE SUB DUP2 ADD SWAP1 PUSH2 0x175 SWAP2 SWAP1 PUSH2 0xDFD JUMP JUMPDEST PUSH2 0x692 JUMP JUMPDEST STOP JUMPDEST CALLVALUE DUP1 ISZERO PUSH2 0x188 JUMPI PUSH1 0x0 DUP1 REVERT JUMPDEST POP PUSH2 0x1A3 PUSH1 0x4 DUP1 CALLDATASIZE SUB DUP2 ADD SWAP1 PUSH2 0x19E SWAP2 SWAP1 PUSH2 0xF58 JUMP JUMPDEST PUSH2 0x750 JUMP JUMPDEST STOP JUMPDEST CALLVALUE DUP1 ISZERO PUSH2 0x1B1 JUMPI PUSH1 0x0 DUP1 REVERT JUMPDEST POP PUSH2 0x1CC PUSH1 0x4 DUP1 CALLDATASIZE SUB DUP2 ADD SWAP1 PUSH2 0x1C7 SWAP2 SWAP1 PUSH2 0xDFD JUMP JUMPDEST PUSH2 0x805 JUMP JUMPDEST PUSH1 0x40 MLOAD PUSH2 0x1DC SWAP5 SWAP4 SWAP3 SWAP2 SWAP1 PUSH2 0x104F JUMP JUMPDEST PUSH1 0x40 MLOAD DUP1 SWAP2 SUB SWAP1 RETURN JUMPDEST CALLVALUE DUP1 ISZERO PUSH2 0x1F1 JUMPI PUSH1 0x0 DUP1 REVERT JUMPDEST POP PUSH2 0x20C PUSH1 0x4 DUP1 CALLDATASIZE SUB DUP2 ADD SWAP1 PUSH2 0x207 SWAP2 SWAP1 PUSH2 0x10A2 JUMP JUMPDEST PUSH2 0x95B JUMP JUMPDEST STOP JUMPDEST PUSH1 0x0 DUP3 PUSH1 0x2 DUP2 PUSH1 0x40 MLOAD PUSH2 0x221 SWAP2 SWAP1 PUSH2 0x113A JUMP JUMPDEST SWAP1 DUP2 MSTORE PUSH1 0x20 ADD PUSH1 0x40 MLOAD DUP1 SWAP2 SUB SWAP1 KECCAK256 PUSH1 0x0 SWAP1 SLOAD SWAP1 PUSH2 0x100 EXP SWAP1 DIV PUSH1 0xFF AND PUSH2 0x27C JUMPI PUSH1 0x40 MLOAD PUSH32 0x8C379A000000000000000000000000000000000000000000000000000000000 DUP2 MSTORE PUSH1 0x4 ADD PUSH2 0x273 SWAP1 PUSH2 0x119D JUMP JUMPDEST PUSH1 0x40 MLOAD DUP1 SWAP2 SUB SWAP1 REVERT JUMPDEST PUSH1 0x4 SLOAD DUP4 PUSH1 0x20 ADD MLOAD GT ISZERO PUSH2 0x2C5 JUMPI PUSH1 0x40 MLOAD PUSH32 0x8C379A000000000000000000000000000000000000000000000000000000000 DUP2 MSTORE PUSH1 0x4 ADD PUSH2 0x2BC SWAP1 PUSH2 0x1209 JUMP JUMPDEST PUSH1 0x40 MLOAD DUP1 SWAP2 SUB SWAP1 REVERT JUMPDEST PUSH1 0x0 PUSH1 0x3 DUP6 PUSH1 0x40 MLOAD PUSH2 0x2D7 SWAP2 SWAP1 PUSH2 0x113A JUMP JUMPDEST SWAP1 DUP2 MSTORE PUSH1 0x20 ADD PUSH1 0x40 MLOAD DUP1 SWAP2 SUB SWAP1 KECCAK256 PUSH1 0x1 ADD SLOAD EQ PUSH2 0x329 JUMPI PUSH1 0x40 MLOAD PUSH32 0x8C379A000000000000000000000000000000000000000000000000000000000 DUP2 MSTORE PUSH1 0x4 ADD PUSH2 0x320 SWAP1 PUSH2 0x1275 JUMP JUMPDEST PUSH1 0x40 MLOAD DUP1 SWAP2 SUB SWAP1 REVERT JUMPDEST DUP3 PUSH1 0x20 ADD MLOAD PUSH1 0x1 DUP6 PUSH1 0x40 MLOAD PUSH2 0x33E SWAP2 SWAP1 PUSH2 0x113A JUMP JUMPDEST SWAP1 DUP2 MSTORE PUSH1 0x20 ADD PUSH1 0x40 MLOAD DUP1 SWAP2 SUB SWAP1 KECCAK256 PUSH1 0x0 DUP3 DUP3 SLOAD PUSH2 0x35B SWAP2 SWAP1 PUSH2 0x12C4 JUMP JUMPDEST SWAP3 POP POP DUP2 SWAP1 SSTORE POP DUP3 PUSH1 0x3 DUP6 PUSH1 0x40 MLOAD PUSH2 0x373 SWAP2 SWAP1 PUSH2 0x113A JUMP JUMPDEST SWAP1 DUP2 MSTORE PUSH1 0x20 ADD PUSH1 0x40 MLOAD DUP1 SWAP2 SUB SWAP1 KECCAK256 PUSH1 0x0 DUP3 ADD MLOAD DUP2 PUSH1 0x0 ADD SWAP1 DUP2 PUSH2 0x396 SWAP2 SWAP1 PUSH2 0x1504 JUMP JUMPDEST POP PUSH1 0x20 DUP3 ADD MLOAD DUP2 PUSH1 0x1 ADD SSTORE PUSH1 0x40 DUP3 ADD MLOAD DUP2 PUSH1 0x2 ADD SSTORE PUSH1 0x60 DUP3 ADD MLOAD DUP2 PUSH1 0x3 ADD SWAP1 DUP2 PUSH2 0x3C0 SWAP2 SWAP1 PUSH2 0x1504 JUMP JUMPDEST POP SWAP1 POP POP PUSH1 0x1 SWAP2 POP POP SWAP3 SWAP2 POP POP JUMP JUMPDEST DUP2 PUSH1 0x2 DUP2 PUSH1 0x40 MLOAD PUSH2 0x3E0 SWAP2 SWAP1 PUSH2 0x113A JUMP JUMPDEST SWAP1 DUP2 MSTORE PUSH1 0x20 ADD PUSH1 0x40 MLOAD DUP1 SWAP2 SUB SWAP1 KECCAK256 PUSH1 0x0 SWAP1 SLOAD SWAP1 PUSH2 0x100 EXP SWAP1 DIV PUSH1 0xFF AND PUSH2 0x43B JUMPI PUSH1 0x40 MLOAD PUSH32 0x8C379A000000000000000000000000000000000000000000000000000000000 DUP2 MSTORE PUSH1 0x4 ADD PUSH2 0x432 SWAP1 PUSH2 0x119D JUMP JUMPDEST PUSH1 0x40 MLOAD DUP1 SWAP2 SUB SWAP1 REVERT JUMPDEST PUSH1 0x0 PUSH1 0x3 DUP5 PUSH1 0x40 MLOAD PUSH2 0x44D SWAP2 SWAP1 PUSH2 0x113A JUMP JUMPDEST SWAP1 DUP2 MSTORE PUSH1 0x20 ADD PUSH1 0x40 MLOAD DUP1 SWAP2 SUB SWAP1 KECCAK256 PUSH1 0x1 ADD SLOAD GT PUSH2 0x49F JUMPI PUSH1 0x40 MLOAD PUSH32 0x8C379A000000000000000000000000000000000000000000000000000000000 DUP2 MSTORE PUSH1 0x4 ADD PUSH2 0x496 SWAP1 PUSH2 0x1622 JUMP JUMPDEST PUSH1 0x40 MLOAD DUP1 SWAP2 SUB SWAP1 REVERT JUMPDEST DUP2 PUSH1 0x1 DUP5 PUSH1 0x40 MLOAD PUSH2 0x4B0 SWAP2 SWAP1 PUSH2 0x113A JUMP JUMPDEST SWAP1 DUP2 MSTORE PUSH1 0x20 ADD PUSH1 0x40 MLOAD DUP1 SWAP2 SUB SWAP1 KECCAK256 SLOAD LT ISZERO PUSH2 0x500 JUMPI PUSH1 0x40 MLOAD PUSH32 0x8C379A000000000000000000000000000000000000000000000000000000000 DUP2 MSTORE PUSH1 0x4 ADD PUSH2 0x4F7 SWAP1 PUSH2 0x168E JUMP JUMPDEST PUSH1 0x40 MLOAD DUP1 SWAP2 SUB SWAP1 REVERT JUMPDEST PUSH1 0x0 DUP3 GT PUSH2 0x543 JUMPI PUSH1 0x40 MLOAD PUSH32 0x8C379A000000000000000000000000000000000000000000000000000000000 DUP2 MSTORE PUSH1 0x4 ADD PUSH2 0x53A SWAP1 PUSH2 0x16FA JUMP JUMPDEST PUSH1 0x40 MLOAD DUP1 SWAP2 SUB SWAP1 REVERT JUMPDEST PUSH1 0x3 DUP4 PUSH1 0x40 MLOAD PUSH2 0x553 SWAP2 SWAP1 PUSH2 0x113A JUMP JUMPDEST SWAP1 DUP2 MSTORE PUSH1 0x20 ADD PUSH1 0x40 MLOAD DUP1 SWAP2 SUB SWAP1 KECCAK256 PUSH1 0x1 ADD SLOAD DUP3 LT PUSH2 0x5BB JUMPI PUSH1 0x3 DUP4 PUSH1 0x40 MLOAD PUSH2 0x57B SWAP2 SWAP1 PUSH2 0x113A JUMP JUMPDEST SWAP1 DUP2 MSTORE PUSH1 0x20 ADD PUSH1 0x40 MLOAD DUP1 SWAP2 SUB SWAP1 KECCAK256 PUSH1 0x1 ADD SLOAD SWAP2 POP PUSH1 0x0 PUSH1 0x3 DUP5 PUSH1 0x40 MLOAD PUSH2 0x5A1 SWAP2 SWAP1 PUSH2 0x113A JUMP JUMPDEST SWAP1 DUP2 MSTORE PUSH1 0x20 ADD PUSH1 0x40 MLOAD DUP1 SWAP2 SUB SWAP1 KECCAK256 PUSH1 0x1 ADD DUP2 SWAP1 SSTORE POP PUSH2 0x5F4 JUMP JUMPDEST DUP2 PUSH1 0x3 DUP5 PUSH1 0x40 MLOAD PUSH2 0x5CC SWAP2 SWAP1 PUSH2 0x113A JUMP JUMPDEST SWAP1 DUP2 MSTORE PUSH1 0x20 ADD PUSH1 0x40 MLOAD DUP1 SWAP2 SUB SWAP1 KECCAK256 PUSH1 0x1 ADD PUSH1 0x0 DUP3 DUP3 SLOAD PUSH2 0x5EC SWAP2 SWAP1 PUSH2 0x171A JUMP JUMPDEST SWAP3 POP POP DUP2 SWAP1 SSTORE POP JUMPDEST DUP2 PUSH1 0x1 DUP5 PUSH1 0x40 MLOAD PUSH2 0x605 SWAP2 SWAP1 PUSH2 0x113A JUMP JUMPDEST SWAP1 DUP2 MSTORE PUSH1 0x20 ADD PUSH1 0x40 MLOAD DUP1 SWAP2 SUB SWAP1 KECCAK256 PUSH1 0x0 DUP3 DUP3 SLOAD PUSH2 0x622 SWAP2 SWAP1 PUSH2 0x171A JUMP JUMPDEST SWAP3 POP POP DUP2 SWAP1 SSTORE POP POP POP POP JUMP JUMPDEST PUSH1 0x1 DUP2 DUP1 MLOAD PUSH1 0x20 DUP2 ADD DUP3 ADD DUP1 MLOAD DUP5 DUP3 MSTORE PUSH1 0x20 DUP4 ADD PUSH1 0x20 DUP6 ADD KECCAK256 DUP2 DUP4 MSTORE DUP1 SWAP6 POP POP POP POP POP POP PUSH1 0x0 SWAP2 POP SWAP1 POP SLOAD DUP2 JUMP JUMPDEST PUSH1 0x2 DUP2 DUP1 MLOAD PUSH1 0x20 DUP2 ADD DUP3 ADD DUP1 MLOAD DUP5 DUP3 MSTORE PUSH1 0x20 DUP4 ADD PUSH1 0x20 DUP6 ADD KECCAK256 DUP2 DUP4 MSTORE DUP1 SWAP6 POP POP POP POP POP POP PUSH1 0x0 SWAP2 POP SLOAD SWAP1 PUSH2 0x100 EXP SWAP1 DIV PUSH1 0xFF AND DUP2 JUMP JUMPDEST DUP1 PUSH1 0x2 DUP2 PUSH1 0x40 MLOAD PUSH2 0x6A3 SWAP2 SWAP1 PUSH2 0x113A JUMP JUMPDEST SWAP1 DUP2 MSTORE PUSH1 0x20 ADD PUSH1 0x40 MLOAD DUP1 SWAP2 SUB SWAP1 KECCAK256 PUSH1 0x0 SWAP1 SLOAD SWAP1 PUSH2 0x100 EXP SWAP1 DIV PUSH1 0xFF AND PUSH2 0x6FE JUMPI PUSH1 0x40 MLOAD PUSH32 0x8C379A000000000000000000000000000000000000000000000000000000000 DUP2 MSTORE PUSH1 0x4 ADD PUSH2 0x6F5 SWAP1 PUSH2 0x119D JUMP JUMPDEST PUSH1 0x40 MLOAD DUP1 SWAP2 SUB SWAP1 REVERT JUMPDEST CALLVALUE PUSH1 0x1 DUP4 PUSH1 0x40 MLOAD PUSH2 0x70F SWAP2 SWAP1 PUSH2 0x113A JUMP JUMPDEST SWAP1 DUP2 MSTORE PUSH1 0x20 ADD PUSH1 0x40 MLOAD DUP1 SWAP2 SUB SWAP1 KECCAK256 PUSH1 0x0 DUP3 DUP3 SLOAD PUSH2 0x72C SWAP2 SWAP1 PUSH2 0x12C4 JUMP JUMPDEST SWAP3 POP POP DUP2 SWAP1 SSTORE POP CALLVALUE PUSH1 0x4 PUSH1 0x0 DUP3 DUP3 SLOAD PUSH2 0x745 SWAP2 SWAP1 PUSH2 0x12C4 JUMP JUMPDEST SWAP3 POP POP DUP2 SWAP1 SSTORE POP POP POP JUMP JUMPDEST PUSH1 0x1 PUSH1 0x2 DUP3 PUSH1 0x40 MLOAD PUSH2 0x762 SWAP2 SWAP1 PUSH2 0x113A JUMP JUMPDEST SWAP1 DUP2 MSTORE PUSH1 0x20 ADD PUSH1 0x40 MLOAD DUP1 SWAP2 SUB SWAP1 KECCAK256 PUSH1 0x0 PUSH2 0x100 EXP DUP2 SLOAD DUP2 PUSH1 0xFF MUL NOT AND SWAP1 DUP4 ISZERO ISZERO MUL OR SWAP1 SSTORE POP DUP2 PUSH1 0x0 DUP3 PUSH1 0x40 MLOAD PUSH2 0x798 SWAP2 SWAP1 PUSH2 0x113A JUMP JUMPDEST SWAP1 DUP2 MSTORE PUSH1 0x20 ADD PUSH1 0x40 MLOAD DUP1 SWAP2 SUB SWAP1 KECCAK256 PUSH1 0x0 DUP3 ADD MLOAD DUP2 PUSH1 0x0 ADD SWAP1 DUP2 PUSH2 0x7BB SWAP2 SWAP1 PUSH2 0x1504 JUMP JUMPDEST POP PUSH1 0x20 DUP3 ADD MLOAD DUP2 PUSH1 0x1 ADD SWAP1 DUP2 PUSH2 0x7D1 SWAP2 SWAP1 PUSH2 0x1504 JUMP JUMPDEST POP PUSH1 0x40 DUP3 ADD MLOAD DUP2 PUSH1 0x2 ADD SWAP1 DUP2 PUSH2 0x7E7 SWAP2 SWAP1 PUSH2 0x1504 JUMP JUMPDEST POP PUSH1 0x60 DUP3 ADD MLOAD DUP2 PUSH1 0x3 ADD SWAP1 DUP2 PUSH2 0x7FD SWAP2 SWAP1 PUSH2 0x1504 JUMP JUMPDEST POP SWAP1 POP POP POP POP JUMP JUMPDEST PUSH1 0x3 DUP2 DUP1 MLOAD PUSH1 0x20 DUP2 ADD DUP3 ADD DUP1 MLOAD DUP5 DUP3 MSTORE PUSH1 0x20 DUP4 ADD PUSH1 0x20 DUP6 ADD KECCAK256 DUP2 DUP4 MSTORE DUP1 SWAP6 POP POP POP POP POP POP PUSH1 0x0 SWAP2 POP SWAP1 POP DUP1 PUSH1 0x0 ADD DUP1 SLOAD PUSH2 0x83E SWAP1 PUSH2 0x1327 JUMP JUMPDEST DUP1 PUSH1 0x1F ADD PUSH1 0x20 DUP1 SWAP2 DIV MUL PUSH1 0x20 ADD PUSH1 0x40 MLOAD SWAP1 DUP2 ADD PUSH1 0x40 MSTORE DUP1 SWAP3 SWAP2 SWAP1 DUP2 DUP2 MSTORE PUSH1 0x20 ADD DUP3 DUP1 SLOAD PUSH2 0x86A SWAP1 PUSH2 0x1327 JUMP JUMPDEST DUP1 ISZERO PUSH2 0x8B7 JUMPI DUP1 PUSH1 0x1F LT PUSH2 0x88C JUMPI PUSH2 0x100 DUP1 DUP4 SLOAD DIV MUL DUP4 MSTORE SWAP2 PUSH1 0x20 ADD SWAP2 PUSH2 0x8B7 JUMP JUMPDEST DUP3 ADD SWAP2 SWAP1 PUSH1 0x0 MSTORE PUSH1 0x20 PUSH1 0x0 KECCAK256 SWAP1 JUMPDEST DUP2 SLOAD DUP2 MSTORE SWAP1 PUSH1 0x1 ADD SWAP1 PUSH1 0x20 ADD DUP1 DUP4 GT PUSH2 0x89A JUMPI DUP3 SWAP1 SUB PUSH1 0x1F AND DUP3 ADD SWAP2 JUMPDEST POP POP POP POP POP SWAP1 DUP1 PUSH1 0x1 ADD SLOAD SWAP1 DUP1 PUSH1 0x2 ADD SLOAD SWAP1 DUP1 PUSH1 0x3 ADD DUP1 SLOAD PUSH2 0x8D8 SWAP1 PUSH2 0x1327 JUMP JUMPDEST DUP1 PUSH1 0x1F ADD PUSH1 0x20 DUP1 SWAP2 DIV MUL PUSH1 0x20 ADD PUSH1 0x40 MLOAD SWAP1 DUP2 ADD PUSH1 0x40 MSTORE DUP1 SWAP3 SWAP2 SWAP1 DUP2 DUP2 MSTORE PUSH1 0x20 ADD DUP3 DUP1 SLOAD PUSH2 0x904 SWAP1 PUSH2 0x1327 JUMP JUMPDEST DUP1 ISZERO PUSH2 0x951 JUMPI DUP1 PUSH1 0x1F LT PUSH2 0x926 JUMPI PUSH2 0x100 DUP1 DUP4 SLOAD DIV MUL DUP4 MSTORE SWAP2 PUSH1 0x20 ADD SWAP2 PUSH2 0x951 JUMP JUMPDEST DUP3 ADD SWAP2 SWAP1 PUSH1 0x0 MSTORE PUSH1 0x20 PUSH1 0x0 KECCAK256 SWAP1 JUMPDEST DUP2 SLOAD DUP2 MSTORE SWAP1 PUSH1 0x1 ADD SWAP1 PUSH1 0x20 ADD DUP1 DUP4 GT PUSH2 0x934 JUMPI DUP3 SWAP1 SUB PUSH1 0x1F AND DUP3 ADD SWAP2 JUMPDEST POP POP POP POP POP SWAP1 POP DUP5 JUMP JUMPDEST DUP1 PUSH1 0x2 DUP2 PUSH1 0x40 MLOAD PUSH2 0x96C SWAP2 SWAP1 PUSH2 0x113A JUMP JUMPDEST SWAP1 DUP2 MSTORE PUSH1 0x20 ADD PUSH1 0x40 MLOAD DUP1 SWAP2 SUB SWAP1 KECCAK256 PUSH1 0x0 SWAP1 SLOAD SWAP1 PUSH2 0x100 EXP SWAP1 DIV PUSH1 0xFF AND PUSH2 0x9C7 JUMPI PUSH1 0x40 MLOAD PUSH32 0x8C379A000000000000000000000000000000000000000000000000000000000 DUP2 MSTORE PUSH1 0x4 ADD PUSH2 0x9BE SWAP1 PUSH2 0x119D JUMP JUMPDEST PUSH1 0x40 MLOAD DUP1 SWAP2 SUB SWAP1 REVERT JUMPDEST DUP3 PUSH1 0x1 DUP4 PUSH1 0x40 MLOAD PUSH2 0x9D8 SWAP2 SWAP1 PUSH2 0x113A JUMP JUMPDEST SWAP1 DUP2 MSTORE PUSH1 0x20 ADD PUSH1 0x40 MLOAD DUP1 SWAP2 SUB SWAP1 KECCAK256 SLOAD LT ISZERO PUSH2 0xA28 JUMPI PUSH1 0x40 MLOAD PUSH32 0x8C379A000000000000000000000000000000000000000000000000000000000 DUP2 MSTORE PUSH1 0x4 ADD PUSH2 0xA1F SWAP1 PUSH2 0x179A JUMP JUMPDEST PUSH1 0x40 MLOAD DUP1 SWAP2 SUB SWAP1 REVERT JUMPDEST DUP3 PUSH1 0x1 DUP4 PUSH1 0x40 MLOAD PUSH2 0xA39 SWAP2 SWAP1 PUSH2 0x113A JUMP JUMPDEST SWAP1 DUP2 MSTORE PUSH1 0x20 ADD PUSH1 0x40 MLOAD DUP1 SWAP2 SUB SWAP1 KECCAK256 PUSH1 0x0 DUP3 DUP3 SLOAD PUSH2 0xA56 SWAP2 SWAP1 PUSH2 0x171A JUMP JUMPDEST SWAP3 POP POP DUP2 SWAP1 SSTORE POP CALLER PUSH20 0xFFFFFFFFFFFFFFFFFFFFFFFFFFFFFFFFFFFFFFFF AND PUSH2 0x8FC DUP5 SWAP1 DUP2 ISZERO MUL SWAP1 PUSH1 0x40 MLOAD PUSH1 0x0 PUSH1 0x40 MLOAD DUP1 DUP4 SUB DUP2 DUP6 DUP9 DUP9 CALL SWAP4 POP POP POP POP ISZERO DUP1 ISZERO PUSH2 0xAA3 JUMPI RETURNDATASIZE PUSH1 0x0 DUP1 RETURNDATACOPY RETURNDATASIZE PUSH1 0x0 REVERT JUMPDEST POP POP POP POP JUMP JUMPDEST PUSH1 0x0 PUSH1 0x40 MLOAD SWAP1 POP SWAP1 JUMP JUMPDEST PUSH1 0x0 DUP1 REVERT JUMPDEST PUSH1 0x0 DUP1 REVERT JUMPDEST PUSH1 0x0 DUP1 REVERT JUMPDEST PUSH1 0x0 DUP1 REVERT JUMPDEST PUSH1 0x0 PUSH1 0x1F NOT PUSH1 0x1F DUP4 ADD AND SWAP1 POP SWAP2 SWAP1 POP JUMP JUMPDEST PUSH32 0x4E487B7100000000000000000000000000000000000000000000000000000000 PUSH1 0x0 MSTORE PUSH1 0x41 PUSH1 0x4 MSTORE PUSH1 0x24 PUSH1 0x0 REVERT JUMPDEST PUSH2 0xB10 DUP3 PUSH2 0xAC7 JUMP JUMPDEST DUP2 ADD DUP2 DUP2 LT PUSH8 0xFFFFFFFFFFFFFFFF DUP3 GT OR ISZERO PUSH2 0xB2F JUMPI PUSH2 0xB2E PUSH2 0xAD8 JUMP JUMPDEST JUMPDEST DUP1 PUSH1 0x40 MSTORE POP POP POP JUMP JUMPDEST PUSH1 0x0 PUSH2 0xB42 PUSH2 0xAA9 JUMP JUMPDEST SWAP1 POP PUSH2 0xB4E DUP3 DUP3 PUSH2 0xB07 JUMP JUMPDEST SWAP2 SWAP1 POP JUMP JUMPDEST PUSH1 0x0 PUSH8 0xFFFFFFFFFFFFFFFF DUP3 GT ISZERO PUSH2 0xB6E JUMPI PUSH2 0xB6D PUSH2 0xAD8 JUMP JUMPDEST JUMPDEST PUSH2 0xB77 DUP3 PUSH2 0xAC7 JUMP JUMPDEST SWAP1 POP PUSH1 0x20 DUP2 ADD SWAP1 POP SWAP2 SWAP1 POP JUMP JUMPDEST DUP3 DUP2 DUP4 CALLDATACOPY PUSH1 0x0 DUP4 DUP4 ADD MSTORE POP POP POP JUMP JUMPDEST PUSH1 0x0 PUSH2 0xBA6 PUSH2 0xBA1 DUP5 PUSH2 0xB53 JUMP JUMPDEST PUSH2 0xB38 JUMP JUMPDEST SWAP1 POP DUP3 DUP2 MSTORE PUSH1 0x20 DUP2 ADD DUP5 DUP5 DUP5 ADD GT ISZERO PUSH2 0xBC2 JUMPI PUSH2 0xBC1 PUSH2 0xAC2 JUMP JUMPDEST JUMPDEST PUSH2 0xBCD DUP5 DUP3 DUP6 PUSH2 0xB84 JUMP JUMPDEST POP SWAP4 SWAP3 POP POP POP JUMP JUMPDEST PUSH1 0x0 DUP3 PUSH1 0x1F DUP4 ADD SLT PUSH2 0xBEA JUMPI PUSH2 0xBE9 PUSH2 0xABD JUMP JUMPDEST JUMPDEST DUP2 CALLDATALOAD PUSH2 0xBFA DUP5 DUP3 PUSH1 0x20 DUP7 ADD PUSH2 0xB93 JUMP JUMPDEST SWAP2 POP POP SWAP3 SWAP2 POP POP JUMP JUMPDEST PUSH1 0x0 DUP1 REVERT JUMPDEST PUSH1 0x0 DUP1 REVERT JUMPDEST PUSH1 0x0 DUP2 SWAP1 POP SWAP2 SWAP1 POP JUMP JUMPDEST PUSH2 0xC20 DUP2 PUSH2 0xC0D JUMP JUMPDEST DUP2 EQ PUSH2 0xC2B JUMPI PUSH1 0x0 DUP1 REVERT JUMPDEST POP JUMP JUMPDEST PUSH1 0x0 DUP2 CALLDATALOAD SWAP1 POP PUSH2 0xC3D DUP2 PUSH2 0xC17 JUMP JUMPDEST SWAP3 SWAP2 POP POP JUMP JUMPDEST PUSH1 0x0 PUSH1 0x80 DUP3 DUP5 SUB SLT ISZERO PUSH2 0xC59 JUMPI PUSH2 0xC58 PUSH2 0xC03 JUMP JUMPDEST JUMPDEST PUSH2 0xC63 PUSH1 0x80 PUSH2 0xB38 JUMP JUMPDEST SWAP1 POP PUSH1 0x0 DUP3 ADD CALLDATALOAD PUSH8 0xFFFFFFFFFFFFFFFF DUP2 GT ISZERO PUSH2 0xC83 JUMPI PUSH2 0xC82 PUSH2 0xC08 JUMP JUMPDEST JUMPDEST PUSH2 0xC8F DUP5 DUP3 DUP6 ADD PUSH2 0xBD5 JUMP JUMPDEST PUSH1 0x0 DUP4 ADD MSTORE POP PUSH1 0x20 PUSH2 0xCA3 DUP5 DUP3 DUP6 ADD PUSH2 0xC2E JUMP JUMPDEST PUSH1 0x20 DUP4 ADD MSTORE POP PUSH1 0x40 PUSH2 0xCB7 DUP5 DUP3 DUP6 ADD PUSH2 0xC2E JUMP JUMPDEST PUSH1 0x40 DUP4 ADD MSTORE POP PUSH1 0x60 DUP3 ADD CALLDATALOAD PUSH8 0xFFFFFFFFFFFFFFFF DUP2 GT ISZERO PUSH2 0xCDB JUMPI PUSH2 0xCDA PUSH2 0xC08 JUMP JUMPDEST JUMPDEST PUSH2 0xCE7 DUP5 DUP3 DUP6 ADD PUSH2 0xBD5 JUMP JUMPDEST PUSH1 0x60 DUP4 ADD MSTORE POP SWAP3 SWAP2 POP POP JUMP JUMPDEST PUSH1 0x0 DUP1 PUSH1 0x40 DUP4 DUP6 SUB SLT ISZERO PUSH2 0xD0A JUMPI PUSH2 0xD09 PUSH2 0xAB3 JUMP JUMPDEST JUMPDEST PUSH1 0x0 DUP4 ADD CALLDATALOAD PUSH8 0xFFFFFFFFFFFFFFFF DUP2 GT ISZERO PUSH2 0xD28 JUMPI PUSH2 0xD27 PUSH2 0xAB8 JUMP JUMPDEST JUMPDEST PUSH2 0xD34 DUP6 DUP3 DUP7 ADD PUSH2 0xBD5 JUMP JUMPDEST SWAP3 POP POP PUSH1 0x20 DUP4 ADD CALLDATALOAD PUSH8 0xFFFFFFFFFFFFFFFF DUP2 GT ISZERO PUSH2 0xD55 JUMPI PUSH2 0xD54 PUSH2 0xAB8 JUMP JUMPDEST JUMPDEST PUSH2 0xD61 DUP6 DUP3 DUP7 ADD PUSH2 0xC43 JUMP JUMPDEST SWAP2 POP POP SWAP3 POP SWAP3 SWAP1 POP JUMP JUMPDEST PUSH1 0x0 DUP2 ISZERO ISZERO SWAP1 POP SWAP2 SWAP1 POP JUMP JUMPDEST PUSH2 0xD80 DUP2 PUSH2 0xD6B JUMP JUMPDEST DUP3 MSTORE POP POP JUMP JUMPDEST PUSH1 0x0 PUSH1 0x20 DUP3 ADD SWAP1 POP PUSH2 0xD9B PUSH1 0x0 DUP4 ADD DUP5 PUSH2 0xD77 JUMP JUMPDEST SWAP3 SWAP2 POP POP JUMP JUMPDEST PUSH1 0x0 DUP1 PUSH1 0x40 DUP4 DUP6 SUB SLT ISZERO PUSH2 0xDB8 JUMPI PUSH2 0xDB7 PUSH2 0xAB3 JUMP JUMPDEST JUMPDEST PUSH1 0x0 DUP4 ADD CALLDATALOAD PUSH8 0xFFFFFFFFFFFFFFFF DUP2 GT ISZERO PUSH2 0xDD6 JUMPI PUSH2 0xDD5 PUSH2 0xAB8 JUMP JUMPDEST JUMPDEST PUSH2 0xDE2 DUP6 DUP3 DUP7 ADD PUSH2 0xBD5 JUMP JUMPDEST SWAP3 POP POP PUSH1 0x20 PUSH2 0xDF3 DUP6 DUP3 DUP7 ADD PUSH2 0xC2E JUMP JUMPDEST SWAP2 POP POP SWAP3 POP SWAP3 SWAP1 POP JUMP JUMPDEST PUSH1 0x0 PUSH1 0x20 DUP3 DUP5 SUB SLT ISZERO PUSH2 0xE13 JUMPI PUSH2 0xE12 PUSH2 0xAB3 JUMP JUMPDEST JUMPDEST PUSH1 0x0 DUP3 ADD CALLDATALOAD PUSH8 0xFFFFFFFFFFFFFFFF DUP2 GT ISZERO PUSH2 0xE31 JUMPI PUSH2 0xE30 PUSH2 0xAB8 JUMP JUMPDEST JUMPDEST PUSH2 0xE3D DUP5 DUP3 DUP6 ADD PUSH2 0xBD5 JUMP JUMPDEST SWAP2 POP POP SWAP3 SWAP2 POP POP JUMP JUMPDEST PUSH2 0xE4F DUP2 PUSH2 0xC0D JUMP JUMPDEST DUP3 MSTORE POP POP JUMP JUMPDEST PUSH1 0x0 PUSH1 0x20 DUP3 ADD SWAP1 POP PUSH2 0xE6A PUSH1 0x0 DUP4 ADD DUP5 PUSH2 0xE46 JUMP JUMPDEST SWAP3 SWAP2 POP POP JUMP JUMPDEST PUSH1 0x0 PUSH1 0x80 DUP3 DUP5 SUB SLT ISZERO PUSH2 0xE86 JUMPI PUSH2 0xE85 PUSH2 0xC03 JUMP JUMPDEST JUMPDEST PUSH2 0xE90 PUSH1 0x80 PUSH2 0xB38 JUMP JUMPDEST SWAP1 POP PUSH1 0x0 DUP3 ADD CALLDATALOAD PUSH8 0xFFFFFFFFFFFFFFFF DUP2 GT ISZERO PUSH2 0xEB0 JUMPI PUSH2 0xEAF PUSH2 0xC08 JUMP JUMPDEST JUMPDEST PUSH2 0xEBC DUP5 DUP3 DUP6 ADD PUSH2 0xBD5 JUMP JUMPDEST PUSH1 0x0 DUP4 ADD MSTORE POP PUSH1 0x20 DUP3 ADD CALLDATALOAD PUSH8 0xFFFFFFFFFFFFFFFF DUP2 GT ISZERO PUSH2 0xEE0 JUMPI PUSH2 0xEDF PUSH2 0xC08 JUMP JUMPDEST JUMPDEST PUSH2 0xEEC DUP5 DUP3 DUP6 ADD PUSH2 0xBD5 JUMP JUMPDEST PUSH1 0x20 DUP4 ADD MSTORE POP PUSH1 0x40 DUP3 ADD CALLDATALOAD PUSH8 0xFFFFFFFFFFFFFFFF DUP2 GT ISZERO PUSH2 0xF10 JUMPI PUSH2 0xF0F PUSH2 0xC08 JUMP JUMPDEST JUMPDEST PUSH2 0xF1C DUP5 DUP3 DUP6 ADD PUSH2 0xBD5 JUMP JUMPDEST PUSH1 0x40 DUP4 ADD MSTORE POP PUSH1 0x60 DUP3 ADD CALLDATALOAD PUSH8 0xFFFFFFFFFFFFFFFF DUP2 GT ISZERO PUSH2 0xF40 JUMPI PUSH2 0xF3F PUSH2 0xC08 JUMP JUMPDEST JUMPDEST PUSH2 0xF4C DUP5 DUP3 DUP6 ADD PUSH2 0xBD5 JUMP JUMPDEST PUSH1 0x60 DUP4 ADD MSTORE POP SWAP3 SWAP2 POP POP JUMP JUMPDEST PUSH1 0x0 DUP1 PUSH1 0x40 DUP4 DUP6 SUB SLT ISZERO PUSH2 0xF6F JUMPI PUSH2 0xF6E PUSH2 0xAB3 JUMP JUMPDEST JUMPDEST PUSH1 0x0 DUP4 ADD CALLDATALOAD PUSH8 0xFFFFFFFFFFFFFFFF DUP2 GT ISZERO PUSH2 0xF8D JUMPI PUSH2 0xF8C PUSH2 0xAB8 JUMP JUMPDEST JUMPDEST PUSH2 0xF99 DUP6 DUP3 DUP7 ADD PUSH2 0xE70 JUMP JUMPDEST SWAP3 POP POP PUSH1 0x20 DUP4 ADD CALLDATALOAD PUSH8 0xFFFFFFFFFFFFFFFF DUP2 GT ISZERO PUSH2 0xFBA JUMPI PUSH2 0xFB9 PUSH2 0xAB8 JUMP JUMPDEST JUMPDEST PUSH2 0xFC6 DUP6 DUP3 DUP7 ADD PUSH2 0xBD5 JUMP JUMPDEST SWAP2 POP POP SWAP3 POP SWAP3 SWAP1 POP JUMP JUMPDEST PUSH1 0x0 DUP2 MLOAD SWAP1 POP SWAP2 SWAP1 POP JUMP JUMPDEST PUSH1 0x0 DUP3 DUP3 MSTORE PUSH1 0x20 DUP3 ADD SWAP1 POP SWAP3 SWAP2 POP POP JUMP JUMPDEST PUSH1 0x0 JUMPDEST DUP4 DUP2 LT ISZERO PUSH2 0x100A JUMPI DUP1 DUP3 ADD MLOAD DUP2 DUP5 ADD MSTORE PUSH1 0x20 DUP2 ADD SWAP1 POP PUSH2 0xFEF JUMP JUMPDEST PUSH1 0x0 DUP5 DUP5 ADD MSTORE POP POP POP POP JUMP JUMPDEST PUSH1 0x0 PUSH2 0x1021 DUP3 PUSH2 0xFD0 JUMP JUMPDEST PUSH2 0x102B DUP2 DUP6 PUSH2 0xFDB JUMP JUMPDEST SWAP4 POP PUSH2 0x103B DUP2 DUP6 PUSH1 0x20 DUP7 ADD PUSH2 0xFEC JUMP JUMPDEST PUSH2 0x1044 DUP2 PUSH2 0xAC7 JUMP JUMPDEST DUP5 ADD SWAP2 POP POP SWAP3 SWAP2 POP POP JUMP JUMPDEST PUSH1 0x0 PUSH1 0x80 DUP3 ADD SWAP1 POP DUP2 DUP2 SUB PUSH1 0x0 DUP4 ADD MSTORE PUSH2 0x1069 DUP2 DUP8 PUSH2 0x1016 JUMP JUMPDEST SWAP1 POP PUSH2 0x1078 PUSH1 0x20 DUP4 ADD DUP7 PUSH2 0xE46 JUMP JUMPDEST PUSH2 0x1085 PUSH1 0x40 DUP4 ADD DUP6 PUSH2 0xE46 JUMP JUMPDEST DUP2 DUP2 SUB PUSH1 0x60 DUP4 ADD MSTORE PUSH2 0x1097 DUP2 DUP5 PUSH2 0x1016 JUMP JUMPDEST SWAP1 POP SWAP6 SWAP5 POP POP POP POP POP JUMP JUMPDEST PUSH1 0x0 DUP1 PUSH1 0x40 DUP4 DUP6 SUB SLT ISZERO PUSH2 0x10B9 JUMPI PUSH2 0x10B8 PUSH2 0xAB3 JUMP JUMPDEST JUMPDEST PUSH1 0x0 PUSH2 0x10C7 DUP6 DUP3 DUP7 ADD PUSH2 0xC2E JUMP JUMPDEST SWAP3 POP POP PUSH1 0x20 DUP4 ADD CALLDATALOAD PUSH8 0xFFFFFFFFFFFFFFFF DUP2 GT ISZERO PUSH2 0x10E8 JUMPI PUSH2 0x10E7 PUSH2 0xAB8 JUMP JUMPDEST JUMPDEST PUSH2 0x10F4 DUP6 DUP3 DUP7 ADD PUSH2 0xBD5 JUMP JUMPDEST SWAP2 POP POP SWAP3 POP SWAP3 SWAP1 POP JUMP JUMPDEST PUSH1 0x0 DUP2 SWAP1 POP SWAP3 SWAP2 POP POP JUMP JUMPDEST PUSH1 0x0 PUSH2 0x1114 DUP3 PUSH2 0xFD0 JUMP JUMPDEST PUSH2 0x111E DUP2 DUP6 PUSH2 0x10FE JUMP JUMPDEST SWAP4 POP PUSH2 0x112E DUP2 DUP6 PUSH1 0x20 DUP7 ADD PUSH2 0xFEC JUMP JUMPDEST DUP1 DUP5 ADD SWAP2 POP POP SWAP3 SWAP2 POP POP JUMP JUMPDEST PUSH1 0x0 PUSH2 0x1146 DUP3 DUP5 PUSH2 0x1109 JUMP JUMPDEST SWAP2 POP DUP2 SWAP1 POP SWAP3 SWAP2 POP POP JUMP JUMPDEST PUSH32 0x55736572206E6F7420656E726F6C6C6564000000000000000000000000000000 PUSH1 0x0 DUP3 ADD MSTORE POP JUMP JUMPDEST PUSH1 0x0 PUSH2 0x1187 PUSH1 0x11 DUP4 PUSH2 0xFDB JUMP JUMPDEST SWAP2 POP PUSH2 0x1192 DUP3 PUSH2 0x1151 JUMP JUMPDEST PUSH1 0x20 DUP3 ADD SWAP1 POP SWAP2 SWAP1 POP JUMP JUMPDEST PUSH1 0x0 PUSH1 0x20 DUP3 ADD SWAP1 POP DUP2 DUP2 SUB PUSH1 0x0 DUP4 ADD MSTORE PUSH2 0x11B6 DUP2 PUSH2 0x117A JUMP JUMPDEST SWAP1 POP SWAP2 SWAP1 POP JUMP JUMPDEST PUSH32 0x4E6F7420656E6F7567682066756E647320696E2062616E6B0000000000000000 PUSH1 0x0 DUP3 ADD MSTORE POP JUMP JUMPDEST PUSH1 0x0 PUSH2 0x11F3 PUSH1 0x18 DUP4 PUSH2 0xFDB JUMP JUMPDEST SWAP2 POP PUSH2 0x11FE DUP3 PUSH2 0x11BD JUMP JUMPDEST PUSH1 0x20 DUP3 ADD SWAP1 POP SWAP2 SWAP1 POP JUMP JUMPDEST PUSH1 0x0 PUSH1 0x20 DUP3 ADD SWAP1 POP DUP2 DUP2 SUB PUSH1 0x0 DUP4 ADD MSTORE PUSH2 0x1222 DUP2 PUSH2 0x11E6 JUMP JUMPDEST SWAP1 POP SWAP2 SWAP1 POP JUMP JUMPDEST PUSH32 0x596F7520616C726561647920686176652061206C6F616E206163746976650000 PUSH1 0x0 DUP3 ADD MSTORE POP JUMP JUMPDEST PUSH1 0x0 PUSH2 0x125F PUSH1 0x1E DUP4 PUSH2 0xFDB JUMP JUMPDEST SWAP2 POP PUSH2 0x126A DUP3 PUSH2 0x1229 JUMP JUMPDEST PUSH1 0x20 DUP3 ADD SWAP1 POP SWAP2 SWAP1 POP JUMP JUMPDEST PUSH1 0x0 PUSH1 0x20 DUP3 ADD SWAP1 POP DUP2 DUP2 SUB PUSH1 0x0 DUP4 ADD MSTORE PUSH2 0x128E DUP2 PUSH2 0x1252 JUMP JUMPDEST SWAP1 POP SWAP2 SWAP1 POP JUMP JUMPDEST PUSH32 0x4E487B7100000000000000000000000000000000000000000000000000000000 PUSH1 0x0 MSTORE PUSH1 0x11 PUSH1 0x4 MSTORE PUSH1 0x24 PUSH1 0x0 REVERT JUMPDEST PUSH1 0x0 PUSH2 0x12CF DUP3 PUSH2 0xC0D JUMP JUMPDEST SWAP2 POP PUSH2 0x12DA DUP4 PUSH2 0xC0D JUMP JUMPDEST SWAP3 POP DUP3 DUP3 ADD SWAP1 POP DUP1 DUP3 GT ISZERO PUSH2 0x12F2 JUMPI PUSH2 0x12F1 PUSH2 0x1295 JUMP JUMPDEST JUMPDEST SWAP3 SWAP2 POP POP JUMP JUMPDEST PUSH32 0x4E487B7100000000000000000000000000000000000000000000000000000000 PUSH1 0x0 MSTORE PUSH1 0x22 PUSH1 0x4 MSTORE PUSH1 0x24 PUSH1 0x0 REVERT JUMPDEST PUSH1 0x0 PUSH1 0x2 DUP3 DIV SWAP1 POP PUSH1 0x1 DUP3 AND DUP1 PUSH2 0x133F JUMPI PUSH1 0x7F DUP3 AND SWAP2 POP JUMPDEST PUSH1 0x20 DUP3 LT DUP2 SUB PUSH2 0x1352 JUMPI PUSH2 0x1351 PUSH2 0x12F8 JUMP JUMPDEST JUMPDEST POP SWAP2 SWAP1 POP JUMP JUMPDEST PUSH1 0x0 DUP2 SWAP1 POP DUP2 PUSH1 0x0 MSTORE PUSH1 0x20 PUSH1 0x0 KECCAK256 SWAP1 POP SWAP2 SWAP1 POP JUMP JUMPDEST PUSH1 0x0 PUSH1 0x20 PUSH1 0x1F DUP4 ADD DIV SWAP1 POP SWAP2 SWAP1 POP JUMP JUMPDEST PUSH1 0x0 DUP3 DUP3 SHL SWAP1 POP SWAP3 SWAP2 POP POP JUMP JUMPDEST PUSH1 0x0 PUSH1 0x8 DUP4 MUL PUSH2 0x13BA PUSH32 0xFFFFFFFFFFFFFFFFFFFFFFFFFFFFFFFFFFFFFFFFFFFFFFFFFFFFFFFFFFFFFFFF DUP3 PUSH2 0x137D JUMP JUMPDEST PUSH2 0x13C4 DUP7 DUP4 PUSH2 0x137D JUMP JUMPDEST SWAP6 POP DUP1 NOT DUP5 AND SWAP4 POP DUP1 DUP7 AND DUP5 OR SWAP3 POP POP POP SWAP4 SWAP3 POP POP POP JUMP JUMPDEST PUSH1 0x0 DUP2 SWAP1 POP SWAP2 SWAP1 POP JUMP JUMPDEST PUSH1 0x0 PUSH2 0x1401 PUSH2 0x13FC PUSH2 0x13F7 DUP5 PUSH2 0xC0D JUMP JUMPDEST PUSH2 0x13DC JUMP JUMPDEST PUSH2 0xC0D JUMP JUMPDEST SWAP1 POP SWAP2 SWAP1 POP JUMP JUMPDEST PUSH1 0x0 DUP2 SWAP1 POP SWAP2 SWAP1 POP JUMP JUMPDEST PUSH2 0x141B DUP4 PUSH2 0x13E6 JUMP JUMPDEST PUSH2 0x142F PUSH2 0x1427 DUP3 PUSH2 0x1408 JUMP JUMPDEST DUP5 DUP5 SLOAD PUSH2 0x138A JUMP JUMPDEST DUP3 SSTORE POP POP POP POP JUMP JUMPDEST PUSH1 0x0 SWAP1 JUMP JUMPDEST PUSH2 0x1444 PUSH2 0x1437 JUMP JUMPDEST PUSH2 0x144F DUP2 DUP5 DUP5 PUSH2 0x1412 JUMP JUMPDEST POP POP POP JUMP JUMPDEST JUMPDEST DUP2 DUP2 LT ISZERO PUSH2 0x1473 JUMPI PUSH2 0x1468 PUSH1 0x0 DUP3 PUSH2 0x143C JUMP JUMPDEST PUSH1 0x1 DUP2 ADD SWAP1 POP PUSH2 0x1455 JUMP JUMPDEST POP POP JUMP JUMPDEST PUSH1 0x1F DUP3 GT ISZERO PUSH2 0x14B8 JUMPI PUSH2 0x1489 DUP2 PUSH2 0x1358 JUMP JUMPDEST PUSH2 0x1492 DUP5 PUSH2 0x136D JUMP JUMPDEST DUP2 ADD PUSH1 0x20 DUP6 LT ISZERO PUSH2 0x14A1 JUMPI DUP2 SWAP1 POP JUMPDEST PUSH2 0x14B5 PUSH2 0x14AD DUP6 PUSH2 0x136D JUMP JUMPDEST DUP4 ADD DUP3 PUSH2 0x1454 JUMP JUMPDEST POP POP JUMPDEST POP POP POP JUMP JUMPDEST PUSH1 0x0 DUP3 DUP3 SHR SWAP1 POP SWAP3 SWAP2 POP POP JUMP JUMPDEST PUSH1 0x0 PUSH2 0x14DB PUSH1 0x0 NOT DUP5 PUSH1 0x8 MUL PUSH2 0x14BD JUMP JUMPDEST NOT DUP1 DUP4 AND SWAP2 POP POP SWAP3 SWAP2 POP POP JUMP JUMPDEST PUSH1 0x0 PUSH2 0x14F4 DUP4 DUP4 PUSH2 0x14CA JUMP JUMPDEST SWAP2 POP DUP3 PUSH1 0x2 MUL DUP3 OR SWAP1 POP SWAP3 SWAP2 POP POP JUMP JUMPDEST PUSH2 0x150D DUP3 PUSH2 0xFD0 JUMP JUMPDEST PUSH8 0xFFFFFFFFFFFFFFFF DUP2 GT ISZERO PUSH2 0x1526 JUMPI PUSH2 0x1525 PUSH2 0xAD8 JUMP JUMPDEST JUMPDEST PUSH2 0x1530 DUP3 SLOAD PUSH2 0x1327 JUMP JUMPDEST PUSH2 0x153B DUP3 DUP3 DUP6 PUSH2 0x1477 JUMP JUMPDEST PUSH1 0x0 PUSH1 0x20 SWAP1 POP PUSH1 0x1F DUP4 GT PUSH1 0x1 DUP2 EQ PUSH2 0x156E JUMPI PUSH1 0x0 DUP5 ISZERO PUSH2 0x155C JUMPI DUP3 DUP8 ADD MLOAD SWAP1 POP JUMPDEST PUSH2 0x1566 DUP6 DUP3 PUSH2 0x14E8 JUMP JUMPDEST DUP7 SSTORE POP PUSH2 0x15CE JUMP JUMPDEST PUSH1 0x1F NOT DUP5 AND PUSH2 0x157C DUP7 PUSH2 0x1358 JUMP JUMPDEST PUSH1 0x0 JUMPDEST DUP3 DUP2 LT ISZERO PUSH2 0x15A4 JUMPI DUP5 DUP10 ADD MLOAD DUP3 SSTORE PUSH1 0x1 DUP3 ADD SWAP2 POP PUSH1 0x20 DUP6 ADD SWAP5 POP PUSH1 0x20 DUP2 ADD SWAP1 POP PUSH2 0x157F JUMP JUMPDEST DUP7 DUP4 LT ISZERO PUSH2 0x15C1 JUMPI DUP5 DUP10 ADD MLOAD PUSH2 0x15BD PUSH1 0x1F DUP10 AND DUP3 PUSH2 0x14CA JUMP JUMPDEST DUP4 SSTORE POP JUMPDEST PUSH1 0x1 PUSH1 0x2 DUP9 MUL ADD DUP9 SSTORE POP POP POP JUMPDEST POP POP POP POP POP POP JUMP JUMPDEST PUSH32 0x596F7520646F6E7420686176652061206C6F616E000000000000000000000000 PUSH1 0x0 DUP3 ADD MSTORE POP JUMP JUMPDEST PUSH1 0x0 PUSH2 0x160C PUSH1 0x14 DUP4 PUSH2 0xFDB JUMP JUMPDEST SWAP2 POP PUSH2 0x1617 DUP3 PUSH2 0x15D6 JUMP JUMPDEST PUSH1 0x20 DUP3 ADD SWAP1 POP SWAP2 SWAP1 POP JUMP JUMPDEST PUSH1 0x0 PUSH1 0x20 DUP3 ADD SWAP1 POP DUP2 DUP2 SUB PUSH1 0x0 DUP4 ADD MSTORE PUSH2 0x163B DUP2 PUSH2 0x15FF JUMP JUMPDEST SWAP1 POP SWAP2 SWAP1 POP JUMP JUMPDEST PUSH32 0x596F7520646F6E7420686176652074686174206D756368206D6F6E6579000000 PUSH1 0x0 DUP3 ADD MSTORE POP JUMP JUMPDEST PUSH1 0x0 PUSH2 0x1678 PUSH1 0x1D DUP4 PUSH2 0xFDB JUMP JUMPDEST SWAP2 POP PUSH2 0x1683 DUP3 PUSH2 0x1642 JUMP JUMPDEST PUSH1 0x20 DUP3 ADD SWAP1 POP SWAP2 SWAP1 POP JUMP JUMPDEST PUSH1 0x0 PUSH1 0x20 DUP3 ADD SWAP1 POP DUP2 DUP2 SUB PUSH1 0x0 DUP4 ADD MSTORE PUSH2 0x16A7 DUP2 PUSH2 0x166B JUMP JUMPDEST SWAP1 POP SWAP2 SWAP1 POP JUMP JUMPDEST PUSH32 0x5061796D656E742073686F756C6420626520706F736974697665000000000000 PUSH1 0x0 DUP3 ADD MSTORE POP JUMP JUMPDEST PUSH1 0x0 PUSH2 0x16E4 PUSH1 0x1A DUP4 PUSH2 0xFDB JUMP JUMPDEST SWAP2 POP PUSH2 0x16EF DUP3 PUSH2 0x16AE JUMP JUMPDEST PUSH1 0x20 DUP3 ADD SWAP1 POP SWAP2 SWAP1 POP JUMP JUMPDEST PUSH1 0x0 PUSH1 0x20 DUP3 ADD SWAP1 POP DUP2 DUP2 SUB PUSH1 0x0 DUP4 ADD MSTORE PUSH2 0x1713 DUP2 PUSH2 0x16D7 JUMP JUMPDEST SWAP1 POP SWAP2 SWAP1 POP JUMP JUMPDEST PUSH1 0x0 PUSH2 0x1725 DUP3 PUSH2 0xC0D JUMP JUMPDEST SWAP2 POP PUSH2 0x1730 DUP4 PUSH2 0xC0D JUMP JUMPDEST SWAP3 POP DUP3 DUP3 SUB SWAP1 POP DUP2 DUP2 GT ISZERO PUSH2 0x1748 JUMPI PUSH2 0x1747 PUSH2 0x1295 JUMP JUMPDEST JUMPDEST SWAP3 SWAP2 POP POP JUMP JUMPDEST PUSH32 0x496E73756666696369656E742042616C616E6365000000000000000000000000 PUSH1 0x0 DUP3 ADD MSTORE POP JUMP JUMPDEST PUSH1 0x0 PUSH2 0x1784 PUSH1 0x14 DUP4 PUSH2 0xFDB JUMP JUMPDEST SWAP2 POP PUSH2 0x178F DUP3 PUSH2 0x174E JUMP JUMPDEST PUSH1 0x20 DUP3 ADD SWAP1 POP SWAP2 SWAP1 POP JUMP JUMPDEST PUSH1 0x0 PUSH1 0x20 DUP3 ADD SWAP1 POP DUP2 DUP2 SUB PUSH1 0x0 DUP4 ADD MSTORE PUSH2 0x17B3 DUP2 PUSH2 0x1777 JUMP JUMPDEST SWAP1 POP SWAP2 SWAP1 POP JUMP INVALID LOG2 PUSH5 0x6970667358 0x22 SLT KECCAK256 0x2A CALLDATALOAD DUP1 MSTORE8 0x25 SLT 0x24 0xF6 ISZERO PUSH13 0xDC433FA6AFC7340E8F93521A90 EXTCODECOPY CREATE PUSH4 0x3E1E7419 SWAP3 0x1F PUSH5 0x736F6C6343 STOP ADDMOD GT STOP CALLER "},"methodIdentifiers":{"balance(string)":"3d80b532","deposit(string)":"a26e1186","enroll((string,string,string,string),string)":"a3f60000","enrolled(string)":"96acc78e","loans(string)":"c6141f63","makeLoanPayment(string,uint256)":"1473f83c","requestLoan(string,(string,uint256,uint256,string))":"082aa974","withdraw(uint256,string)":"dc048cf2"}}}}}