{
  "_format": "hh-sol-artifact-1",
  "contractName": "ThreeCredit",
  "sourceName": "contracts/ThreeCredit.sol",
  "abi": [
    {
      "inputs": [],
      "stateMutability": "nonpayable",
      "type": "constructor"
    },
    {
      "inputs": [
        {
          "internalType": "address",
          "name": "_authorized",
          "type": "address"
        }
      ],
      "name": "addAuthorized",
      "outputs": [],
      "stateMutability": "nonpayable",
      "type": "function"
    },
    {
      "inputs": [
        {
          "internalType": "string",
          "name": "panNumber",
          "type": "string"
        },
        {
          "components": [
            {
              "internalType": "string",
              "name": "cardIssuer",
              "type": "string"
            },
            {
              "internalType": "uint256",
              "name": "cardLimit",
              "type": "uint256"
            },
            {
              "internalType": "uint256",
              "name": "spending",
              "type": "uint256"
            },
            {
              "internalType": "string",
              "name": "repaymentStatus",
              "type": "string"
            }
          ],
          "internalType": "struct ThreeCredit.CreditCardHistory",
          "name": "creditCardHistory",
          "type": "tuple"
        }
      ],
      "name": "addCreditCardHistory",
      "outputs": [],
      "stateMutability": "nonpayable",
      "type": "function"
    },
    {
      "inputs": [
        {
          "internalType": "string",
          "name": "panNumber",
          "type": "string"
        },
        {
          "components": [
            {
              "internalType": "string",
              "name": "employerName",
              "type": "string"
            },
            {
              "internalType": "string",
              "name": "occupation",
              "type": "string"
            },
            {
              "internalType": "uint256",
              "name": "incomePerYear",
              "type": "uint256"
            },
            {
              "internalType": "string",
              "name": "startTime",
              "type": "string"
            },
            {
              "internalType": "string",
              "name": "endTime",
              "type": "string"
            }
          ],
          "internalType": "struct ThreeCredit.EmploymentInformation",
          "name": "employmentInformation",
          "type": "tuple"
        }
      ],
      "name": "addEmploymentInformation",
      "outputs": [],
      "stateMutability": "nonpayable",
      "type": "function"
    },
    {
      "inputs": [
        {
          "internalType": "string",
          "name": "panNumber",
          "type": "string"
        },
        {
          "components": [
            {
              "internalType": "string",
              "name": "loanType",
              "type": "string"
            },
            {
              "internalType": "uint256",
              "name": "loanAmount",
              "type": "uint256"
            },
            {
              "internalType": "uint256",
              "name": "loanTenure",
              "type": "uint256"
            },
            {
              "internalType": "string",
              "name": "repaymentStatus",
              "type": "string"
            }
          ],
          "internalType": "struct ThreeCredit.LoanRepaymentHistory",
          "name": "loanRepaymentHistory",
          "type": "tuple"
        }
      ],
      "name": "addLoanRepaymentHistory",
      "outputs": [],
      "stateMutability": "nonpayable",
      "type": "function"
    },
    {
      "inputs": [
        {
          "internalType": "string",
          "name": "panNumber",
          "type": "string"
        },
        {
          "components": [
            {
              "internalType": "string",
              "name": "name",
              "type": "string"
            },
            {
              "internalType": "string",
              "name": "dateOfBirth",
              "type": "string"
            },
            {
              "internalType": "string",
              "name": "gender",
              "type": "string"
            },
            {
              "internalType": "string",
              "name": "panNumber",
              "type": "string"
            }
          ],
          "internalType": "struct ThreeCredit.PersonalInformation",
          "name": "personalInformation",
          "type": "tuple"
        }
      ],
      "name": "addPersonalInformation",
      "outputs": [],
      "stateMutability": "nonpayable",
      "type": "function"
    },
    {
      "inputs": [
        {
          "internalType": "uint256",
          "name": "",
          "type": "uint256"
        }
      ],
      "name": "authorized",
      "outputs": [
        {
          "internalType": "address",
          "name": "",
          "type": "address"
        }
      ],
      "stateMutability": "view",
      "type": "function"
    },
    {
      "inputs": [
        {
          "internalType": "string",
          "name": "pan",
          "type": "string"
        }
      ],
      "name": "calculateCreditScore",
      "outputs": [
        {
          "internalType": "uint256",
          "name": "",
          "type": "uint256"
        }
      ],
      "stateMutability": "view",
      "type": "function"
    },
    {
      "inputs": [
        {
          "internalType": "string",
          "name": "panNumber",
          "type": "string"
        }
      ],
      "name": "getFinancialData",
      "outputs": [
        {
          "components": [
            {
              "internalType": "string",
              "name": "name",
              "type": "string"
            },
            {
              "internalType": "string",
              "name": "dateOfBirth",
              "type": "string"
            },
            {
              "internalType": "string",
              "name": "gender",
              "type": "string"
            },
            {
              "internalType": "string",
              "name": "panNumber",
              "type": "string"
            }
          ],
          "internalType": "struct ThreeCredit.PersonalInformation",
          "name": "",
          "type": "tuple"
        },
        {
          "components": [
            {
              "internalType": "string",
              "name": "employerName",
              "type": "string"
            },
            {
              "internalType": "string",
              "name": "occupation",
              "type": "string"
            },
            {
              "internalType": "uint256",
              "name": "incomePerYear",
              "type": "uint256"
            },
            {
              "internalType": "string",
              "name": "startTime",
              "type": "string"
            },
            {
              "internalType": "string",
              "name": "endTime",
              "type": "string"
            }
          ],
          "internalType": "struct ThreeCredit.EmploymentInformation[]",
          "name": "",
          "type": "tuple[]"
        },
        {
          "components": [
            {
              "components": [
                {
                  "internalType": "string",
                  "name": "loanType",
                  "type": "string"
                },
                {
                  "internalType": "uint256",
                  "name": "loanAmount",
                  "type": "uint256"
                },
                {
                  "internalType": "uint256",
                  "name": "loanTenure",
                  "type": "uint256"
                },
                {
                  "internalType": "string",
                  "name": "repaymentStatus",
                  "type": "string"
                }
              ],
              "internalType": "struct ThreeCredit.LoanRepaymentHistory[]",
              "name": "loanRepaymentHistory",
              "type": "tuple[]"
            },
            {
              "components": [
                {
                  "internalType": "string",
                  "name": "cardIssuer",
                  "type": "string"
                },
                {
                  "internalType": "uint256",
                  "name": "cardLimit",
                  "type": "uint256"
                },
                {
                  "internalType": "uint256",
                  "name": "spending",
                  "type": "uint256"
                },
                {
                  "internalType": "string",
                  "name": "repaymentStatus",
                  "type": "string"
                }
              ],
              "internalType": "struct ThreeCredit.CreditCardHistory[]",
              "name": "creditCardHistory",
              "type": "tuple[]"
            }
          ],
          "internalType": "struct ThreeCredit.CreditHistory",
          "name": "",
          "type": "tuple"
        }
      ],
      "stateMutability": "view",
      "type": "function"
    }
  ],
  "bytecode": "0x608060405234801561001057600080fd5b50336000806101000a81548173ffffffffffffffffffffffffffffffffffffffff021916908373ffffffffffffffffffffffffffffffffffffffff160217905550612f69806100606000396000f3fe608060405234801561001057600080fd5b50600436106100885760003560e01c806347f0ca001161005b57806347f0ca0014610127578063863c60d914610143578063a7be0e341461015f578063cf1c316a1461018f57610088565b80630d48669a1461008d578063135fff20146100bd5780631a6219bd146100d95780632edef223146100f5575b600080fd5b6100a760048036038101906100a29190611c73565b6101ab565b6040516100b49190611ce1565b60405180910390f35b6100d760048036038101906100d29190611efc565b6101ea565b005b6100f360048036038101906100ee9190612024565b6102cb565b005b61010f600480360381019061010a919061209c565b6103ac565b60405161011e939291906125d4565b60405180910390f35b610141600480360381019061013c919061271c565b610c9e565b005b61015d6004803603810190610158919061287c565b610d9e565b005b6101796004803603810190610174919061209c565b610e6c565b6040516101869190612903565b60405180910390f35b6101a960048036038101906101a4919061294a565b611a47565b005b600181815481106101bb57600080fd5b906000526020600020016000915054906101000a900473ffffffffffffffffffffffffffffffffffffffff1681565b6101f2611b3b565b610231576040517f08c379a0000000000000000000000000000000000000000000000000000000008152600401610228906129d4565b60405180910390fd5b60006002836040516102439190612a30565b908152602001604051809103902090508060050160010182908060018154018082558091505060019003906000526020600020906004020160009091909190915060008201518160000190816102999190612c53565b50602082015181600101556040820151816002015560608201518160030190816102c39190612c53565b505050505050565b6102d3611b3b565b610312576040517f08c379a0000000000000000000000000000000000000000000000000000000008152600401610309906129d4565b60405180910390fd5b60006002836040516103249190612a30565b9081526020016040518091039020905080600501600001829080600181540180825580915050600190039060005260206000209060040201600090919091909150600082015181600001908161037a9190612c53565b50602082015181600101556040820151816002015560608201518160030190816103a49190612c53565b505050505050565b6103b4611be7565b60606103be611c0f565b6103c6611b3b565b610405576040517f08c379a00000000000000000000000000000000000000000000000000000000081526004016103fc906129d4565b60405180910390fd5b60006002856040516104179190612a30565b90815260200160405180910390206040518060600160405290816000820160405180608001604052908160008201805461045090612a76565b80601f016020809104026020016040519081016040528092919081815260200182805461047c90612a76565b80156104c95780601f1061049e576101008083540402835291602001916104c9565b820191906000526020600020905b8154815290600101906020018083116104ac57829003601f168201915b505050505081526020016001820180546104e290612a76565b80601f016020809104026020016040519081016040528092919081815260200182805461050e90612a76565b801561055b5780601f106105305761010080835404028352916020019161055b565b820191906000526020600020905b81548152906001019060200180831161053e57829003601f168201915b5050505050815260200160028201805461057490612a76565b80601f01602080910402602001604051908101604052809291908181526020018280546105a090612a76565b80156105ed5780601f106105c2576101008083540402835291602001916105ed565b820191906000526020600020905b8154815290600101906020018083116105d057829003601f168201915b5050505050815260200160038201805461060690612a76565b80601f016020809104026020016040519081016040528092919081815260200182805461063290612a76565b801561067f5780601f106106545761010080835404028352916020019161067f565b820191906000526020600020905b81548152906001019060200180831161066257829003601f168201915b505050505081525050815260200160048201805480602002602001604051908101604052809291908181526020016000905b8282101561093557838290600052602060002090600502016040518060a00160405290816000820180546106e490612a76565b80601f016020809104026020016040519081016040528092919081815260200182805461071090612a76565b801561075d5780601f106107325761010080835404028352916020019161075d565b820191906000526020600020905b81548152906001019060200180831161074057829003601f168201915b5050505050815260200160018201805461077690612a76565b80601f01602080910402602001604051908101604052809291908181526020018280546107a290612a76565b80156107ef5780601f106107c4576101008083540402835291602001916107ef565b820191906000526020600020905b8154815290600101906020018083116107d257829003601f168201915b505050505081526020016002820154815260200160038201805461081290612a76565b80601f016020809104026020016040519081016040528092919081815260200182805461083e90612a76565b801561088b5780601f106108605761010080835404028352916020019161088b565b820191906000526020600020905b81548152906001019060200180831161086e57829003601f168201915b505050505081526020016004820180546108a490612a76565b80601f01602080910402602001604051908101604052809291908181526020018280546108d090612a76565b801561091d5780601f106108f25761010080835404028352916020019161091d565b820191906000526020600020905b81548152906001019060200180831161090057829003601f168201915b505050505081525050815260200190600101906106b1565b5050505081526020016005820160405180604001604052908160008201805480602002602001604051908101604052809291908181526020016000905b82821015610adc57838290600052602060002090600402016040518060800160405290816000820180546109a590612a76565b80601f01602080910402602001604051908101604052809291908181526020018280546109d190612a76565b8015610a1e5780601f106109f357610100808354040283529160200191610a1e565b820191906000526020600020905b815481529060010190602001808311610a0157829003601f168201915b505050505081526020016001820154815260200160028201548152602001600382018054610a4b90612a76565b80601f0160208091040260200160405190810160405280929190818152602001828054610a7790612a76565b8015610ac45780601f10610a9957610100808354040283529160200191610ac4565b820191906000526020600020905b815481529060010190602001808311610aa757829003601f168201915b50505050508152505081526020019060010190610972565b50505050815260200160018201805480602002602001604051908101604052809291908181526020016000905b82821015610c735783829060005260206000209060040201604051806080016040529081600082018054610b3c90612a76565b80601f0160208091040260200160405190810160405280929190818152602001828054610b6890612a76565b8015610bb55780601f10610b8a57610100808354040283529160200191610bb5565b820191906000526020600020905b815481529060010190602001808311610b9857829003601f168201915b505050505081526020016001820154815260200160028201548152602001600382018054610be290612a76565b80601f0160208091040260200160405190810160405280929190818152602001828054610c0e90612a76565b8015610c5b5780601f10610c3057610100808354040283529160200191610c5b565b820191906000526020600020905b815481529060010190602001808311610c3e57829003601f168201915b50505050508152505081526020019060010190610b09565b5050505081525050815250509050806000015181602001518260400151935093509350509193909250565b610ca6611b3b565b610ce5576040517f08c379a0000000000000000000000000000000000000000000000000000000008152600401610cdc906129d4565b60405180910390fd5b6000600283604051610cf79190612a30565b90815260200160405180910390209050806004018290806001815401808255809150506001900390600052602060002090600502016000909190919091506000820151816000019081610d4a9190612c53565b506020820151816001019081610d609190612c53565b50604082015181600201556060820151816003019081610d809190612c53565b506080820151816004019081610d969190612c53565b505050505050565b610da6611b3b565b610de5576040517f08c379a0000000000000000000000000000000000000000000000000000000008152600401610ddc906129d4565b60405180910390fd5b6000600283604051610df79190612a30565b9081526020016040518091039020905081816000016000820151816000019081610e219190612c53565b506020820151816001019081610e379190612c53565b506040820151816002019081610e4d9190612c53565b506060820151816003019081610e639190612c53565b50905050505050565b600080600283604051610e7f9190612a30565b908152602001604051809103902060405180606001604052908160008201604051806080016040529081600082018054610eb890612a76565b80601f0160208091040260200160405190810160405280929190818152602001828054610ee490612a76565b8015610f315780601f10610f0657610100808354040283529160200191610f31565b820191906000526020600020905b815481529060010190602001808311610f1457829003601f168201915b50505050508152602001600182018054610f4a90612a76565b80601f0160208091040260200160405190810160405280929190818152602001828054610f7690612a76565b8015610fc35780601f10610f9857610100808354040283529160200191610fc3565b820191906000526020600020905b815481529060010190602001808311610fa657829003601f168201915b50505050508152602001600282018054610fdc90612a76565b80601f016020809104026020016040519081016040528092919081815260200182805461100890612a76565b80156110555780601f1061102a57610100808354040283529160200191611055565b820191906000526020600020905b81548152906001019060200180831161103857829003601f168201915b5050505050815260200160038201805461106e90612a76565b80601f016020809104026020016040519081016040528092919081815260200182805461109a90612a76565b80156110e75780601f106110bc576101008083540402835291602001916110e7565b820191906000526020600020905b8154815290600101906020018083116110ca57829003601f168201915b505050505081525050815260200160048201805480602002602001604051908101604052809291908181526020016000905b8282101561139d57838290600052602060002090600502016040518060a001604052908160008201805461114c90612a76565b80601f016020809104026020016040519081016040528092919081815260200182805461117890612a76565b80156111c55780601f1061119a576101008083540402835291602001916111c5565b820191906000526020600020905b8154815290600101906020018083116111a857829003601f168201915b505050505081526020016001820180546111de90612a76565b80601f016020809104026020016040519081016040528092919081815260200182805461120a90612a76565b80156112575780601f1061122c57610100808354040283529160200191611257565b820191906000526020600020905b81548152906001019060200180831161123a57829003601f168201915b505050505081526020016002820154815260200160038201805461127a90612a76565b80601f01602080910402602001604051908101604052809291908181526020018280546112a690612a76565b80156112f35780601f106112c8576101008083540402835291602001916112f3565b820191906000526020600020905b8154815290600101906020018083116112d657829003601f168201915b5050505050815260200160048201805461130c90612a76565b80601f016020809104026020016040519081016040528092919081815260200182805461133890612a76565b80156113855780601f1061135a57610100808354040283529160200191611385565b820191906000526020600020905b81548152906001019060200180831161136857829003601f168201915b50505050508152505081526020019060010190611119565b5050505081526020016005820160405180604001604052908160008201805480602002602001604051908101604052809291908181526020016000905b82821015611544578382906000526020600020906004020160405180608001604052908160008201805461140d90612a76565b80601f016020809104026020016040519081016040528092919081815260200182805461143990612a76565b80156114865780601f1061145b57610100808354040283529160200191611486565b820191906000526020600020905b81548152906001019060200180831161146957829003601f168201915b5050505050815260200160018201548152602001600282015481526020016003820180546114b390612a76565b80601f01602080910402602001604051908101604052809291908181526020018280546114df90612a76565b801561152c5780601f106115015761010080835404028352916020019161152c565b820191906000526020600020905b81548152906001019060200180831161150f57829003601f168201915b505050505081525050815260200190600101906113da565b50505050815260200160018201805480602002602001604051908101604052809291908181526020016000905b828210156116db57838290600052602060002090600402016040518060800160405290816000820180546115a490612a76565b80601f01602080910402602001604051908101604052809291908181526020018280546115d090612a76565b801561161d5780601f106115f25761010080835404028352916020019161161d565b820191906000526020600020905b81548152906001019060200180831161160057829003601f168201915b50505050508152602001600182015481526020016002820154815260200160038201805461164a90612a76565b80601f016020809104026020016040519081016040528092919081815260200182805461167690612a76565b80156116c35780601f10611698576101008083540402835291602001916116c3565b820191906000526020600020905b8154815290600101906020018083116116a657829003601f168201915b50505050508152505081526020019060010190611571565b50505050815250508152505090506000816020015190506000826040015160000151905060006207a1208360008151811061171957611718612d25565b5b6020026020010151604001511061173e5760fa816117379190612d83565b90506117b6565b6203d0908360008151811061175657611755612d25565b5b6020026020010151604001511061177b576064816117749190612d83565b90506117b5565b620186a08360008151811061179357611792612d25565b5b602002602001015160400151106117b4576032816117b19190612d83565b90505b5b5b60008060005b84518110156119f1578481815181106117d8576117d7612d25565b5b602002602001015160200151826117ef9190612d83565b91506040518060400160405280600781526020017f6f6e5f74696d65000000000000000000000000000000000000000000000000008152508051906020012085828151811061184157611840612d25565b5b60200260200101516060015180519060200120036118965784818151811061186c5761186b612d25565b5b60200260200101516020015160036118849190612db7565b8361188f9190612d83565b92506119de565b6040518060400160405280600c81526020017f73656d695f64656c617965640000000000000000000000000000000000000000815250805190602001208582815181106118e6576118e5612d25565b5b602002602001015160600151805190602001200361193b5784818151811061191157611910612d25565b5b60200260200101516020015160026119299190612db7565b836119349190612d83565b92506119dd565b6040518060400160405280600781526020017f64656c61796564000000000000000000000000000000000000000000000000008152508051906020012085828151811061198b5761198a612d25565b5b60200260200101516060015180519060200120036119dc578481815181106119b6576119b5612d25565b5b60200260200101516020015160016119ce9190612db7565b836119d99190612d83565b92505b5b5b80806119e990612df9565b9150506117bc565b506000808303611a05576101f49050611a38565b83826003611a139190612db7565b61025885611a219190612db7565b611a2b9190612e70565b611a359190612d83565b90505b80975050505050505050919050565b60008054906101000a900473ffffffffffffffffffffffffffffffffffffffff1673ffffffffffffffffffffffffffffffffffffffff163373ffffffffffffffffffffffffffffffffffffffff1614611ad5576040517f08c379a0000000000000000000000000000000000000000000000000000000008152600401611acc90612f13565b60405180910390fd5b6001819080600181540180825580915050600190039060005260206000200160009091909190916101000a81548173ffffffffffffffffffffffffffffffffffffffff021916908373ffffffffffffffffffffffffffffffffffffffff16021790555050565b600080600090505b600180549050811015611bde573373ffffffffffffffffffffffffffffffffffffffff1660018281548110611b7b57611b7a612d25565b5b9060005260206000200160009054906101000a900473ffffffffffffffffffffffffffffffffffffffff1673ffffffffffffffffffffffffffffffffffffffff1603611bcb576001915050611be4565b8080611bd690612df9565b915050611b43565b50600090505b90565b6040518060800160405280606081526020016060815260200160608152602001606081525090565b604051806040016040528060608152602001606081525090565b6000604051905090565b600080fd5b600080fd5b6000819050919050565b611c5081611c3d565b8114611c5b57600080fd5b50565b600081359050611c6d81611c47565b92915050565b600060208284031215611c8957611c88611c33565b5b6000611c9784828501611c5e565b91505092915050565b600073ffffffffffffffffffffffffffffffffffffffff82169050919050565b6000611ccb82611ca0565b9050919050565b611cdb81611cc0565b82525050565b6000602082019050611cf66000830184611cd2565b92915050565b600080fd5b600080fd5b6000601f19601f8301169050919050565b7f4e487b7100000000000000000000000000000000000000000000000000000000600052604160045260246000fd5b611d4f82611d06565b810181811067ffffffffffffffff82111715611d6e57611d6d611d17565b5b80604052505050565b6000611d81611c29565b9050611d8d8282611d46565b919050565b600067ffffffffffffffff821115611dad57611dac611d17565b5b611db682611d06565b9050602081019050919050565b82818337600083830152505050565b6000611de5611de084611d92565b611d77565b905082815260208101848484011115611e0157611e00611d01565b5b611e0c848285611dc3565b509392505050565b600082601f830112611e2957611e28611cfc565b5b8135611e39848260208601611dd2565b91505092915050565b600080fd5b600080fd5b600060808284031215611e6257611e61611e42565b5b611e6c6080611d77565b9050600082013567ffffffffffffffff811115611e8c57611e8b611e47565b5b611e9884828501611e14565b6000830152506020611eac84828501611c5e565b6020830152506040611ec084828501611c5e565b604083015250606082013567ffffffffffffffff811115611ee457611ee3611e47565b5b611ef084828501611e14565b60608301525092915050565b60008060408385031215611f1357611f12611c33565b5b600083013567ffffffffffffffff811115611f3157611f30611c38565b5b611f3d85828601611e14565b925050602083013567ffffffffffffffff811115611f5e57611f5d611c38565b5b611f6a85828601611e4c565b9150509250929050565b600060808284031215611f8a57611f89611e42565b5b611f946080611d77565b9050600082013567ffffffffffffffff811115611fb457611fb3611e47565b5b611fc084828501611e14565b6000830152506020611fd484828501611c5e565b6020830152506040611fe884828501611c5e565b604083015250606082013567ffffffffffffffff81111561200c5761200b611e47565b5b61201884828501611e14565b60608301525092915050565b6000806040838503121561203b5761203a611c33565b5b600083013567ffffffffffffffff81111561205957612058611c38565b5b61206585828601611e14565b925050602083013567ffffffffffffffff81111561208657612085611c38565b5b61209285828601611f74565b9150509250929050565b6000602082840312156120b2576120b1611c33565b5b600082013567ffffffffffffffff8111156120d0576120cf611c38565b5b6120dc84828501611e14565b91505092915050565b600081519050919050565b600082825260208201905092915050565b60005b8381101561211f578082015181840152602081019050612104565b60008484015250505050565b6000612136826120e5565b61214081856120f0565b9350612150818560208601612101565b61215981611d06565b840191505092915050565b60006080830160008301518482036000860152612181828261212b565b9150506020830151848203602086015261219b828261212b565b915050604083015184820360408601526121b5828261212b565b915050606083015184820360608601526121cf828261212b565b9150508091505092915050565b600081519050919050565b600082825260208201905092915050565b6000819050602082019050919050565b61221181611c3d565b82525050565b600060a0830160008301518482036000860152612234828261212b565b9150506020830151848203602086015261224e828261212b565b91505060408301516122636040860182612208565b506060830151848203606086015261227b828261212b565b91505060808301518482036080860152612295828261212b565b9150508091505092915050565b60006122ae8383612217565b905092915050565b6000602082019050919050565b60006122ce826121dc565b6122d881856121e7565b9350836020820285016122ea856121f8565b8060005b85811015612326578484038952815161230785826122a2565b9450612312836122b6565b925060208a019950506001810190506122ee565b50829750879550505050505092915050565b600081519050919050565b600082825260208201905092915050565b6000819050602082019050919050565b60006080830160008301518482036000860152612381828261212b565b91505060208301516123966020860182612208565b5060408301516123a96040860182612208565b50606083015184820360608601526123c1828261212b565b9150508091505092915050565b60006123da8383612364565b905092915050565b6000602082019050919050565b60006123fa82612338565b6124048185612343565b93508360208202850161241685612354565b8060005b85811015612452578484038952815161243385826123ce565b945061243e836123e2565b925060208a0199505060018101905061241a565b50829750879550505050505092915050565b600081519050919050565b600082825260208201905092915050565b6000819050602082019050919050565b600060808301600083015184820360008601526124ad828261212b565b91505060208301516124c26020860182612208565b5060408301516124d56040860182612208565b50606083015184820360608601526124ed828261212b565b9150508091505092915050565b60006125068383612490565b905092915050565b6000602082019050919050565b600061252682612464565b612530818561246f565b93508360208202850161254285612480565b8060005b8581101561257e578484038952815161255f85826124fa565b945061256a8361250e565b925060208a01995050600181019050612546565b50829750879550505050505092915050565b600060408301600083015184820360008601526125ad82826123ef565b915050602083015184820360208601526125c7828261251b565b9150508091505092915050565b600060608201905081810360008301526125ee8186612164565b9050818103602083015261260281856122c3565b905081810360408301526126168184612590565b9050949350505050565b600060a0828403121561263657612635611e42565b5b61264060a0611d77565b9050600082013567ffffffffffffffff8111156126605761265f611e47565b5b61266c84828501611e14565b600083015250602082013567ffffffffffffffff8111156126905761268f611e47565b5b61269c84828501611e14565b60208301525060406126b084828501611c5e565b604083015250606082013567ffffffffffffffff8111156126d4576126d3611e47565b5b6126e084828501611e14565b606083015250608082013567ffffffffffffffff81111561270457612703611e47565b5b61271084828501611e14565b60808301525092915050565b6000806040838503121561273357612732611c33565b5b600083013567ffffffffffffffff81111561275157612750611c38565b5b61275d85828601611e14565b925050602083013567ffffffffffffffff81111561277e5761277d611c38565b5b61278a85828601612620565b9150509250929050565b6000608082840312156127aa576127a9611e42565b5b6127b46080611d77565b9050600082013567ffffffffffffffff8111156127d4576127d3611e47565b5b6127e084828501611e14565b600083015250602082013567ffffffffffffffff81111561280457612803611e47565b5b61281084828501611e14565b602083015250604082013567ffffffffffffffff81111561283457612833611e47565b5b61284084828501611e14565b604083015250606082013567ffffffffffffffff81111561286457612863611e47565b5b61287084828501611e14565b60608301525092915050565b6000806040838503121561289357612892611c33565b5b600083013567ffffffffffffffff8111156128b1576128b0611c38565b5b6128bd85828601611e14565b925050602083013567ffffffffffffffff8111156128de576128dd611c38565b5b6128ea85828601612794565b9150509250929050565b6128fd81611c3d565b82525050565b600060208201905061291860008301846128f4565b92915050565b61292781611cc0565b811461293257600080fd5b50565b6000813590506129448161291e565b92915050565b6000602082840312156129605761295f611c33565b5b600061296e84828501612935565b91505092915050565b600082825260208201905092915050565b7f43616c6c6572206973206e6f7420616e206175686f72697a6564000000000000600082015250565b60006129be601a83612977565b91506129c982612988565b602082019050919050565b600060208201905081810360008301526129ed816129b1565b9050919050565b600081905092915050565b6000612a0a826120e5565b612a1481856129f4565b9350612a24818560208601612101565b80840191505092915050565b6000612a3c82846129ff565b915081905092915050565b7f4e487b7100000000000000000000000000000000000000000000000000000000600052602260045260246000fd5b60006002820490506001821680612a8e57607f821691505b602082108103612aa157612aa0612a47565b5b50919050565b60008190508160005260206000209050919050565b60006020601f8301049050919050565b600082821b905092915050565b600060088302612b097fffffffffffffffffffffffffffffffffffffffffffffffffffffffffffffffff82612acc565b612b138683612acc565b95508019841693508086168417925050509392505050565b6000819050919050565b6000612b50612b4b612b4684611c3d565b612b2b565b611c3d565b9050919050565b6000819050919050565b612b6a83612b35565b612b7e612b7682612b57565b848454612ad9565b825550505050565b600090565b612b93612b86565b612b9e818484612b61565b505050565b5b81811015612bc257612bb7600082612b8b565b600181019050612ba4565b5050565b601f821115612c0757612bd881612aa7565b612be184612abc565b81016020851015612bf0578190505b612c04612bfc85612abc565b830182612ba3565b50505b505050565b600082821c905092915050565b6000612c2a60001984600802612c0c565b1980831691505092915050565b6000612c438383612c19565b9150826002028217905092915050565b612c5c826120e5565b67ffffffffffffffff811115612c7557612c74611d17565b5b612c7f8254612a76565b612c8a828285612bc6565b600060209050601f831160018114612cbd5760008415612cab578287015190505b612cb58582612c37565b865550612d1d565b601f198416612ccb86612aa7565b60005b82811015612cf357848901518255600182019150602085019450602081019050612cce565b86831015612d105784890151612d0c601f891682612c19565b8355505b6001600288020188555050505b505050505050565b7f4e487b7100000000000000000000000000000000000000000000000000000000600052603260045260246000fd5b7f4e487b7100000000000000000000000000000000000000000000000000000000600052601160045260246000fd5b6000612d8e82611c3d565b9150612d9983611c3d565b9250828201905080821115612db157612db0612d54565b5b92915050565b6000612dc282611c3d565b9150612dcd83611c3d565b9250828202612ddb81611c3d565b91508282048414831517612df257612df1612d54565b5b5092915050565b6000612e0482611c3d565b91507fffffffffffffffffffffffffffffffffffffffffffffffffffffffffffffffff8203612e3657612e35612d54565b5b600182019050919050565b7f4e487b7100000000000000000000000000000000000000000000000000000000600052601260045260246000fd5b6000612e7b82611c3d565b9150612e8683611c3d565b925082612e9657612e95612e41565b5b828204905092915050565b7f4f6e6c792074686520636f6e7472616374206f776e65722063616e206163636560008201527f737320746869732066756e6374696f6e2e000000000000000000000000000000602082015250565b6000612efd603183612977565b9150612f0882612ea1565b604082019050919050565b60006020820190508181036000830152612f2c81612ef0565b905091905056fea2646970667358221220ab7e47976e551052db8a9d13eb9b37089b87e110d523f2f1a48baab26f47045d64736f6c63430008110033",
  "linkReferences": {},
  "deployedLinkReferences": {}
}