{
  "_format": "hh-sol-artifact-1",
  "contractName": "ThreeBank",
  "sourceName": "contracts/ThreeBank.sol",
  "abi": [
    {
      "inputs": [
        {
          "internalType": "address",
          "name": "contractAddress",
          "type": "address"
        }
      ],
      "stateMutability": "nonpayable",
      "type": "constructor"
    },
    {
      "inputs": [
        {
          "internalType": "string",
          "name": "panNumber",
          "type": "string"
        }
      ],
      "name": "approveLoan",
      "outputs": [
        {
          "internalType": "string",
          "name": "",
          "type": "string"
        }
      ],
      "stateMutability": "view",
      "type": "function"
    },
    {
      "inputs": [
        {
          "internalType": "string",
          "name": "",
          "type": "string"
        }
      ],
      "name": "balance",
      "outputs": [
        {
          "internalType": "uint256",
          "name": "",
          "type": "uint256"
        }
      ],
      "stateMutability": "view",
      "type": "function"
    },
    {
      "inputs": [
        {
          "internalType": "string",
          "name": "panNumber",
          "type": "string"
        }
      ],
      "name": "deposit",
      "outputs": [],
      "stateMutability": "payable",
      "type": "function"
    },
    {
      "inputs": [
        {
          "components": [
            {
              "internalType": "string",
              "name": "name",
              "type": "string"
            },
            {
              "internalType": "string",
              "name": "dateOfBirth",
              "type": "string"
            },
            {
              "internalType": "string",
              "name": "gender",
              "type": "string"
            },
            {
              "internalType": "string",
              "name": "panNumber",
              "type": "string"
            }
          ],
          "internalType": "struct ThreeBank.PersonalInformation",
          "name": "personalInformation",
          "type": "tuple"
        },
        {
          "internalType": "string",
          "name": "panNumber",
          "type": "string"
        }
      ],
      "name": "enroll",
      "outputs": [],
      "stateMutability": "nonpayable",
      "type": "function"
    },
    {
      "inputs": [
        {
          "internalType": "string",
          "name": "",
          "type": "string"
        }
      ],
      "name": "enrolled",
      "outputs": [
        {
          "internalType": "bool",
          "name": "",
          "type": "bool"
        }
      ],
      "stateMutability": "view",
      "type": "function"
    },
    {
      "inputs": [
        {
          "internalType": "string",
          "name": "panNumber",
          "type": "string"
        }
      ],
      "name": "getBalance",
      "outputs": [
        {
          "internalType": "uint256",
          "name": "",
          "type": "uint256"
        }
      ],
      "stateMutability": "view",
      "type": "function"
    },
    {
      "inputs": [
        {
          "internalType": "string",
          "name": "",
          "type": "string"
        }
      ],
      "name": "loans",
      "outputs": [
        {
          "internalType": "string",
          "name": "loanType",
          "type": "string"
        },
        {
          "internalType": "uint256",
          "name": "loanAmount",
          "type": "uint256"
        },
        {
          "internalType": "uint256",
          "name": "loanTenure",
          "type": "uint256"
        },
        {
          "internalType": "string",
          "name": "repaymentStatus",
          "type": "string"
        }
      ],
      "stateMutability": "view",
      "type": "function"
    },
    {
      "inputs": [
        {
          "internalType": "string",
          "name": "panNumber",
          "type": "string"
        },
        {
          "internalType": "uint256",
          "name": "amount",
          "type": "uint256"
        }
      ],
      "name": "makeLoanPayment",
      "outputs": [],
      "stateMutability": "nonpayable",
      "type": "function"
    },
    {
      "inputs": [
        {
          "internalType": "string",
          "name": "panNumber",
          "type": "string"
        },
        {
          "components": [
            {
              "internalType": "string",
              "name": "loanType",
              "type": "string"
            },
            {
              "internalType": "uint256",
              "name": "loanAmount",
              "type": "uint256"
            },
            {
              "internalType": "uint256",
              "name": "loanTenure",
              "type": "uint256"
            },
            {
              "internalType": "string",
              "name": "repaymentStatus",
              "type": "string"
            }
          ],
          "internalType": "struct Loan",
          "name": "loanDeets",
          "type": "tuple"
        }
      ],
      "name": "requestLoan",
      "outputs": [],
      "stateMutability": "nonpayable",
      "type": "function"
    },
    {
      "inputs": [
        {
          "internalType": "uint256",
          "name": "amount",
          "type": "uint256"
        },
        {
          "internalType": "string",
          "name": "panNumber",
          "type": "string"
        }
      ],
      "name": "withdraw",
      "outputs": [],
      "stateMutability": "nonpayable",
      "type": "function"
    }
  ],
  "bytecode": "0x60806040526101f46004556107d060055560006006553480156200002257600080fd5b5060405162001ad738038062001ad78339818101604052810190620000489190620000fa565b80600760006101000a81548173ffffffffffffffffffffffffffffffffffffffff021916908373ffffffffffffffffffffffffffffffffffffffff160217905550506200012c565b600080fd5b600073ffffffffffffffffffffffffffffffffffffffff82169050919050565b6000620000c28262000095565b9050919050565b620000d481620000b5565b8114620000e057600080fd5b50565b600081519050620000f481620000c9565b92915050565b60006020828403121562000113576200011262000090565b5b60006200012384828501620000e3565b91505092915050565b61199b806200013c6000396000f3fe6080604052600436106100915760003560e01c806396acc78e1161005957806396acc78e1461019f578063a26e1186146101dc578063a3f60000146101f8578063c6141f6314610221578063dc048cf21461026157610091565b8063082aa974146100965780631473f83c146100bf5780631f0485d1146100e85780633a51d246146101255780633d80b53214610162575b600080fd5b3480156100a257600080fd5b506100bd60048036038101906100b89190610f7e565b61028a565b005b3480156100cb57600080fd5b506100e660048036038101906100e19190610ff6565b610396565b005b3480156100f457600080fd5b5061010f600480360381019061010a9190611052565b6105bb565b60405161011c919061111a565b60405180910390f35b34801561013157600080fd5b5061014c60048036038101906101479190611052565b610762565b604051610159919061114b565b60405180910390f35b34801561016e57600080fd5b5061018960048036038101906101849190611052565b6107f7565b604051610196919061114b565b60405180910390f35b3480156101ab57600080fd5b506101c660048036038101906101c19190611052565b610825565b6040516101d39190611181565b60405180910390f35b6101f660048036038101906101f19190611052565b61085b565b005b34801561020457600080fd5b5061021f600480360381019061021a9190611284565b610919565b005b34801561022d57600080fd5b5061024860048036038101906102439190611052565b6109ce565b60405161025894939291906112fc565b60405180910390f35b34801561026d57600080fd5b506102886004803603810190610283919061134f565b610b24565b005b8160028160405161029b91906113e7565b908152602001604051809103902060009054906101000a900460ff166102f6576040517f08c379a00000000000000000000000000000000000000000000000000000000081526004016102ed9061144a565b60405180910390fd5b816020015160018460405161030b91906113e7565b908152602001604051809103902060008282546103289190611499565b925050819055508160038460405161034091906113e7565b9081526020016040518091039020600082015181600001908161036391906116d9565b506020820151816001015560408201518160020155606082015181600301908161038d91906116d9565b50905050505050565b816002816040516103a791906113e7565b908152602001604051809103902060009054906101000a900460ff16610402576040517f08c379a00000000000000000000000000000000000000000000000000000000081526004016103f99061144a565b60405180910390fd5b61042c60038460405161041591906113e7565b908152602001604051809103902060010154610c72565b8160018460405161043d91906113e7565b908152602001604051809103902054101561048d576040517f08c379a0000000000000000000000000000000000000000000000000000000008152600401610484906117f7565b60405180910390fd5b600082116104d0576040517f08c379a00000000000000000000000000000000000000000000000000000000081526004016104c790611863565b60405180910390fd5b6003836040516104e091906113e7565b90815260200160405180910390206001015482106105485760038360405161050891906113e7565b9081526020016040518091039020600101549150600060038460405161052e91906113e7565b908152602001604051809103902060010181905550610581565b8160038460405161055991906113e7565b908152602001604051809103902060010160008282546105799190611883565b925050819055505b8160018460405161059291906113e7565b908152602001604051809103902060008282546105af9190611883565b92505081905550505050565b6060816002816040516105ce91906113e7565b908152602001604051809103902060009054906101000a900460ff16610629576040517f08c379a00000000000000000000000000000000000000000000000000000000081526004016106209061144a565b60405180910390fd5b6000604051806020016040528060008152509050600760009054906101000a900473ffffffffffffffffffffffffffffffffffffffff1673ffffffffffffffffffffffffffffffffffffffff1663a7be0e34856040518263ffffffff1660e01b8152600401610698919061111a565b602060405180830381865afa1580156106b5573d6000803e3d6000fd5b505050506040513d601f19601f820116820180604052508101906106d991906118cc565b600454111561071f576040518060400160405280601c81526020017f637265646974206372697465726961206e6f74207361746966696564000000008152509050610758565b6040518060400160405280600881526020017f617070726f76656400000000000000000000000000000000000000000000000081525090505b8092505050919050565b60008160028160405161077591906113e7565b908152602001604051809103902060009054906101000a900460ff166107d0576040517f08c379a00000000000000000000000000000000000000000000000000000000081526004016107c79061144a565b60405180910390fd5b6001836040516107e091906113e7565b908152602001604051809103902054915050919050565b6001818051602081018201805184825260208301602085012081835280955050505050506000915090505481565b6002818051602081018201805184825260208301602085012081835280955050505050506000915054906101000a900460ff1681565b8060028160405161086c91906113e7565b908152602001604051809103902060009054906101000a900460ff166108c7576040517f08c379a00000000000000000000000000000000000000000000000000000000081526004016108be9061144a565b60405180910390fd5b346001836040516108d891906113e7565b908152602001604051809103902060008282546108f59190611499565b92505081905550346006600082825461090e9190611499565b925050819055505050565b600160028260405161092b91906113e7565b908152602001604051809103902060006101000a81548160ff0219169083151502179055508160008260405161096191906113e7565b9081526020016040518091039020600082015181600001908161098491906116d9565b50602082015181600101908161099a91906116d9565b5060408201518160020190816109b091906116d9565b5060608201518160030190816109c691906116d9565b509050505050565b600381805160208101820180518482526020830160208501208183528095505050505050600091509050806000018054610a07906114fc565b80601f0160208091040260200160405190810160405280929190818152602001828054610a33906114fc565b8015610a805780601f10610a5557610100808354040283529160200191610a80565b820191906000526020600020905b815481529060010190602001808311610a6357829003601f168201915b505050505090806001015490806002015490806003018054610aa1906114fc565b80601f0160208091040260200160405190810160405280929190818152602001828054610acd906114fc565b8015610b1a5780601f10610aef57610100808354040283529160200191610b1a565b820191906000526020600020905b815481529060010190602001808311610afd57829003601f168201915b5050505050905084565b80600281604051610b3591906113e7565b908152602001604051809103902060009054906101000a900460ff16610b90576040517f08c379a0000000000000000000000000000000000000000000000000000000008152600401610b879061144a565b60405180910390fd5b82600183604051610ba191906113e7565b9081526020016040518091039020541015610bf1576040517f08c379a0000000000000000000000000000000000000000000000000000000008152600401610be890611945565b60405180910390fd5b82600183604051610c0291906113e7565b90815260200160405180910390206000828254610c1f9190611883565b925050819055503373ffffffffffffffffffffffffffffffffffffffff166108fc849081150290604051600060405180830381858888f19350505050158015610c6c573d6000803e3d6000fd5b50505050565b610d0881604051602401610c86919061114b565b6040516020818303038152906040527ff82c50f1000000000000000000000000000000000000000000000000000000007bffffffffffffffffffffffffffffffffffffffffffffffffffffffff19166020820180517bffffffffffffffffffffffffffffffffffffffffffffffffffffffff8381831617835250505050610d0b565b50565b60008151905060006a636f6e736f6c652e6c6f679050602083016000808483855afa5050505050565b6000604051905090565b600080fd5b600080fd5b600080fd5b600080fd5b6000601f19601f8301169050919050565b7f4e487b7100000000000000000000000000000000000000000000000000000000600052604160045260246000fd5b610d9b82610d52565b810181811067ffffffffffffffff82111715610dba57610db9610d63565b5b80604052505050565b6000610dcd610d34565b9050610dd98282610d92565b919050565b600067ffffffffffffffff821115610df957610df8610d63565b5b610e0282610d52565b9050602081019050919050565b82818337600083830152505050565b6000610e31610e2c84610dde565b610dc3565b905082815260208101848484011115610e4d57610e4c610d4d565b5b610e58848285610e0f565b509392505050565b600082601f830112610e7557610e74610d48565b5b8135610e85848260208601610e1e565b91505092915050565b600080fd5b600080fd5b6000819050919050565b610eab81610e98565b8114610eb657600080fd5b50565b600081359050610ec881610ea2565b92915050565b600060808284031215610ee457610ee3610e8e565b5b610eee6080610dc3565b9050600082013567ffffffffffffffff811115610f0e57610f0d610e93565b5b610f1a84828501610e60565b6000830152506020610f2e84828501610eb9565b6020830152506040610f4284828501610eb9565b604083015250606082013567ffffffffffffffff811115610f6657610f65610e93565b5b610f7284828501610e60565b60608301525092915050565b60008060408385031215610f9557610f94610d3e565b5b600083013567ffffffffffffffff811115610fb357610fb2610d43565b5b610fbf85828601610e60565b925050602083013567ffffffffffffffff811115610fe057610fdf610d43565b5b610fec85828601610ece565b9150509250929050565b6000806040838503121561100d5761100c610d3e565b5b600083013567ffffffffffffffff81111561102b5761102a610d43565b5b61103785828601610e60565b925050602061104885828601610eb9565b9150509250929050565b60006020828403121561106857611067610d3e565b5b600082013567ffffffffffffffff81111561108657611085610d43565b5b61109284828501610e60565b91505092915050565b600081519050919050565b600082825260208201905092915050565b60005b838110156110d55780820151818401526020810190506110ba565b60008484015250505050565b60006110ec8261109b565b6110f681856110a6565b93506111068185602086016110b7565b61110f81610d52565b840191505092915050565b6000602082019050818103600083015261113481846110e1565b905092915050565b61114581610e98565b82525050565b6000602082019050611160600083018461113c565b92915050565b60008115159050919050565b61117b81611166565b82525050565b60006020820190506111966000830184611172565b92915050565b6000608082840312156111b2576111b1610e8e565b5b6111bc6080610dc3565b9050600082013567ffffffffffffffff8111156111dc576111db610e93565b5b6111e884828501610e60565b600083015250602082013567ffffffffffffffff81111561120c5761120b610e93565b5b61121884828501610e60565b602083015250604082013567ffffffffffffffff81111561123c5761123b610e93565b5b61124884828501610e60565b604083015250606082013567ffffffffffffffff81111561126c5761126b610e93565b5b61127884828501610e60565b60608301525092915050565b6000806040838503121561129b5761129a610d3e565b5b600083013567ffffffffffffffff8111156112b9576112b8610d43565b5b6112c58582860161119c565b925050602083013567ffffffffffffffff8111156112e6576112e5610d43565b5b6112f285828601610e60565b9150509250929050565b6000608082019050818103600083015261131681876110e1565b9050611325602083018661113c565b611332604083018561113c565b818103606083015261134481846110e1565b905095945050505050565b6000806040838503121561136657611365610d3e565b5b600061137485828601610eb9565b925050602083013567ffffffffffffffff81111561139557611394610d43565b5b6113a185828601610e60565b9150509250929050565b600081905092915050565b60006113c18261109b565b6113cb81856113ab565b93506113db8185602086016110b7565b80840191505092915050565b60006113f382846113b6565b915081905092915050565b7f55736572206e6f7420656e726f6c6c6564000000000000000000000000000000600082015250565b60006114346011836110a6565b915061143f826113fe565b602082019050919050565b6000602082019050818103600083015261146381611427565b9050919050565b7f4e487b7100000000000000000000000000000000000000000000000000000000600052601160045260246000fd5b60006114a482610e98565b91506114af83610e98565b92508282019050808211156114c7576114c661146a565b5b92915050565b7f4e487b7100000000000000000000000000000000000000000000000000000000600052602260045260246000fd5b6000600282049050600182168061151457607f821691505b602082108103611527576115266114cd565b5b50919050565b60008190508160005260206000209050919050565b60006020601f8301049050919050565b600082821b905092915050565b60006008830261158f7fffffffffffffffffffffffffffffffffffffffffffffffffffffffffffffffff82611552565b6115998683611552565b95508019841693508086168417925050509392505050565b6000819050919050565b60006115d66115d16115cc84610e98565b6115b1565b610e98565b9050919050565b6000819050919050565b6115f0836115bb565b6116046115fc826115dd565b84845461155f565b825550505050565b600090565b61161961160c565b6116248184846115e7565b505050565b5b818110156116485761163d600082611611565b60018101905061162a565b5050565b601f82111561168d5761165e8161152d565b61166784611542565b81016020851015611676578190505b61168a61168285611542565b830182611629565b50505b505050565b600082821c905092915050565b60006116b060001984600802611692565b1980831691505092915050565b60006116c9838361169f565b9150826002028217905092915050565b6116e28261109b565b67ffffffffffffffff8111156116fb576116fa610d63565b5b61170582546114fc565b61171082828561164c565b600060209050601f8311600181146117435760008415611731578287015190505b61173b85826116bd565b8655506117a3565b601f1984166117518661152d565b60005b8281101561177957848901518255600182019150602085019450602081019050611754565b868310156117965784890151611792601f89168261169f565b8355505b6001600288020188555050505b505050505050565b7f596f7520646f6e7420686176652074686174206d756368206d6f6e6579000000600082015250565b60006117e1601d836110a6565b91506117ec826117ab565b602082019050919050565b60006020820190508181036000830152611810816117d4565b9050919050565b7f5061796d656e742073686f756c6420626520706f736974697665000000000000600082015250565b600061184d601a836110a6565b915061185882611817565b602082019050919050565b6000602082019050818103600083015261187c81611840565b9050919050565b600061188e82610e98565b915061189983610e98565b92508282039050818111156118b1576118b061146a565b5b92915050565b6000815190506118c681610ea2565b92915050565b6000602082840312156118e2576118e1610d3e565b5b60006118f0848285016118b7565b91505092915050565b7f496e73756666696369656e742042616c616e6365000000000000000000000000600082015250565b600061192f6014836110a6565b915061193a826118f9565b602082019050919050565b6000602082019050818103600083015261195e81611922565b905091905056fea264697066735822122043aa2c47545404db85d78a7467f1b68f1a1bb2959ff3236a89f0ea78b94cde3e64736f6c63430008110033",
  "linkReferences": {},
  "deployedLinkReferences": {}
}