{
  "_format": "hh-sol-artifact-1",
  "contractName": "ThreeBank",
  "sourceName": "contracts/ThreeBank.sol",
  "abi": [
    {
      "inputs": [
        {
          "internalType": "address",
          "name": "contractAddress",
          "type": "address"
        }
      ],
      "stateMutability": "nonpayable",
      "type": "constructor"
    },
    {
      "inputs": [
        {
          "internalType": "string",
          "name": "panNumber",
          "type": "string"
        }
      ],
      "name": "approveLoan",
      "outputs": [
        {
          "internalType": "string",
          "name": "",
          "type": "string"
        }
      ],
      "stateMutability": "view",
      "type": "function"
    },
    {
      "inputs": [
        {
          "internalType": "string",
          "name": "",
          "type": "string"
        }
      ],
      "name": "balance",
      "outputs": [
        {
          "internalType": "uint256",
          "name": "",
          "type": "uint256"
        }
      ],
      "stateMutability": "view",
      "type": "function"
    },
    {
      "inputs": [
        {
          "internalType": "string",
          "name": "panNumber",
          "type": "string"
        }
      ],
      "name": "deposit",
      "outputs": [],
      "stateMutability": "payable",
      "type": "function"
    },
    {
      "inputs": [
        {
          "components": [
            {
              "internalType": "string",
              "name": "name",
              "type": "string"
            },
            {
              "internalType": "string",
              "name": "dateOfBirth",
              "type": "string"
            },
            {
              "internalType": "string",
              "name": "gender",
              "type": "string"
            },
            {
              "internalType": "string",
              "name": "panNumber",
              "type": "string"
            }
          ],
          "internalType": "struct PersonalInformation",
          "name": "personalInformation",
          "type": "tuple"
        },
        {
          "internalType": "string",
          "name": "panNumber",
          "type": "string"
        },
        {
          "components": [
            {
              "internalType": "string",
              "name": "employerName",
              "type": "string"
            },
            {
              "internalType": "string",
              "name": "occupation",
              "type": "string"
            },
            {
              "internalType": "uint256",
              "name": "incomePerYear",
              "type": "uint256"
            },
            {
              "internalType": "string",
              "name": "startTime",
              "type": "string"
            },
            {
              "internalType": "string",
              "name": "endTime",
              "type": "string"
            }
          ],
          "internalType": "struct EmploymentInformation",
          "name": "employmentInformation",
          "type": "tuple"
        }
      ],
      "name": "enroll",
      "outputs": [],
      "stateMutability": "nonpayable",
      "type": "function"
    },
    {
      "inputs": [
        {
          "internalType": "string",
          "name": "",
          "type": "string"
        }
      ],
      "name": "enrolled",
      "outputs": [
        {
          "internalType": "bool",
          "name": "",
          "type": "bool"
        }
      ],
      "stateMutability": "view",
      "type": "function"
    },
    {
      "inputs": [
        {
          "internalType": "string",
          "name": "panNumber",
          "type": "string"
        }
      ],
      "name": "getBalance",
      "outputs": [
        {
          "internalType": "uint256",
          "name": "",
          "type": "uint256"
        }
      ],
      "stateMutability": "view",
      "type": "function"
    },
    {
      "inputs": [
        {
          "internalType": "string",
          "name": "",
          "type": "string"
        }
      ],
      "name": "loans",
      "outputs": [
        {
          "internalType": "string",
          "name": "loanType",
          "type": "string"
        },
        {
          "internalType": "uint256",
          "name": "loanAmount",
          "type": "uint256"
        },
        {
          "internalType": "uint256",
          "name": "loanTenure",
          "type": "uint256"
        },
        {
          "internalType": "string",
          "name": "repaymentStatus",
          "type": "string"
        }
      ],
      "stateMutability": "view",
      "type": "function"
    },
    {
      "inputs": [
        {
          "internalType": "string",
          "name": "panNumber",
          "type": "string"
        },
        {
          "internalType": "uint256",
          "name": "amount",
          "type": "uint256"
        }
      ],
      "name": "makeLoanPayment",
      "outputs": [],
      "stateMutability": "nonpayable",
      "type": "function"
    },
    {
      "inputs": [
        {
          "internalType": "string",
          "name": "panNumber",
          "type": "string"
        },
        {
          "components": [
            {
              "internalType": "string",
              "name": "loanType",
              "type": "string"
            },
            {
              "internalType": "uint256",
              "name": "loanAmount",
              "type": "uint256"
            },
            {
              "internalType": "uint256",
              "name": "loanTenure",
              "type": "uint256"
            },
            {
              "internalType": "string",
              "name": "repaymentStatus",
              "type": "string"
            }
          ],
          "internalType": "struct Loan",
          "name": "loanDeets",
          "type": "tuple"
        }
      ],
      "name": "requestLoan",
      "outputs": [],
      "stateMutability": "nonpayable",
      "type": "function"
    },
    {
      "inputs": [
        {
          "internalType": "uint256",
          "name": "amount",
          "type": "uint256"
        },
        {
          "internalType": "string",
          "name": "panNumber",
          "type": "string"
        }
      ],
      "name": "withdraw",
      "outputs": [],
      "stateMutability": "nonpayable",
      "type": "function"
    }
  ],
  "bytecode": "0x60806040526101f46004556107d060055560006006553480156200002257600080fd5b5060405162001eeb38038062001eeb8339818101604052810190620000489190620000fa565b80600760006101000a81548173ffffffffffffffffffffffffffffffffffffffff021916908373ffffffffffffffffffffffffffffffffffffffff160217905550506200012c565b600080fd5b600073ffffffffffffffffffffffffffffffffffffffff82169050919050565b6000620000c28262000095565b9050919050565b620000d481620000b5565b8114620000e057600080fd5b50565b600081519050620000f481620000c9565b92915050565b60006020828403121562000113576200011262000090565b5b60006200012384828501620000e3565b91505092915050565b611daf806200013c6000396000f3fe6080604052600436106100915760003560e01c806396acc78e1161005957806396acc78e1461019f578063a26e1186146101dc578063c6141f63146101f8578063dc048cf214610238578063e23d930b1461026157610091565b8063082aa974146100965780631473f83c146100bf5780631f0485d1146100e85780633a51d246146101255780633d80b53214610162575b600080fd5b3480156100a257600080fd5b506100bd60048036038101906100b8919061109d565b61028a565b005b3480156100cb57600080fd5b506100e660048036038101906100e19190611115565b610396565b005b3480156100f457600080fd5b5061010f600480360381019061010a9190611171565b6105bb565b60405161011c9190611239565b60405180910390f35b34801561013157600080fd5b5061014c60048036038101906101479190611171565b610762565b604051610159919061126a565b60405180910390f35b34801561016e57600080fd5b5061018960048036038101906101849190611171565b6107f7565b604051610196919061126a565b60405180910390f35b3480156101ab57600080fd5b506101c660048036038101906101c19190611171565b610825565b6040516101d391906112a0565b60405180910390f35b6101f660048036038101906101f19190611171565b61085b565b005b34801561020457600080fd5b5061021f600480360381019061021a9190611171565b610919565b60405161022f94939291906112bb565b60405180910390f35b34801561024457600080fd5b5061025f600480360381019061025a919061130e565b610a6f565b005b34801561026d57600080fd5b506102886004803603810190610283919061154e565b610bbd565b005b8160028160405161029b9190611631565b908152602001604051809103902060009054906101000a900460ff166102f6576040517f08c379a00000000000000000000000000000000000000000000000000000000081526004016102ed90611694565b60405180910390fd5b816020015160018460405161030b9190611631565b9081526020016040518091039020600082825461032891906116e3565b92505081905550816003846040516103409190611631565b908152602001604051809103902060008201518160000190816103639190611923565b506020820151816001015560408201518160020155606082015181600301908161038d9190611923565b50905050505050565b816002816040516103a79190611631565b908152602001604051809103902060009054906101000a900460ff16610402576040517f08c379a00000000000000000000000000000000000000000000000000000000081526004016103f990611694565b60405180910390fd5b61042c6003846040516104159190611631565b908152602001604051809103902060010154610d91565b8160018460405161043d9190611631565b908152602001604051809103902054101561048d576040517f08c379a000000000000000000000000000000000000000000000000000000000815260040161048490611a41565b60405180910390fd5b600082116104d0576040517f08c379a00000000000000000000000000000000000000000000000000000000081526004016104c790611aad565b60405180910390fd5b6003836040516104e09190611631565b9081526020016040518091039020600101548210610548576003836040516105089190611631565b9081526020016040518091039020600101549150600060038460405161052e9190611631565b908152602001604051809103902060010181905550610581565b816003846040516105599190611631565b908152602001604051809103902060010160008282546105799190611acd565b925050819055505b816001846040516105929190611631565b908152602001604051809103902060008282546105af9190611acd565b92505081905550505050565b6060816002816040516105ce9190611631565b908152602001604051809103902060009054906101000a900460ff16610629576040517f08c379a000000000000000000000000000000000000000000000000000000000815260040161062090611694565b60405180910390fd5b6000604051806020016040528060008152509050600760009054906101000a900473ffffffffffffffffffffffffffffffffffffffff1673ffffffffffffffffffffffffffffffffffffffff1663a7be0e34856040518263ffffffff1660e01b81526004016106989190611239565b602060405180830381865afa1580156106b5573d6000803e3d6000fd5b505050506040513d601f19601f820116820180604052508101906106d99190611b16565b600454111561071f576040518060400160405280601c81526020017f637265646974206372697465726961206e6f74207361746966696564000000008152509050610758565b6040518060400160405280600881526020017f617070726f76656400000000000000000000000000000000000000000000000081525090505b8092505050919050565b6000816002816040516107759190611631565b908152602001604051809103902060009054906101000a900460ff166107d0576040517f08c379a00000000000000000000000000000000000000000000000000000000081526004016107c790611694565b60405180910390fd5b6001836040516107e09190611631565b908152602001604051809103902054915050919050565b6001818051602081018201805184825260208301602085012081835280955050505050506000915090505481565b6002818051602081018201805184825260208301602085012081835280955050505050506000915054906101000a900460ff1681565b8060028160405161086c9190611631565b908152602001604051809103902060009054906101000a900460ff166108c7576040517f08c379a00000000000000000000000000000000000000000000000000000000081526004016108be90611694565b60405180910390fd5b346001836040516108d89190611631565b908152602001604051809103902060008282546108f591906116e3565b92505081905550346006600082825461090e91906116e3565b925050819055505050565b60038180516020810182018051848252602083016020850120818352809550505050505060009150905080600001805461095290611746565b80601f016020809104026020016040519081016040528092919081815260200182805461097e90611746565b80156109cb5780601f106109a0576101008083540402835291602001916109cb565b820191906000526020600020905b8154815290600101906020018083116109ae57829003601f168201915b5050505050908060010154908060020154908060030180546109ec90611746565b80601f0160208091040260200160405190810160405280929190818152602001828054610a1890611746565b8015610a655780601f10610a3a57610100808354040283529160200191610a65565b820191906000526020600020905b815481529060010190602001808311610a4857829003601f168201915b5050505050905084565b80600281604051610a809190611631565b908152602001604051809103902060009054906101000a900460ff16610adb576040517f08c379a0000000000000000000000000000000000000000000000000000000008152600401610ad290611694565b60405180910390fd5b82600183604051610aec9190611631565b9081526020016040518091039020541015610b3c576040517f08c379a0000000000000000000000000000000000000000000000000000000008152600401610b3390611b8f565b60405180910390fd5b82600183604051610b4d9190611631565b90815260200160405180910390206000828254610b6a9190611acd565b925050819055503373ffffffffffffffffffffffffffffffffffffffff166108fc849081150290604051600060405180830381858888f19350505050158015610bb7573d6000803e3d6000fd5b50505050565b6001600283604051610bcf9190611631565b908152602001604051809103902060006101000a81548160ff02191690831515021790555082600083604051610c059190611631565b90815260200160405180910390206000820151816000019081610c289190611923565b506020820151816001019081610c3e9190611923565b506040820151816002019081610c549190611923565b506060820151816003019081610c6a9190611923565b50905050600760009054906101000a900473ffffffffffffffffffffffffffffffffffffffff1673ffffffffffffffffffffffffffffffffffffffff1663863c60d983856040518363ffffffff1660e01b8152600401610ccb929190611c71565b600060405180830381600087803b158015610ce557600080fd5b505af1158015610cf9573d6000803e3d6000fd5b50505050600760009054906101000a900473ffffffffffffffffffffffffffffffffffffffff1673ffffffffffffffffffffffffffffffffffffffff166347f0ca0083836040518363ffffffff1660e01b8152600401610d5a929190611d42565b600060405180830381600087803b158015610d7457600080fd5b505af1158015610d88573d6000803e3d6000fd5b50505050505050565b610e2781604051602401610da5919061126a565b6040516020818303038152906040527ff82c50f1000000000000000000000000000000000000000000000000000000007bffffffffffffffffffffffffffffffffffffffffffffffffffffffff19166020820180517bffffffffffffffffffffffffffffffffffffffffffffffffffffffff8381831617835250505050610e2a565b50565b60008151905060006a636f6e736f6c652e6c6f679050602083016000808483855afa5050505050565b6000604051905090565b600080fd5b600080fd5b600080fd5b600080fd5b6000601f19601f8301169050919050565b7f4e487b7100000000000000000000000000000000000000000000000000000000600052604160045260246000fd5b610eba82610e71565b810181811067ffffffffffffffff82111715610ed957610ed8610e82565b5b80604052505050565b6000610eec610e53565b9050610ef88282610eb1565b919050565b600067ffffffffffffffff821115610f1857610f17610e82565b5b610f2182610e71565b9050602081019050919050565b82818337600083830152505050565b6000610f50610f4b84610efd565b610ee2565b905082815260208101848484011115610f6c57610f6b610e6c565b5b610f77848285610f2e565b509392505050565b600082601f830112610f9457610f93610e67565b5b8135610fa4848260208601610f3d565b91505092915050565b600080fd5b600080fd5b6000819050919050565b610fca81610fb7565b8114610fd557600080fd5b50565b600081359050610fe781610fc1565b92915050565b60006080828403121561100357611002610fad565b5b61100d6080610ee2565b9050600082013567ffffffffffffffff81111561102d5761102c610fb2565b5b61103984828501610f7f565b600083015250602061104d84828501610fd8565b602083015250604061106184828501610fd8565b604083015250606082013567ffffffffffffffff81111561108557611084610fb2565b5b61109184828501610f7f565b60608301525092915050565b600080604083850312156110b4576110b3610e5d565b5b600083013567ffffffffffffffff8111156110d2576110d1610e62565b5b6110de85828601610f7f565b925050602083013567ffffffffffffffff8111156110ff576110fe610e62565b5b61110b85828601610fed565b9150509250929050565b6000806040838503121561112c5761112b610e5d565b5b600083013567ffffffffffffffff81111561114a57611149610e62565b5b61115685828601610f7f565b925050602061116785828601610fd8565b9150509250929050565b60006020828403121561118757611186610e5d565b5b600082013567ffffffffffffffff8111156111a5576111a4610e62565b5b6111b184828501610f7f565b91505092915050565b600081519050919050565b600082825260208201905092915050565b60005b838110156111f45780820151818401526020810190506111d9565b60008484015250505050565b600061120b826111ba565b61121581856111c5565b93506112258185602086016111d6565b61122e81610e71565b840191505092915050565b600060208201905081810360008301526112538184611200565b905092915050565b61126481610fb7565b82525050565b600060208201905061127f600083018461125b565b92915050565b60008115159050919050565b61129a81611285565b82525050565b60006020820190506112b56000830184611291565b92915050565b600060808201905081810360008301526112d58187611200565b90506112e4602083018661125b565b6112f1604083018561125b565b81810360608301526113038184611200565b905095945050505050565b6000806040838503121561132557611324610e5d565b5b600061133385828601610fd8565b925050602083013567ffffffffffffffff81111561135457611353610e62565b5b61136085828601610f7f565b9150509250929050565b6000608082840312156113805761137f610fad565b5b61138a6080610ee2565b9050600082013567ffffffffffffffff8111156113aa576113a9610fb2565b5b6113b684828501610f7f565b600083015250602082013567ffffffffffffffff8111156113da576113d9610fb2565b5b6113e684828501610f7f565b602083015250604082013567ffffffffffffffff81111561140a57611409610fb2565b5b61141684828501610f7f565b604083015250606082013567ffffffffffffffff81111561143a57611439610fb2565b5b61144684828501610f7f565b60608301525092915050565b600060a0828403121561146857611467610fad565b5b61147260a0610ee2565b9050600082013567ffffffffffffffff81111561149257611491610fb2565b5b61149e84828501610f7f565b600083015250602082013567ffffffffffffffff8111156114c2576114c1610fb2565b5b6114ce84828501610f7f565b60208301525060406114e284828501610fd8565b604083015250606082013567ffffffffffffffff81111561150657611505610fb2565b5b61151284828501610f7f565b606083015250608082013567ffffffffffffffff81111561153657611535610fb2565b5b61154284828501610f7f565b60808301525092915050565b60008060006060848603121561156757611566610e5d565b5b600084013567ffffffffffffffff81111561158557611584610e62565b5b6115918682870161136a565b935050602084013567ffffffffffffffff8111156115b2576115b1610e62565b5b6115be86828701610f7f565b925050604084013567ffffffffffffffff8111156115df576115de610e62565b5b6115eb86828701611452565b9150509250925092565b600081905092915050565b600061160b826111ba565b61161581856115f5565b93506116258185602086016111d6565b80840191505092915050565b600061163d8284611600565b915081905092915050565b7f55736572206e6f7420656e726f6c6c6564000000000000000000000000000000600082015250565b600061167e6011836111c5565b915061168982611648565b602082019050919050565b600060208201905081810360008301526116ad81611671565b9050919050565b7f4e487b7100000000000000000000000000000000000000000000000000000000600052601160045260246000fd5b60006116ee82610fb7565b91506116f983610fb7565b9250828201905080821115611711576117106116b4565b5b92915050565b7f4e487b7100000000000000000000000000000000000000000000000000000000600052602260045260246000fd5b6000600282049050600182168061175e57607f821691505b60208210810361177157611770611717565b5b50919050565b60008190508160005260206000209050919050565b60006020601f8301049050919050565b600082821b905092915050565b6000600883026117d97fffffffffffffffffffffffffffffffffffffffffffffffffffffffffffffffff8261179c565b6117e3868361179c565b95508019841693508086168417925050509392505050565b6000819050919050565b600061182061181b61181684610fb7565b6117fb565b610fb7565b9050919050565b6000819050919050565b61183a83611805565b61184e61184682611827565b8484546117a9565b825550505050565b600090565b611863611856565b61186e818484611831565b505050565b5b818110156118925761188760008261185b565b600181019050611874565b5050565b601f8211156118d7576118a881611777565b6118b18461178c565b810160208510156118c0578190505b6118d46118cc8561178c565b830182611873565b50505b505050565b600082821c905092915050565b60006118fa600019846008026118dc565b1980831691505092915050565b600061191383836118e9565b9150826002028217905092915050565b61192c826111ba565b67ffffffffffffffff81111561194557611944610e82565b5b61194f8254611746565b61195a828285611896565b600060209050601f83116001811461198d576000841561197b578287015190505b6119858582611907565b8655506119ed565b601f19841661199b86611777565b60005b828110156119c35784890151825560018201915060208501945060208101905061199e565b868310156119e057848901516119dc601f8916826118e9565b8355505b6001600288020188555050505b505050505050565b7f596f7520646f6e7420686176652074686174206d756368206d6f6e6579000000600082015250565b6000611a2b601d836111c5565b9150611a36826119f5565b602082019050919050565b60006020820190508181036000830152611a5a81611a1e565b9050919050565b7f5061796d656e742073686f756c6420626520706f736974697665000000000000600082015250565b6000611a97601a836111c5565b9150611aa282611a61565b602082019050919050565b60006020820190508181036000830152611ac681611a8a565b9050919050565b6000611ad882610fb7565b9150611ae383610fb7565b9250828203905081811115611afb57611afa6116b4565b5b92915050565b600081519050611b1081610fc1565b92915050565b600060208284031215611b2c57611b2b610e5d565b5b6000611b3a84828501611b01565b91505092915050565b7f496e73756666696369656e742042616c616e6365000000000000000000000000600082015250565b6000611b796014836111c5565b9150611b8482611b43565b602082019050919050565b60006020820190508181036000830152611ba881611b6c565b9050919050565b600082825260208201905092915050565b6000611bcb826111ba565b611bd58185611baf565b9350611be58185602086016111d6565b611bee81610e71565b840191505092915050565b60006080830160008301518482036000860152611c168282611bc0565b91505060208301518482036020860152611c308282611bc0565b91505060408301518482036040860152611c4a8282611bc0565b91505060608301518482036060860152611c648282611bc0565b9150508091505092915050565b60006040820190508181036000830152611c8b8185611200565b90508181036020830152611c9f8184611bf9565b90509392505050565b611cb181610fb7565b82525050565b600060a0830160008301518482036000860152611cd48282611bc0565b91505060208301518482036020860152611cee8282611bc0565b9150506040830151611d036040860182611ca8565b5060608301518482036060860152611d1b8282611bc0565b91505060808301518482036080860152611d358282611bc0565b9150508091505092915050565b60006040820190508181036000830152611d5c8185611200565b90508181036020830152611d708184611cb7565b9050939250505056fea2646970667358221220476b5eeed8fa2f5c21c660987e84a1100cac6729d76942f25d3abdac3c203c4264736f6c63430008110033",
  "linkReferences": {},
  "deployedLinkReferences": {}
}