{
  "_format": "hh-sol-artifact-1",
  "contractName": "ThreeBank",
  "sourceName": "contracts/ThreeBank.sol",
  "abi": [
    {
      "inputs": [
        {
          "internalType": "string",
          "name": "",
          "type": "string"
        }
      ],
      "name": "balance",
      "outputs": [
        {
          "internalType": "uint256",
          "name": "",
          "type": "uint256"
        }
      ],
      "stateMutability": "view",
      "type": "function"
    },
    {
      "inputs": [
        {
          "components": [
            {
              "internalType": "string",
              "name": "name",
              "type": "string"
            },
            {
              "internalType": "string",
              "name": "dateOfBirth",
              "type": "string"
            },
            {
              "internalType": "string",
              "name": "gender",
              "type": "string"
            },
            {
              "internalType": "string",
              "name": "panNumber",
              "type": "string"
            }
          ],
          "internalType": "struct ThreeBank.PersonalInformation",
          "name": "personalInformation",
          "type": "tuple"
        },
        {
          "internalType": "string",
          "name": "panNumber",
          "type": "string"
        }
      ],
      "name": "enroll",
      "outputs": [],
      "stateMutability": "nonpayable",
      "type": "function"
    },
    {
      "inputs": [
        {
          "internalType": "string",
          "name": "",
          "type": "string"
        }
      ],
      "name": "enrolled",
      "outputs": [
        {
          "internalType": "bool",
          "name": "",
          "type": "bool"
        }
      ],
      "stateMutability": "view",
      "type": "function"
    }
  ],
  "bytecode": "0x608060405234801561001057600080fd5b506108ee806100206000396000f3fe608060405234801561001057600080fd5b50600436106100415760003560e01c80633d80b5321461004657806396acc78e14610076578063a3f60000146100a6575b600080fd5b610060600480360381019061005b9190610335565b6100c2565b60405161006d9190610397565b60405180910390f35b610090600480360381019061008b9190610335565b6100f0565b60405161009d91906103cd565b60405180910390f35b6100c060048036038101906100bb91906104da565b610126565b005b6001818051602081018201805184825260208301602085012081835280955050505050506000915090505481565b6002818051602081018201805184825260208301602085012081835280955050505050506000915054906101000a900460ff1681565b600160028260405161013891906105c3565b908152602001604051809103902060006101000a81548160ff0219169083151502179055508160008260405161016e91906105c3565b9081526020016040518091039020600082015181600001908161019191906107e6565b5060208201518160010190816101a791906107e6565b5060408201518160020190816101bd91906107e6565b5060608201518160030190816101d391906107e6565b509050505050565b6000604051905090565b600080fd5b600080fd5b600080fd5b600080fd5b6000601f19601f8301169050919050565b7f4e487b7100000000000000000000000000000000000000000000000000000000600052604160045260246000fd5b610242826101f9565b810181811067ffffffffffffffff821117156102615761026061020a565b5b80604052505050565b60006102746101db565b90506102808282610239565b919050565b600067ffffffffffffffff8211156102a05761029f61020a565b5b6102a9826101f9565b9050602081019050919050565b82818337600083830152505050565b60006102d86102d384610285565b61026a565b9050828152602081018484840111156102f4576102f36101f4565b5b6102ff8482856102b6565b509392505050565b600082601f83011261031c5761031b6101ef565b5b813561032c8482602086016102c5565b91505092915050565b60006020828403121561034b5761034a6101e5565b5b600082013567ffffffffffffffff811115610369576103686101ea565b5b61037584828501610307565b91505092915050565b6000819050919050565b6103918161037e565b82525050565b60006020820190506103ac6000830184610388565b92915050565b60008115159050919050565b6103c7816103b2565b82525050565b60006020820190506103e260008301846103be565b92915050565b600080fd5b600080fd5b600060808284031215610408576104076103e8565b5b610412608061026a565b9050600082013567ffffffffffffffff811115610432576104316103ed565b5b61043e84828501610307565b600083015250602082013567ffffffffffffffff811115610462576104616103ed565b5b61046e84828501610307565b602083015250604082013567ffffffffffffffff811115610492576104916103ed565b5b61049e84828501610307565b604083015250606082013567ffffffffffffffff8111156104c2576104c16103ed565b5b6104ce84828501610307565b60608301525092915050565b600080604083850312156104f1576104f06101e5565b5b600083013567ffffffffffffffff81111561050f5761050e6101ea565b5b61051b858286016103f2565b925050602083013567ffffffffffffffff81111561053c5761053b6101ea565b5b61054885828601610307565b9150509250929050565b600081519050919050565b600081905092915050565b60005b8381101561058657808201518184015260208101905061056b565b60008484015250505050565b600061059d82610552565b6105a7818561055d565b93506105b7818560208601610568565b80840191505092915050565b60006105cf8284610592565b915081905092915050565b7f4e487b7100000000000000000000000000000000000000000000000000000000600052602260045260246000fd5b6000600282049050600182168061062157607f821691505b602082108103610634576106336105da565b5b50919050565b60008190508160005260206000209050919050565b60006020601f8301049050919050565b600082821b905092915050565b60006008830261069c7fffffffffffffffffffffffffffffffffffffffffffffffffffffffffffffffff8261065f565b6106a6868361065f565b95508019841693508086168417925050509392505050565b6000819050919050565b60006106e36106de6106d98461037e565b6106be565b61037e565b9050919050565b6000819050919050565b6106fd836106c8565b610711610709826106ea565b84845461066c565b825550505050565b600090565b610726610719565b6107318184846106f4565b505050565b5b818110156107555761074a60008261071e565b600181019050610737565b5050565b601f82111561079a5761076b8161063a565b6107748461064f565b81016020851015610783578190505b61079761078f8561064f565b830182610736565b50505b505050565b600082821c905092915050565b60006107bd6000198460080261079f565b1980831691505092915050565b60006107d683836107ac565b9150826002028217905092915050565b6107ef82610552565b67ffffffffffffffff8111156108085761080761020a565b5b6108128254610609565b61081d828285610759565b600060209050601f831160018114610850576000841561083e578287015190505b61084885826107ca565b8655506108b0565b601f19841661085e8661063a565b60005b8281101561088657848901518255600182019150602085019450602081019050610861565b868310156108a3578489015161089f601f8916826107ac565b8355505b6001600288020188555050505b50505050505056fea2646970667358221220ff9f97342150a9f51b08e858dc1825cdf105038deea15daff383f8520991bd0564736f6c63430008110033",
  "linkReferences": {},
  "deployedLinkReferences": {}
}