{
  "_format": "hh-sol-artifact-1",
  "contractName": "ThreeBank",
  "sourceName": "contracts/ThreeBank.sol",
  "abi": [
    {
      "inputs": [
        {
          "internalType": "string",
          "name": "",
          "type": "string"
        }
      ],
      "name": "balance",
      "outputs": [
        {
          "internalType": "uint256",
          "name": "",
          "type": "uint256"
        }
      ],
      "stateMutability": "view",
      "type": "function"
    },
    {
      "inputs": [
        {
          "internalType": "string",
          "name": "panNumber",
          "type": "string"
        }
      ],
      "name": "deposit",
      "outputs": [],
      "stateMutability": "payable",
      "type": "function"
    },
    {
      "inputs": [
        {
          "components": [
            {
              "internalType": "string",
              "name": "name",
              "type": "string"
            },
            {
              "internalType": "string",
              "name": "dateOfBirth",
              "type": "string"
            },
            {
              "internalType": "string",
              "name": "gender",
              "type": "string"
            },
            {
              "internalType": "string",
              "name": "panNumber",
              "type": "string"
            }
          ],
          "internalType": "struct ThreeBank.PersonalInformation",
          "name": "personalInformation",
          "type": "tuple"
        },
        {
          "internalType": "string",
          "name": "panNumber",
          "type": "string"
        }
      ],
      "name": "enroll",
      "outputs": [],
      "stateMutability": "nonpayable",
      "type": "function"
    },
    {
      "inputs": [
        {
          "internalType": "string",
          "name": "",
          "type": "string"
        }
      ],
      "name": "enrolled",
      "outputs": [
        {
          "internalType": "bool",
          "name": "",
          "type": "bool"
        }
      ],
      "stateMutability": "view",
      "type": "function"
    },
    {
      "inputs": [
        {
          "internalType": "string",
          "name": "panNumber",
          "type": "string"
        }
      ],
      "name": "getBalance",
      "outputs": [
        {
          "internalType": "uint256",
          "name": "",
          "type": "uint256"
        }
      ],
      "stateMutability": "view",
      "type": "function"
    },
    {
      "inputs": [
        {
          "internalType": "string",
          "name": "",
          "type": "string"
        }
      ],
      "name": "loans",
      "outputs": [
        {
          "internalType": "string",
          "name": "loanType",
          "type": "string"
        },
        {
          "internalType": "uint256",
          "name": "loanAmount",
          "type": "uint256"
        },
        {
          "internalType": "uint256",
          "name": "loanTenure",
          "type": "uint256"
        },
        {
          "internalType": "string",
          "name": "repaymentStatus",
          "type": "string"
        }
      ],
      "stateMutability": "view",
      "type": "function"
    },
    {
      "inputs": [
        {
          "internalType": "string",
          "name": "panNumber",
          "type": "string"
        },
        {
          "internalType": "uint256",
          "name": "amount",
          "type": "uint256"
        }
      ],
      "name": "makeLoanPayment",
      "outputs": [],
      "stateMutability": "nonpayable",
      "type": "function"
    },
    {
      "inputs": [
        {
          "internalType": "string",
          "name": "panNumber",
          "type": "string"
        },
        {
          "components": [
            {
              "internalType": "string",
              "name": "loanType",
              "type": "string"
            },
            {
              "internalType": "uint256",
              "name": "loanAmount",
              "type": "uint256"
            },
            {
              "internalType": "uint256",
              "name": "loanTenure",
              "type": "uint256"
            },
            {
              "internalType": "string",
              "name": "repaymentStatus",
              "type": "string"
            }
          ],
          "internalType": "struct Loan",
          "name": "loanDeets",
          "type": "tuple"
        }
      ],
      "name": "requestLoan",
      "outputs": [
        {
          "internalType": "bool",
          "name": "",
          "type": "bool"
        }
      ],
      "stateMutability": "nonpayable",
      "type": "function"
    },
    {
      "inputs": [
        {
          "internalType": "uint256",
          "name": "amount",
          "type": "uint256"
        },
        {
          "internalType": "string",
          "name": "panNumber",
          "type": "string"
        }
      ],
      "name": "withdraw",
      "outputs": [],
      "stateMutability": "nonpayable",
      "type": "function"
    }
  ],
  "bytecode": "0x6080604052600060045534801561001557600080fd5b506118cd806100256000396000f3fe6080604052600436106100865760003560e01c806396acc78e1161005957806396acc78e1461016b578063a26e1186146101a8578063a3f60000146101c4578063c6141f63146101ed578063dc048cf21461022d57610086565b8063082aa9741461008b5780631473f83c146100c85780633a51d246146100f15780633d80b5321461012e575b600080fd5b34801561009757600080fd5b506100b260048036038101906100ad9190610dd0565b610256565b6040516100bf9190610e63565b60405180910390f35b3480156100d457600080fd5b506100ef60048036038101906100ea9190610e7e565b610417565b005b3480156100fd57600080fd5b5061011860048036038101906101139190610eda565b610676565b6040516101259190610f32565b60405180910390f35b34801561013a57600080fd5b5061015560048036038101906101509190610eda565b61070b565b6040516101629190610f32565b60405180910390f35b34801561017757600080fd5b50610192600480360381019061018d9190610eda565b610739565b60405161019f9190610e63565b60405180910390f35b6101c260048036038101906101bd9190610eda565b61076f565b005b3480156101d057600080fd5b506101eb60048036038101906101e69190611035565b61082d565b005b3480156101f957600080fd5b50610214600480360381019061020f9190610eda565b6108e2565b604051610224949392919061112c565b60405180910390f35b34801561023957600080fd5b50610254600480360381019061024f919061117f565b610a38565b005b6000826002816040516102699190611217565b908152602001604051809103902060009054906101000a900460ff166102c4576040517f08c379a00000000000000000000000000000000000000000000000000000000081526004016102bb9061127a565b60405180910390fd5b6004548360200151111561030d576040517f08c379a0000000000000000000000000000000000000000000000000000000008152600401610304906112e6565b60405180910390fd5b600060038560405161031f9190611217565b90815260200160405180910390206001015414610371576040517f08c379a000000000000000000000000000000000000000000000000000000000815260040161036890611352565b60405180910390fd5b82602001516001856040516103869190611217565b908152602001604051809103902060008282546103a391906113a1565b92505081905550826003856040516103bb9190611217565b908152602001604051809103902060008201518160000190816103de91906115e1565b506020820151816001015560408201518160020155606082015181600301908161040891906115e1565b50905050600191505092915050565b816002816040516104289190611217565b908152602001604051809103902060009054906101000a900460ff16610483576040517f08c379a000000000000000000000000000000000000000000000000000000000815260040161047a9061127a565b60405180910390fd5b60006003846040516104959190611217565b908152602001604051809103902060010154116104e7576040517f08c379a00000000000000000000000000000000000000000000000000000000081526004016104de906116ff565b60405180910390fd5b816001846040516104f89190611217565b9081526020016040518091039020541015610548576040517f08c379a000000000000000000000000000000000000000000000000000000000815260040161053f9061176b565b60405180910390fd5b6000821161058b576040517f08c379a0000000000000000000000000000000000000000000000000000000008152600401610582906117d7565b60405180910390fd5b60038360405161059b9190611217565b9081526020016040518091039020600101548210610603576003836040516105c39190611217565b908152602001604051809103902060010154915060006003846040516105e99190611217565b90815260200160405180910390206001018190555061063c565b816003846040516106149190611217565b9081526020016040518091039020600101600082825461063491906117f7565b925050819055505b8160018460405161064d9190611217565b9081526020016040518091039020600082825461066a91906117f7565b92505081905550505050565b6000816002816040516106899190611217565b908152602001604051809103902060009054906101000a900460ff166106e4576040517f08c379a00000000000000000000000000000000000000000000000000000000081526004016106db9061127a565b60405180910390fd5b6001836040516106f49190611217565b908152602001604051809103902054915050919050565b6001818051602081018201805184825260208301602085012081835280955050505050506000915090505481565b6002818051602081018201805184825260208301602085012081835280955050505050506000915054906101000a900460ff1681565b806002816040516107809190611217565b908152602001604051809103902060009054906101000a900460ff166107db576040517f08c379a00000000000000000000000000000000000000000000000000000000081526004016107d29061127a565b60405180910390fd5b346001836040516107ec9190611217565b9081526020016040518091039020600082825461080991906113a1565b92505081905550346004600082825461082291906113a1565b925050819055505050565b600160028260405161083f9190611217565b908152602001604051809103902060006101000a81548160ff021916908315150217905550816000826040516108759190611217565b9081526020016040518091039020600082015181600001908161089891906115e1565b5060208201518160010190816108ae91906115e1565b5060408201518160020190816108c491906115e1565b5060608201518160030190816108da91906115e1565b509050505050565b60038180516020810182018051848252602083016020850120818352809550505050505060009150905080600001805461091b90611404565b80601f016020809104026020016040519081016040528092919081815260200182805461094790611404565b80156109945780601f1061096957610100808354040283529160200191610994565b820191906000526020600020905b81548152906001019060200180831161097757829003601f168201915b5050505050908060010154908060020154908060030180546109b590611404565b80601f01602080910402602001604051908101604052809291908181526020018280546109e190611404565b8015610a2e5780601f10610a0357610100808354040283529160200191610a2e565b820191906000526020600020905b815481529060010190602001808311610a1157829003601f168201915b5050505050905084565b80600281604051610a499190611217565b908152602001604051809103902060009054906101000a900460ff16610aa4576040517f08c379a0000000000000000000000000000000000000000000000000000000008152600401610a9b9061127a565b60405180910390fd5b82600183604051610ab59190611217565b9081526020016040518091039020541015610b05576040517f08c379a0000000000000000000000000000000000000000000000000000000008152600401610afc90611877565b60405180910390fd5b82600183604051610b169190611217565b90815260200160405180910390206000828254610b3391906117f7565b925050819055503373ffffffffffffffffffffffffffffffffffffffff166108fc849081150290604051600060405180830381858888f19350505050158015610b80573d6000803e3d6000fd5b50505050565b6000604051905090565b600080fd5b600080fd5b600080fd5b600080fd5b6000601f19601f8301169050919050565b7f4e487b7100000000000000000000000000000000000000000000000000000000600052604160045260246000fd5b610bed82610ba4565b810181811067ffffffffffffffff82111715610c0c57610c0b610bb5565b5b80604052505050565b6000610c1f610b86565b9050610c2b8282610be4565b919050565b600067ffffffffffffffff821115610c4b57610c4a610bb5565b5b610c5482610ba4565b9050602081019050919050565b82818337600083830152505050565b6000610c83610c7e84610c30565b610c15565b905082815260208101848484011115610c9f57610c9e610b9f565b5b610caa848285610c61565b509392505050565b600082601f830112610cc757610cc6610b9a565b5b8135610cd7848260208601610c70565b91505092915050565b600080fd5b600080fd5b6000819050919050565b610cfd81610cea565b8114610d0857600080fd5b50565b600081359050610d1a81610cf4565b92915050565b600060808284031215610d3657610d35610ce0565b5b610d406080610c15565b9050600082013567ffffffffffffffff811115610d6057610d5f610ce5565b5b610d6c84828501610cb2565b6000830152506020610d8084828501610d0b565b6020830152506040610d9484828501610d0b565b604083015250606082013567ffffffffffffffff811115610db857610db7610ce5565b5b610dc484828501610cb2565b60608301525092915050565b60008060408385031215610de757610de6610b90565b5b600083013567ffffffffffffffff811115610e0557610e04610b95565b5b610e1185828601610cb2565b925050602083013567ffffffffffffffff811115610e3257610e31610b95565b5b610e3e85828601610d20565b9150509250929050565b60008115159050919050565b610e5d81610e48565b82525050565b6000602082019050610e786000830184610e54565b92915050565b60008060408385031215610e9557610e94610b90565b5b600083013567ffffffffffffffff811115610eb357610eb2610b95565b5b610ebf85828601610cb2565b9250506020610ed085828601610d0b565b9150509250929050565b600060208284031215610ef057610eef610b90565b5b600082013567ffffffffffffffff811115610f0e57610f0d610b95565b5b610f1a84828501610cb2565b91505092915050565b610f2c81610cea565b82525050565b6000602082019050610f476000830184610f23565b92915050565b600060808284031215610f6357610f62610ce0565b5b610f6d6080610c15565b9050600082013567ffffffffffffffff811115610f8d57610f8c610ce5565b5b610f9984828501610cb2565b600083015250602082013567ffffffffffffffff811115610fbd57610fbc610ce5565b5b610fc984828501610cb2565b602083015250604082013567ffffffffffffffff811115610fed57610fec610ce5565b5b610ff984828501610cb2565b604083015250606082013567ffffffffffffffff81111561101d5761101c610ce5565b5b61102984828501610cb2565b60608301525092915050565b6000806040838503121561104c5761104b610b90565b5b600083013567ffffffffffffffff81111561106a57611069610b95565b5b61107685828601610f4d565b925050602083013567ffffffffffffffff81111561109757611096610b95565b5b6110a385828601610cb2565b9150509250929050565b600081519050919050565b600082825260208201905092915050565b60005b838110156110e75780820151818401526020810190506110cc565b60008484015250505050565b60006110fe826110ad565b61110881856110b8565b93506111188185602086016110c9565b61112181610ba4565b840191505092915050565b6000608082019050818103600083015261114681876110f3565b90506111556020830186610f23565b6111626040830185610f23565b818103606083015261117481846110f3565b905095945050505050565b6000806040838503121561119657611195610b90565b5b60006111a485828601610d0b565b925050602083013567ffffffffffffffff8111156111c5576111c4610b95565b5b6111d185828601610cb2565b9150509250929050565b600081905092915050565b60006111f1826110ad565b6111fb81856111db565b935061120b8185602086016110c9565b80840191505092915050565b600061122382846111e6565b915081905092915050565b7f55736572206e6f7420656e726f6c6c6564000000000000000000000000000000600082015250565b60006112646011836110b8565b915061126f8261122e565b602082019050919050565b6000602082019050818103600083015261129381611257565b9050919050565b7f4e6f7420656e6f7567682066756e647320696e2062616e6b0000000000000000600082015250565b60006112d06018836110b8565b91506112db8261129a565b602082019050919050565b600060208201905081810360008301526112ff816112c3565b9050919050565b7f596f7520616c726561647920686176652061206c6f616e206163746976650000600082015250565b600061133c601e836110b8565b915061134782611306565b602082019050919050565b6000602082019050818103600083015261136b8161132f565b9050919050565b7f4e487b7100000000000000000000000000000000000000000000000000000000600052601160045260246000fd5b60006113ac82610cea565b91506113b783610cea565b92508282019050808211156113cf576113ce611372565b5b92915050565b7f4e487b7100000000000000000000000000000000000000000000000000000000600052602260045260246000fd5b6000600282049050600182168061141c57607f821691505b60208210810361142f5761142e6113d5565b5b50919050565b60008190508160005260206000209050919050565b60006020601f8301049050919050565b600082821b905092915050565b6000600883026114977fffffffffffffffffffffffffffffffffffffffffffffffffffffffffffffffff8261145a565b6114a1868361145a565b95508019841693508086168417925050509392505050565b6000819050919050565b60006114de6114d96114d484610cea565b6114b9565b610cea565b9050919050565b6000819050919050565b6114f8836114c3565b61150c611504826114e5565b848454611467565b825550505050565b600090565b611521611514565b61152c8184846114ef565b505050565b5b8181101561155057611545600082611519565b600181019050611532565b5050565b601f8211156115955761156681611435565b61156f8461144a565b8101602085101561157e578190505b61159261158a8561144a565b830182611531565b50505b505050565b600082821c905092915050565b60006115b86000198460080261159a565b1980831691505092915050565b60006115d183836115a7565b9150826002028217905092915050565b6115ea826110ad565b67ffffffffffffffff81111561160357611602610bb5565b5b61160d8254611404565b611618828285611554565b600060209050601f83116001811461164b5760008415611639578287015190505b61164385826115c5565b8655506116ab565b601f19841661165986611435565b60005b828110156116815784890151825560018201915060208501945060208101905061165c565b8683101561169e578489015161169a601f8916826115a7565b8355505b6001600288020188555050505b505050505050565b7f596f7520646f6e7420686176652061206c6f616e000000000000000000000000600082015250565b60006116e96014836110b8565b91506116f4826116b3565b602082019050919050565b60006020820190508181036000830152611718816116dc565b9050919050565b7f596f7520646f6e7420686176652074686174206d756368206d6f6e6579000000600082015250565b6000611755601d836110b8565b91506117608261171f565b602082019050919050565b6000602082019050818103600083015261178481611748565b9050919050565b7f5061796d656e742073686f756c6420626520706f736974697665000000000000600082015250565b60006117c1601a836110b8565b91506117cc8261178b565b602082019050919050565b600060208201905081810360008301526117f0816117b4565b9050919050565b600061180282610cea565b915061180d83610cea565b925082820390508181111561182557611824611372565b5b92915050565b7f496e73756666696369656e742042616c616e6365000000000000000000000000600082015250565b60006118616014836110b8565b915061186c8261182b565b602082019050919050565b6000602082019050818103600083015261189081611854565b905091905056fea2646970667358221220ecfb4a14835e31df42cdd4b0e7f38920d45597ca16b0d07b79d0ca2c11ef80b664736f6c63430008110033",
  "linkReferences": {},
  "deployedLinkReferences": {}
}