{
  "_format": "hh-sol-artifact-1",
  "contractName": "ThreeBank",
  "sourceName": "contracts/ThreeBank.sol",
  "abi": [
    {
      "inputs": [
        {
          "internalType": "string",
          "name": "",
          "type": "string"
        }
      ],
      "name": "balance",
      "outputs": [
        {
          "internalType": "uint256",
          "name": "",
          "type": "uint256"
        }
      ],
      "stateMutability": "view",
      "type": "function"
    },
    {
      "inputs": [
        {
          "internalType": "string",
          "name": "panNumber",
          "type": "string"
        }
      ],
      "name": "deposit",
      "outputs": [],
      "stateMutability": "payable",
      "type": "function"
    },
    {
      "inputs": [
        {
          "components": [
            {
              "internalType": "string",
              "name": "name",
              "type": "string"
            },
            {
              "internalType": "string",
              "name": "dateOfBirth",
              "type": "string"
            },
            {
              "internalType": "string",
              "name": "gender",
              "type": "string"
            },
            {
              "internalType": "string",
              "name": "panNumber",
              "type": "string"
            }
          ],
          "internalType": "struct ThreeBank.PersonalInformation",
          "name": "personalInformation",
          "type": "tuple"
        },
        {
          "internalType": "string",
          "name": "panNumber",
          "type": "string"
        }
      ],
      "name": "enroll",
      "outputs": [],
      "stateMutability": "nonpayable",
      "type": "function"
    },
    {
      "inputs": [
        {
          "internalType": "string",
          "name": "",
          "type": "string"
        }
      ],
      "name": "enrolled",
      "outputs": [
        {
          "internalType": "bool",
          "name": "",
          "type": "bool"
        }
      ],
      "stateMutability": "view",
      "type": "function"
    },
    {
      "inputs": [
        {
          "internalType": "uint256",
          "name": "amount",
          "type": "uint256"
        },
        {
          "internalType": "string",
          "name": "panNumber",
          "type": "string"
        }
      ],
      "name": "withdraw",
      "outputs": [],
      "stateMutability": "nonpayable",
      "type": "function"
    }
  ],
  "bytecode": "0x6080604052600060035534801561001557600080fd5b50610d77806100256000396000f3fe60806040526004361061004a5760003560e01c80633d80b5321461004f57806396acc78e1461008c578063a26e1186146100c9578063a3f60000146100e5578063dc048cf21461010e575b600080fd5b34801561005b57600080fd5b50610076600480360381019061007191906105b6565b610137565b6040516100839190610618565b60405180910390f35b34801561009857600080fd5b506100b360048036038101906100ae91906105b6565b610165565b6040516100c0919061064e565b60405180910390f35b6100e360048036038101906100de91906105b6565b61019b565b005b3480156100f157600080fd5b5061010c6004803603810190610107919061075b565b610259565b005b34801561011a57600080fd5b50610135600480360381019061013091906107ff565b61030e565b005b6001818051602081018201805184825260208301602085012081835280955050505050506000915090505481565b6002818051602081018201805184825260208301602085012081835280955050505050506000915054906101000a900460ff1681565b806002816040516101ac91906108cc565b908152602001604051809103902060009054906101000a900460ff16610207576040517f08c379a00000000000000000000000000000000000000000000000000000000081526004016101fe90610940565b60405180910390fd5b3460018360405161021891906108cc565b90815260200160405180910390206000828254610235919061098f565b92505081905550346003600082825461024e919061098f565b925050819055505050565b600160028260405161026b91906108cc565b908152602001604051809103902060006101000a81548160ff021916908315150217905550816000826040516102a191906108cc565b908152602001604051809103902060008201518160000190816102c49190610bcf565b5060208201518160010190816102da9190610bcf565b5060408201518160020190816102f09190610bcf565b5060608201518160030190816103069190610bcf565b509050505050565b8060028160405161031f91906108cc565b908152602001604051809103902060009054906101000a900460ff1661037a576040517f08c379a000000000000000000000000000000000000000000000000000000000815260040161037190610940565b60405180910390fd5b8260018360405161038b91906108cc565b90815260200160405180910390205410156103db576040517f08c379a00000000000000000000000000000000000000000000000000000000081526004016103d290610ced565b60405180910390fd5b826001836040516103ec91906108cc565b908152602001604051809103902060008282546104099190610d0d565b925050819055503373ffffffffffffffffffffffffffffffffffffffff166108fc849081150290604051600060405180830381858888f19350505050158015610456573d6000803e3d6000fd5b50505050565b6000604051905090565b600080fd5b600080fd5b600080fd5b600080fd5b6000601f19601f8301169050919050565b7f4e487b7100000000000000000000000000000000000000000000000000000000600052604160045260246000fd5b6104c38261047a565b810181811067ffffffffffffffff821117156104e2576104e161048b565b5b80604052505050565b60006104f561045c565b905061050182826104ba565b919050565b600067ffffffffffffffff8211156105215761052061048b565b5b61052a8261047a565b9050602081019050919050565b82818337600083830152505050565b600061055961055484610506565b6104eb565b90508281526020810184848401111561057557610574610475565b5b610580848285610537565b509392505050565b600082601f83011261059d5761059c610470565b5b81356105ad848260208601610546565b91505092915050565b6000602082840312156105cc576105cb610466565b5b600082013567ffffffffffffffff8111156105ea576105e961046b565b5b6105f684828501610588565b91505092915050565b6000819050919050565b610612816105ff565b82525050565b600060208201905061062d6000830184610609565b92915050565b60008115159050919050565b61064881610633565b82525050565b6000602082019050610663600083018461063f565b92915050565b600080fd5b600080fd5b60006080828403121561068957610688610669565b5b61069360806104eb565b9050600082013567ffffffffffffffff8111156106b3576106b261066e565b5b6106bf84828501610588565b600083015250602082013567ffffffffffffffff8111156106e3576106e261066e565b5b6106ef84828501610588565b602083015250604082013567ffffffffffffffff8111156107135761071261066e565b5b61071f84828501610588565b604083015250606082013567ffffffffffffffff8111156107435761074261066e565b5b61074f84828501610588565b60608301525092915050565b6000806040838503121561077257610771610466565b5b600083013567ffffffffffffffff8111156107905761078f61046b565b5b61079c85828601610673565b925050602083013567ffffffffffffffff8111156107bd576107bc61046b565b5b6107c985828601610588565b9150509250929050565b6107dc816105ff565b81146107e757600080fd5b50565b6000813590506107f9816107d3565b92915050565b6000806040838503121561081657610815610466565b5b6000610824858286016107ea565b925050602083013567ffffffffffffffff8111156108455761084461046b565b5b61085185828601610588565b9150509250929050565b600081519050919050565b600081905092915050565b60005b8381101561088f578082015181840152602081019050610874565b60008484015250505050565b60006108a68261085b565b6108b08185610866565b93506108c0818560208601610871565b80840191505092915050565b60006108d8828461089b565b915081905092915050565b600082825260208201905092915050565b7f55736572206e6f7420656e726f6c6c6564000000000000000000000000000000600082015250565b600061092a6011836108e3565b9150610935826108f4565b602082019050919050565b600060208201905081810360008301526109598161091d565b9050919050565b7f4e487b7100000000000000000000000000000000000000000000000000000000600052601160045260246000fd5b600061099a826105ff565b91506109a5836105ff565b92508282019050808211156109bd576109bc610960565b5b92915050565b7f4e487b7100000000000000000000000000000000000000000000000000000000600052602260045260246000fd5b60006002820490506001821680610a0a57607f821691505b602082108103610a1d57610a1c6109c3565b5b50919050565b60008190508160005260206000209050919050565b60006020601f8301049050919050565b600082821b905092915050565b600060088302610a857fffffffffffffffffffffffffffffffffffffffffffffffffffffffffffffffff82610a48565b610a8f8683610a48565b95508019841693508086168417925050509392505050565b6000819050919050565b6000610acc610ac7610ac2846105ff565b610aa7565b6105ff565b9050919050565b6000819050919050565b610ae683610ab1565b610afa610af282610ad3565b848454610a55565b825550505050565b600090565b610b0f610b02565b610b1a818484610add565b505050565b5b81811015610b3e57610b33600082610b07565b600181019050610b20565b5050565b601f821115610b8357610b5481610a23565b610b5d84610a38565b81016020851015610b6c578190505b610b80610b7885610a38565b830182610b1f565b50505b505050565b600082821c905092915050565b6000610ba660001984600802610b88565b1980831691505092915050565b6000610bbf8383610b95565b9150826002028217905092915050565b610bd88261085b565b67ffffffffffffffff811115610bf157610bf061048b565b5b610bfb82546109f2565b610c06828285610b42565b600060209050601f831160018114610c395760008415610c27578287015190505b610c318582610bb3565b865550610c99565b601f198416610c4786610a23565b60005b82811015610c6f57848901518255600182019150602085019450602081019050610c4a565b86831015610c8c5784890151610c88601f891682610b95565b8355505b6001600288020188555050505b505050505050565b7f496e73756666696369656e742042616c616e6365000000000000000000000000600082015250565b6000610cd76014836108e3565b9150610ce282610ca1565b602082019050919050565b60006020820190508181036000830152610d0681610cca565b9050919050565b6000610d18826105ff565b9150610d23836105ff565b9250828203905081811115610d3b57610d3a610960565b5b9291505056fea2646970667358221220888142bbb61314985e777a68757991af8180b15264c4af0b17d066221cd1a43664736f6c63430008110033",
  "linkReferences": {},
  "deployedLinkReferences": {}
}