{
  "_format": "hh-sol-artifact-1",
  "contractName": "ThreeBank",
  "sourceName": "contracts/ThreeBank.sol",
  "abi": [
    {
      "inputs": [
        {
          "internalType": "string",
          "name": "",
          "type": "string"
        }
      ],
      "name": "balance",
      "outputs": [
        {
          "internalType": "uint256",
          "name": "",
          "type": "uint256"
        }
      ],
      "stateMutability": "view",
      "type": "function"
    },
    {
      "inputs": [
        {
          "internalType": "string",
          "name": "",
          "type": "string"
        }
      ],
      "name": "enrolled",
      "outputs": [
        {
          "internalType": "bool",
          "name": "",
          "type": "bool"
        }
      ],
      "stateMutability": "view",
      "type": "function"
    }
  ],
  "bytecode": "0x608060405234801561001057600080fd5b50610342806100206000396000f3fe608060405234801561001057600080fd5b50600436106100365760003560e01c80633d80b5321461003b57806396acc78e1461006b575b600080fd5b61005560048036038101906100509190610259565b61009b565b60405161006291906102bb565b60405180910390f35b61008560048036038101906100809190610259565b6100c9565b60405161009291906102f1565b60405180910390f35b6001818051602081018201805184825260208301602085012081835280955050505050506000915090505481565b6002818051602081018201805184825260208301602085012081835280955050505050506000915054906101000a900460ff1681565b6000604051905090565b600080fd5b600080fd5b600080fd5b600080fd5b6000601f19601f8301169050919050565b7f4e487b7100000000000000000000000000000000000000000000000000000000600052604160045260246000fd5b6101668261011d565b810181811067ffffffffffffffff821117156101855761018461012e565b5b80604052505050565b60006101986100ff565b90506101a4828261015d565b919050565b600067ffffffffffffffff8211156101c4576101c361012e565b5b6101cd8261011d565b9050602081019050919050565b82818337600083830152505050565b60006101fc6101f7846101a9565b61018e565b90508281526020810184848401111561021857610217610118565b5b6102238482856101da565b509392505050565b600082601f8301126102405761023f610113565b5b81356102508482602086016101e9565b91505092915050565b60006020828403121561026f5761026e610109565b5b600082013567ffffffffffffffff81111561028d5761028c61010e565b5b6102998482850161022b565b91505092915050565b6000819050919050565b6102b5816102a2565b82525050565b60006020820190506102d060008301846102ac565b92915050565b60008115159050919050565b6102eb816102d6565b82525050565b600060208201905061030660008301846102e2565b9291505056fea264697066735822122031939b2cdc77cbdcfee54ab7c4782368942eb33bfc1682da3d75a31ffac28b1d64736f6c63430008110033",
  "linkReferences": {},
  "deployedLinkReferences": {}
}