{
  "_format": "hh-sol-artifact-1",
  "contractName": "ThreeBank",
  "sourceName": "contracts/ThreeBank.sol",
  "abi": [
    {
      "inputs": [
        {
          "internalType": "string",
          "name": "",
          "type": "string"
        }
      ],
      "name": "balance",
      "outputs": [
        {
          "internalType": "uint256",
          "name": "",
          "type": "uint256"
        }
      ],
      "stateMutability": "view",
      "type": "function"
    },
    {
      "inputs": [
        {
          "internalType": "string",
          "name": "panNumber",
          "type": "string"
        }
      ],
      "name": "deposit",
      "outputs": [],
      "stateMutability": "payable",
      "type": "function"
    },
    {
      "inputs": [
        {
          "components": [
            {
              "internalType": "string",
              "name": "name",
              "type": "string"
            },
            {
              "internalType": "string",
              "name": "dateOfBirth",
              "type": "string"
            },
            {
              "internalType": "string",
              "name": "gender",
              "type": "string"
            },
            {
              "internalType": "string",
              "name": "panNumber",
              "type": "string"
            }
          ],
          "internalType": "struct ThreeBank.PersonalInformation",
          "name": "personalInformation",
          "type": "tuple"
        },
        {
          "internalType": "string",
          "name": "panNumber",
          "type": "string"
        }
      ],
      "name": "enroll",
      "outputs": [],
      "stateMutability": "nonpayable",
      "type": "function"
    },
    {
      "inputs": [
        {
          "internalType": "string",
          "name": "",
          "type": "string"
        }
      ],
      "name": "enrolled",
      "outputs": [
        {
          "internalType": "bool",
          "name": "",
          "type": "bool"
        }
      ],
      "stateMutability": "view",
      "type": "function"
    },
    {
      "inputs": [
        {
          "internalType": "string",
          "name": "",
          "type": "string"
        }
      ],
      "name": "loans",
      "outputs": [
        {
          "internalType": "string",
          "name": "loanType",
          "type": "string"
        },
        {
          "internalType": "uint256",
          "name": "loanAmount",
          "type": "uint256"
        },
        {
          "internalType": "uint256",
          "name": "loanTenure",
          "type": "uint256"
        },
        {
          "internalType": "string",
          "name": "repaymentStatus",
          "type": "string"
        }
      ],
      "stateMutability": "view",
      "type": "function"
    },
    {
      "inputs": [
        {
          "internalType": "string",
          "name": "panNumber",
          "type": "string"
        },
        {
          "internalType": "uint256",
          "name": "amount",
          "type": "uint256"
        }
      ],
      "name": "makeLoanPayment",
      "outputs": [],
      "stateMutability": "nonpayable",
      "type": "function"
    },
    {
      "inputs": [
        {
          "internalType": "string",
          "name": "panNumber",
          "type": "string"
        },
        {
          "components": [
            {
              "internalType": "string",
              "name": "loanType",
              "type": "string"
            },
            {
              "internalType": "uint256",
              "name": "loanAmount",
              "type": "uint256"
            },
            {
              "internalType": "uint256",
              "name": "loanTenure",
              "type": "uint256"
            },
            {
              "internalType": "string",
              "name": "repaymentStatus",
              "type": "string"
            }
          ],
          "internalType": "struct Loan",
          "name": "loanDeets",
          "type": "tuple"
        }
      ],
      "name": "requestLoan",
      "outputs": [
        {
          "internalType": "bool",
          "name": "",
          "type": "bool"
        }
      ],
      "stateMutability": "nonpayable",
      "type": "function"
    },
    {
      "inputs": [
        {
          "internalType": "uint256",
          "name": "amount",
          "type": "uint256"
        },
        {
          "internalType": "string",
          "name": "panNumber",
          "type": "string"
        }
      ],
      "name": "withdraw",
      "outputs": [],
      "stateMutability": "nonpayable",
      "type": "function"
    }
  ],
  "bytecode": "0x6080604052600060045534801561001557600080fd5b506117f0806100256000396000f3fe60806040526004361061007b5760003560e01c8063a26e11861161004e578063a26e118614610160578063a3f600001461017c578063c6141f63146101a5578063dc048cf2146101e55761007b565b8063082aa974146100805780631473f83c146100bd5780633d80b532146100e657806396acc78e14610123575b600080fd5b34801561008c57600080fd5b506100a760048036038101906100a29190610cf3565b61020e565b6040516100b49190610d86565b60405180910390f35b3480156100c957600080fd5b506100e460048036038101906100df9190610da1565b6103cf565b005b3480156100f257600080fd5b5061010d60048036038101906101089190610dfd565b61062e565b60405161011a9190610e55565b60405180910390f35b34801561012f57600080fd5b5061014a60048036038101906101459190610dfd565b61065c565b6040516101579190610d86565b60405180910390f35b61017a60048036038101906101759190610dfd565b610692565b005b34801561018857600080fd5b506101a3600480360381019061019e9190610f58565b610750565b005b3480156101b157600080fd5b506101cc60048036038101906101c79190610dfd565b610805565b6040516101dc949392919061104f565b60405180910390f35b3480156101f157600080fd5b5061020c600480360381019061020791906110a2565b61095b565b005b600082600281604051610221919061113a565b908152602001604051809103902060009054906101000a900460ff1661027c576040517f08c379a00000000000000000000000000000000000000000000000000000000081526004016102739061119d565b60405180910390fd5b600454836020015111156102c5576040517f08c379a00000000000000000000000000000000000000000000000000000000081526004016102bc90611209565b60405180910390fd5b60006003856040516102d7919061113a565b90815260200160405180910390206001015414610329576040517f08c379a000000000000000000000000000000000000000000000000000000000815260040161032090611275565b60405180910390fd5b826020015160018560405161033e919061113a565b9081526020016040518091039020600082825461035b91906112c4565b9250508190555082600385604051610373919061113a565b908152602001604051809103902060008201518160000190816103969190611504565b50602082015181600101556040820151816002015560608201518160030190816103c09190611504565b50905050600191505092915050565b816002816040516103e0919061113a565b908152602001604051809103902060009054906101000a900460ff1661043b576040517f08c379a00000000000000000000000000000000000000000000000000000000081526004016104329061119d565b60405180910390fd5b600060038460405161044d919061113a565b9081526020016040518091039020600101541161049f576040517f08c379a000000000000000000000000000000000000000000000000000000000815260040161049690611622565b60405180910390fd5b816001846040516104b0919061113a565b9081526020016040518091039020541015610500576040517f08c379a00000000000000000000000000000000000000000000000000000000081526004016104f79061168e565b60405180910390fd5b60008211610543576040517f08c379a000000000000000000000000000000000000000000000000000000000815260040161053a906116fa565b60405180910390fd5b600383604051610553919061113a565b90815260200160405180910390206001015482106105bb5760038360405161057b919061113a565b908152602001604051809103902060010154915060006003846040516105a1919061113a565b9081526020016040518091039020600101819055506105f4565b816003846040516105cc919061113a565b908152602001604051809103902060010160008282546105ec919061171a565b925050819055505b81600184604051610605919061113a565b90815260200160405180910390206000828254610622919061171a565b92505081905550505050565b6001818051602081018201805184825260208301602085012081835280955050505050506000915090505481565b6002818051602081018201805184825260208301602085012081835280955050505050506000915054906101000a900460ff1681565b806002816040516106a3919061113a565b908152602001604051809103902060009054906101000a900460ff166106fe576040517f08c379a00000000000000000000000000000000000000000000000000000000081526004016106f59061119d565b60405180910390fd5b3460018360405161070f919061113a565b9081526020016040518091039020600082825461072c91906112c4565b92505081905550346004600082825461074591906112c4565b925050819055505050565b6001600282604051610762919061113a565b908152602001604051809103902060006101000a81548160ff02191690831515021790555081600082604051610798919061113a565b908152602001604051809103902060008201518160000190816107bb9190611504565b5060208201518160010190816107d19190611504565b5060408201518160020190816107e79190611504565b5060608201518160030190816107fd9190611504565b509050505050565b60038180516020810182018051848252602083016020850120818352809550505050505060009150905080600001805461083e90611327565b80601f016020809104026020016040519081016040528092919081815260200182805461086a90611327565b80156108b75780601f1061088c576101008083540402835291602001916108b7565b820191906000526020600020905b81548152906001019060200180831161089a57829003601f168201915b5050505050908060010154908060020154908060030180546108d890611327565b80601f016020809104026020016040519081016040528092919081815260200182805461090490611327565b80156109515780601f1061092657610100808354040283529160200191610951565b820191906000526020600020905b81548152906001019060200180831161093457829003601f168201915b5050505050905084565b8060028160405161096c919061113a565b908152602001604051809103902060009054906101000a900460ff166109c7576040517f08c379a00000000000000000000000000000000000000000000000000000000081526004016109be9061119d565b60405180910390fd5b826001836040516109d8919061113a565b9081526020016040518091039020541015610a28576040517f08c379a0000000000000000000000000000000000000000000000000000000008152600401610a1f9061179a565b60405180910390fd5b82600183604051610a39919061113a565b90815260200160405180910390206000828254610a56919061171a565b925050819055503373ffffffffffffffffffffffffffffffffffffffff166108fc849081150290604051600060405180830381858888f19350505050158015610aa3573d6000803e3d6000fd5b50505050565b6000604051905090565b600080fd5b600080fd5b600080fd5b600080fd5b6000601f19601f8301169050919050565b7f4e487b7100000000000000000000000000000000000000000000000000000000600052604160045260246000fd5b610b1082610ac7565b810181811067ffffffffffffffff82111715610b2f57610b2e610ad8565b5b80604052505050565b6000610b42610aa9565b9050610b4e8282610b07565b919050565b600067ffffffffffffffff821115610b6e57610b6d610ad8565b5b610b7782610ac7565b9050602081019050919050565b82818337600083830152505050565b6000610ba6610ba184610b53565b610b38565b905082815260208101848484011115610bc257610bc1610ac2565b5b610bcd848285610b84565b509392505050565b600082601f830112610bea57610be9610abd565b5b8135610bfa848260208601610b93565b91505092915050565b600080fd5b600080fd5b6000819050919050565b610c2081610c0d565b8114610c2b57600080fd5b50565b600081359050610c3d81610c17565b92915050565b600060808284031215610c5957610c58610c03565b5b610c636080610b38565b9050600082013567ffffffffffffffff811115610c8357610c82610c08565b5b610c8f84828501610bd5565b6000830152506020610ca384828501610c2e565b6020830152506040610cb784828501610c2e565b604083015250606082013567ffffffffffffffff811115610cdb57610cda610c08565b5b610ce784828501610bd5565b60608301525092915050565b60008060408385031215610d0a57610d09610ab3565b5b600083013567ffffffffffffffff811115610d2857610d27610ab8565b5b610d3485828601610bd5565b925050602083013567ffffffffffffffff811115610d5557610d54610ab8565b5b610d6185828601610c43565b9150509250929050565b60008115159050919050565b610d8081610d6b565b82525050565b6000602082019050610d9b6000830184610d77565b92915050565b60008060408385031215610db857610db7610ab3565b5b600083013567ffffffffffffffff811115610dd657610dd5610ab8565b5b610de285828601610bd5565b9250506020610df385828601610c2e565b9150509250929050565b600060208284031215610e1357610e12610ab3565b5b600082013567ffffffffffffffff811115610e3157610e30610ab8565b5b610e3d84828501610bd5565b91505092915050565b610e4f81610c0d565b82525050565b6000602082019050610e6a6000830184610e46565b92915050565b600060808284031215610e8657610e85610c03565b5b610e906080610b38565b9050600082013567ffffffffffffffff811115610eb057610eaf610c08565b5b610ebc84828501610bd5565b600083015250602082013567ffffffffffffffff811115610ee057610edf610c08565b5b610eec84828501610bd5565b602083015250604082013567ffffffffffffffff811115610f1057610f0f610c08565b5b610f1c84828501610bd5565b604083015250606082013567ffffffffffffffff811115610f4057610f3f610c08565b5b610f4c84828501610bd5565b60608301525092915050565b60008060408385031215610f6f57610f6e610ab3565b5b600083013567ffffffffffffffff811115610f8d57610f8c610ab8565b5b610f9985828601610e70565b925050602083013567ffffffffffffffff811115610fba57610fb9610ab8565b5b610fc685828601610bd5565b9150509250929050565b600081519050919050565b600082825260208201905092915050565b60005b8381101561100a578082015181840152602081019050610fef565b60008484015250505050565b600061102182610fd0565b61102b8185610fdb565b935061103b818560208601610fec565b61104481610ac7565b840191505092915050565b600060808201905081810360008301526110698187611016565b90506110786020830186610e46565b6110856040830185610e46565b81810360608301526110978184611016565b905095945050505050565b600080604083850312156110b9576110b8610ab3565b5b60006110c785828601610c2e565b925050602083013567ffffffffffffffff8111156110e8576110e7610ab8565b5b6110f485828601610bd5565b9150509250929050565b600081905092915050565b600061111482610fd0565b61111e81856110fe565b935061112e818560208601610fec565b80840191505092915050565b60006111468284611109565b915081905092915050565b7f55736572206e6f7420656e726f6c6c6564000000000000000000000000000000600082015250565b6000611187601183610fdb565b915061119282611151565b602082019050919050565b600060208201905081810360008301526111b68161117a565b9050919050565b7f4e6f7420656e6f7567682066756e647320696e2062616e6b0000000000000000600082015250565b60006111f3601883610fdb565b91506111fe826111bd565b602082019050919050565b60006020820190508181036000830152611222816111e6565b9050919050565b7f596f7520616c726561647920686176652061206c6f616e206163746976650000600082015250565b600061125f601e83610fdb565b915061126a82611229565b602082019050919050565b6000602082019050818103600083015261128e81611252565b9050919050565b7f4e487b7100000000000000000000000000000000000000000000000000000000600052601160045260246000fd5b60006112cf82610c0d565b91506112da83610c0d565b92508282019050808211156112f2576112f1611295565b5b92915050565b7f4e487b7100000000000000000000000000000000000000000000000000000000600052602260045260246000fd5b6000600282049050600182168061133f57607f821691505b602082108103611352576113516112f8565b5b50919050565b60008190508160005260206000209050919050565b60006020601f8301049050919050565b600082821b905092915050565b6000600883026113ba7fffffffffffffffffffffffffffffffffffffffffffffffffffffffffffffffff8261137d565b6113c4868361137d565b95508019841693508086168417925050509392505050565b6000819050919050565b60006114016113fc6113f784610c0d565b6113dc565b610c0d565b9050919050565b6000819050919050565b61141b836113e6565b61142f61142782611408565b84845461138a565b825550505050565b600090565b611444611437565b61144f818484611412565b505050565b5b818110156114735761146860008261143c565b600181019050611455565b5050565b601f8211156114b85761148981611358565b6114928461136d565b810160208510156114a1578190505b6114b56114ad8561136d565b830182611454565b50505b505050565b600082821c905092915050565b60006114db600019846008026114bd565b1980831691505092915050565b60006114f483836114ca565b9150826002028217905092915050565b61150d82610fd0565b67ffffffffffffffff81111561152657611525610ad8565b5b6115308254611327565b61153b828285611477565b600060209050601f83116001811461156e576000841561155c578287015190505b61156685826114e8565b8655506115ce565b601f19841661157c86611358565b60005b828110156115a45784890151825560018201915060208501945060208101905061157f565b868310156115c157848901516115bd601f8916826114ca565b8355505b6001600288020188555050505b505050505050565b7f596f7520646f6e7420686176652061206c6f616e000000000000000000000000600082015250565b600061160c601483610fdb565b9150611617826115d6565b602082019050919050565b6000602082019050818103600083015261163b816115ff565b9050919050565b7f596f7520646f6e7420686176652074686174206d756368206d6f6e6579000000600082015250565b6000611678601d83610fdb565b915061168382611642565b602082019050919050565b600060208201905081810360008301526116a78161166b565b9050919050565b7f5061796d656e742073686f756c6420626520706f736974697665000000000000600082015250565b60006116e4601a83610fdb565b91506116ef826116ae565b602082019050919050565b60006020820190508181036000830152611713816116d7565b9050919050565b600061172582610c0d565b915061173083610c0d565b925082820390508181111561174857611747611295565b5b92915050565b7f496e73756666696369656e742042616c616e6365000000000000000000000000600082015250565b6000611784601483610fdb565b915061178f8261174e565b602082019050919050565b600060208201905081810360008301526117b381611777565b905091905056fea26469706673582212202a358053251224f6156cdc433fa6afc7340e8f93521a903cf0633e1e7419921f64736f6c63430008110033",
  "linkReferences": {},
  "deployedLinkReferences": {}
}