{
  "_format": "hh-sol-artifact-1",
  "contractName": "ThreeBank",
  "sourceName": "contracts/ThreeBank.sol",
  "abi": [
    {
      "inputs": [
        {
          "internalType": "string",
          "name": "",
          "type": "string"
        }
      ],
      "name": "balance",
      "outputs": [
        {
          "internalType": "uint256",
          "name": "",
          "type": "uint256"
        }
      ],
      "stateMutability": "view",
      "type": "function"
    },
    {
      "inputs": [
        {
          "internalType": "string",
          "name": "panNumber",
          "type": "string"
        }
      ],
      "name": "deposit",
      "outputs": [],
      "stateMutability": "payable",
      "type": "function"
    },
    {
      "inputs": [
        {
          "components": [
            {
              "internalType": "string",
              "name": "name",
              "type": "string"
            },
            {
              "internalType": "string",
              "name": "dateOfBirth",
              "type": "string"
            },
            {
              "internalType": "string",
              "name": "gender",
              "type": "string"
            },
            {
              "internalType": "string",
              "name": "panNumber",
              "type": "string"
            }
          ],
          "internalType": "struct ThreeBank.PersonalInformation",
          "name": "personalInformation",
          "type": "tuple"
        },
        {
          "internalType": "string",
          "name": "panNumber",
          "type": "string"
        }
      ],
      "name": "enroll",
      "outputs": [],
      "stateMutability": "nonpayable",
      "type": "function"
    },
    {
      "inputs": [
        {
          "internalType": "string",
          "name": "",
          "type": "string"
        }
      ],
      "name": "enrolled",
      "outputs": [
        {
          "internalType": "bool",
          "name": "",
          "type": "bool"
        }
      ],
      "stateMutability": "view",
      "type": "function"
    }
  ],
  "bytecode": "0x6080604052600060035534801561001557600080fd5b50610acd806100256000396000f3fe60806040526004361061003f5760003560e01c80633d80b5321461004457806396acc78e14610081578063a26e1186146100be578063a3f60000146100da575b600080fd5b34801561005057600080fd5b5061006b60048036038101906100669190610434565b610103565b6040516100789190610496565b60405180910390f35b34801561008d57600080fd5b506100a860048036038101906100a39190610434565b610131565b6040516100b591906104cc565b60405180910390f35b6100d860048036038101906100d39190610434565b610167565b005b3480156100e657600080fd5b5061010160048036038101906100fc91906105d9565b610225565b005b6001818051602081018201805184825260208301602085012081835280955050505050506000915090505481565b6002818051602081018201805184825260208301602085012081835280955050505050506000915054906101000a900460ff1681565b8060028160405161017891906106c2565b908152602001604051809103902060009054906101000a900460ff166101d3576040517f08c379a00000000000000000000000000000000000000000000000000000000081526004016101ca90610736565b60405180910390fd5b346001836040516101e491906106c2565b908152602001604051809103902060008282546102019190610785565b92505081905550346003600082825461021a9190610785565b925050819055505050565b600160028260405161023791906106c2565b908152602001604051809103902060006101000a81548160ff0219169083151502179055508160008260405161026d91906106c2565b9081526020016040518091039020600082015181600001908161029091906109c5565b5060208201518160010190816102a691906109c5565b5060408201518160020190816102bc91906109c5565b5060608201518160030190816102d291906109c5565b509050505050565b6000604051905090565b600080fd5b600080fd5b600080fd5b600080fd5b6000601f19601f8301169050919050565b7f4e487b7100000000000000000000000000000000000000000000000000000000600052604160045260246000fd5b610341826102f8565b810181811067ffffffffffffffff821117156103605761035f610309565b5b80604052505050565b60006103736102da565b905061037f8282610338565b919050565b600067ffffffffffffffff82111561039f5761039e610309565b5b6103a8826102f8565b9050602081019050919050565b82818337600083830152505050565b60006103d76103d284610384565b610369565b9050828152602081018484840111156103f3576103f26102f3565b5b6103fe8482856103b5565b509392505050565b600082601f83011261041b5761041a6102ee565b5b813561042b8482602086016103c4565b91505092915050565b60006020828403121561044a576104496102e4565b5b600082013567ffffffffffffffff811115610468576104676102e9565b5b61047484828501610406565b91505092915050565b6000819050919050565b6104908161047d565b82525050565b60006020820190506104ab6000830184610487565b92915050565b60008115159050919050565b6104c6816104b1565b82525050565b60006020820190506104e160008301846104bd565b92915050565b600080fd5b600080fd5b600060808284031215610507576105066104e7565b5b6105116080610369565b9050600082013567ffffffffffffffff811115610531576105306104ec565b5b61053d84828501610406565b600083015250602082013567ffffffffffffffff811115610561576105606104ec565b5b61056d84828501610406565b602083015250604082013567ffffffffffffffff811115610591576105906104ec565b5b61059d84828501610406565b604083015250606082013567ffffffffffffffff8111156105c1576105c06104ec565b5b6105cd84828501610406565b60608301525092915050565b600080604083850312156105f0576105ef6102e4565b5b600083013567ffffffffffffffff81111561060e5761060d6102e9565b5b61061a858286016104f1565b925050602083013567ffffffffffffffff81111561063b5761063a6102e9565b5b61064785828601610406565b9150509250929050565b600081519050919050565b600081905092915050565b60005b8381101561068557808201518184015260208101905061066a565b60008484015250505050565b600061069c82610651565b6106a6818561065c565b93506106b6818560208601610667565b80840191505092915050565b60006106ce8284610691565b915081905092915050565b600082825260208201905092915050565b7f55736572206e6f7420656e726f6c6c6564000000000000000000000000000000600082015250565b60006107206011836106d9565b915061072b826106ea565b602082019050919050565b6000602082019050818103600083015261074f81610713565b9050919050565b7f4e487b7100000000000000000000000000000000000000000000000000000000600052601160045260246000fd5b60006107908261047d565b915061079b8361047d565b92508282019050808211156107b3576107b2610756565b5b92915050565b7f4e487b7100000000000000000000000000000000000000000000000000000000600052602260045260246000fd5b6000600282049050600182168061080057607f821691505b602082108103610813576108126107b9565b5b50919050565b60008190508160005260206000209050919050565b60006020601f8301049050919050565b600082821b905092915050565b60006008830261087b7fffffffffffffffffffffffffffffffffffffffffffffffffffffffffffffffff8261083e565b610885868361083e565b95508019841693508086168417925050509392505050565b6000819050919050565b60006108c26108bd6108b88461047d565b61089d565b61047d565b9050919050565b6000819050919050565b6108dc836108a7565b6108f06108e8826108c9565b84845461084b565b825550505050565b600090565b6109056108f8565b6109108184846108d3565b505050565b5b81811015610934576109296000826108fd565b600181019050610916565b5050565b601f8211156109795761094a81610819565b6109538461082e565b81016020851015610962578190505b61097661096e8561082e565b830182610915565b50505b505050565b600082821c905092915050565b600061099c6000198460080261097e565b1980831691505092915050565b60006109b5838361098b565b9150826002028217905092915050565b6109ce82610651565b67ffffffffffffffff8111156109e7576109e6610309565b5b6109f182546107e8565b6109fc828285610938565b600060209050601f831160018114610a2f5760008415610a1d578287015190505b610a2785826109a9565b865550610a8f565b601f198416610a3d86610819565b60005b82811015610a6557848901518255600182019150602085019450602081019050610a40565b86831015610a825784890151610a7e601f89168261098b565b8355505b6001600288020188555050505b50505050505056fea26469706673582212202b9b40d1208a74e8fb2be3f44469f7c0c8aa3b3a9c63c4e889c319a917046f0364736f6c63430008110033",
  "linkReferences": {},
  "deployedLinkReferences": {}
}