{
  "_format": "hh-sol-artifact-1",
  "contractName": "ThreeBank",
  "sourceName": "contracts/ThreeBank.sol",
  "abi": [
    {
      "inputs": [
        {
          "internalType": "string",
          "name": "",
          "type": "string"
        }
      ],
      "name": "balance",
      "outputs": [
        {
          "internalType": "uint256",
          "name": "",
          "type": "uint256"
        }
      ],
      "stateMutability": "view",
      "type": "function"
    },
    {
      "inputs": [
        {
          "internalType": "string",
          "name": "panNumber",
          "type": "string"
        }
      ],
      "name": "deposit",
      "outputs": [],
      "stateMutability": "payable",
      "type": "function"
    },
    {
      "inputs": [
        {
          "components": [
            {
              "internalType": "string",
              "name": "name",
              "type": "string"
            },
            {
              "internalType": "string",
              "name": "dateOfBirth",
              "type": "string"
            },
            {
              "internalType": "string",
              "name": "gender",
              "type": "string"
            },
            {
              "internalType": "string",
              "name": "panNumber",
              "type": "string"
            }
          ],
          "internalType": "struct ThreeBank.PersonalInformation",
          "name": "personalInformation",
          "type": "tuple"
        },
        {
          "internalType": "string",
          "name": "panNumber",
          "type": "string"
        }
      ],
      "name": "enroll",
      "outputs": [],
      "stateMutability": "nonpayable",
      "type": "function"
    },
    {
      "inputs": [
        {
          "internalType": "string",
          "name": "",
          "type": "string"
        }
      ],
      "name": "enrolled",
      "outputs": [
        {
          "internalType": "bool",
          "name": "",
          "type": "bool"
        }
      ],
      "stateMutability": "view",
      "type": "function"
    },
    {
      "inputs": [
        {
          "internalType": "string",
          "name": "",
          "type": "string"
        }
      ],
      "name": "loans",
      "outputs": [
        {
          "internalType": "string",
          "name": "loanType",
          "type": "string"
        },
        {
          "internalType": "uint256",
          "name": "loanAmount",
          "type": "uint256"
        },
        {
          "internalType": "uint256",
          "name": "loanTenure",
          "type": "uint256"
        },
        {
          "internalType": "string",
          "name": "repaymentStatus",
          "type": "string"
        }
      ],
      "stateMutability": "view",
      "type": "function"
    },
    {
      "inputs": [
        {
          "internalType": "string",
          "name": "panNumber",
          "type": "string"
        },
        {
          "components": [
            {
              "internalType": "string",
              "name": "loanType",
              "type": "string"
            },
            {
              "internalType": "uint256",
              "name": "loanAmount",
              "type": "uint256"
            },
            {
              "internalType": "uint256",
              "name": "loanTenure",
              "type": "uint256"
            },
            {
              "internalType": "string",
              "name": "repaymentStatus",
              "type": "string"
            }
          ],
          "internalType": "struct Loan",
          "name": "loanDeets",
          "type": "tuple"
        }
      ],
      "name": "requestLoan",
      "outputs": [
        {
          "internalType": "bool",
          "name": "",
          "type": "bool"
        }
      ],
      "stateMutability": "nonpayable",
      "type": "function"
    },
    {
      "inputs": [
        {
          "internalType": "uint256",
          "name": "amount",
          "type": "uint256"
        },
        {
          "internalType": "string",
          "name": "panNumber",
          "type": "string"
        }
      ],
      "name": "withdraw",
      "outputs": [],
      "stateMutability": "nonpayable",
      "type": "function"
    }
  ],
  "bytecode": "0x6080604052600060045534801561001557600080fd5b506113bd806100256000396000f3fe6080604052600436106100705760003560e01c8063a26e11861161004e578063a26e11861461012c578063a3f6000014610148578063c6141f6314610171578063dc048cf2146101b157610070565b8063082aa974146100755780633d80b532146100b257806396acc78e146100ef575b600080fd5b34801561008157600080fd5b5061009c60048036038101906100979190610a60565b6101da565b6040516100a99190610af3565b60405180910390f35b3480156100be57600080fd5b506100d960048036038101906100d49190610b0e565b61039b565b6040516100e69190610b66565b60405180910390f35b3480156100fb57600080fd5b5061011660048036038101906101119190610b0e565b6103c9565b6040516101239190610af3565b60405180910390f35b61014660048036038101906101419190610b0e565b6103ff565b005b34801561015457600080fd5b5061016f600480360381019061016a9190610c69565b6104bd565b005b34801561017d57600080fd5b5061019860048036038101906101939190610b0e565b610572565b6040516101a89493929190610d60565b60405180910390f35b3480156101bd57600080fd5b506101d860048036038101906101d39190610db3565b6106c8565b005b6000826002816040516101ed9190610e4b565b908152602001604051809103902060009054906101000a900460ff16610248576040517f08c379a000000000000000000000000000000000000000000000000000000000815260040161023f90610eae565b60405180910390fd5b60045483602001511115610291576040517f08c379a000000000000000000000000000000000000000000000000000000000815260040161028890610f1a565b60405180910390fd5b60006003856040516102a39190610e4b565b908152602001604051809103902060010154146102f5576040517f08c379a00000000000000000000000000000000000000000000000000000000081526004016102ec90610f86565b60405180910390fd5b826020015160018560405161030a9190610e4b565b908152602001604051809103902060008282546103279190610fd5565b925050819055508260038560405161033f9190610e4b565b908152602001604051809103902060008201518160000190816103629190611215565b506020820151816001015560408201518160020155606082015181600301908161038c9190611215565b50905050600191505092915050565b6001818051602081018201805184825260208301602085012081835280955050505050506000915090505481565b6002818051602081018201805184825260208301602085012081835280955050505050506000915054906101000a900460ff1681565b806002816040516104109190610e4b565b908152602001604051809103902060009054906101000a900460ff1661046b576040517f08c379a000000000000000000000000000000000000000000000000000000000815260040161046290610eae565b60405180910390fd5b3460018360405161047c9190610e4b565b908152602001604051809103902060008282546104999190610fd5565b9250508190555034600460008282546104b29190610fd5565b925050819055505050565b60016002826040516104cf9190610e4b565b908152602001604051809103902060006101000a81548160ff021916908315150217905550816000826040516105059190610e4b565b908152602001604051809103902060008201518160000190816105289190611215565b50602082015181600101908161053e9190611215565b5060408201518160020190816105549190611215565b50606082015181600301908161056a9190611215565b509050505050565b6003818051602081018201805184825260208301602085012081835280955050505050506000915090508060000180546105ab90611038565b80601f01602080910402602001604051908101604052809291908181526020018280546105d790611038565b80156106245780601f106105f957610100808354040283529160200191610624565b820191906000526020600020905b81548152906001019060200180831161060757829003601f168201915b50505050509080600101549080600201549080600301805461064590611038565b80601f016020809104026020016040519081016040528092919081815260200182805461067190611038565b80156106be5780601f10610693576101008083540402835291602001916106be565b820191906000526020600020905b8154815290600101906020018083116106a157829003601f168201915b5050505050905084565b806002816040516106d99190610e4b565b908152602001604051809103902060009054906101000a900460ff16610734576040517f08c379a000000000000000000000000000000000000000000000000000000000815260040161072b90610eae565b60405180910390fd5b826001836040516107459190610e4b565b9081526020016040518091039020541015610795576040517f08c379a000000000000000000000000000000000000000000000000000000000815260040161078c90611333565b60405180910390fd5b826001836040516107a69190610e4b565b908152602001604051809103902060008282546107c39190611353565b925050819055503373ffffffffffffffffffffffffffffffffffffffff166108fc849081150290604051600060405180830381858888f19350505050158015610810573d6000803e3d6000fd5b50505050565b6000604051905090565b600080fd5b600080fd5b600080fd5b600080fd5b6000601f19601f8301169050919050565b7f4e487b7100000000000000000000000000000000000000000000000000000000600052604160045260246000fd5b61087d82610834565b810181811067ffffffffffffffff8211171561089c5761089b610845565b5b80604052505050565b60006108af610816565b90506108bb8282610874565b919050565b600067ffffffffffffffff8211156108db576108da610845565b5b6108e482610834565b9050602081019050919050565b82818337600083830152505050565b600061091361090e846108c0565b6108a5565b90508281526020810184848401111561092f5761092e61082f565b5b61093a8482856108f1565b509392505050565b600082601f8301126109575761095661082a565b5b8135610967848260208601610900565b91505092915050565b600080fd5b600080fd5b6000819050919050565b61098d8161097a565b811461099857600080fd5b50565b6000813590506109aa81610984565b92915050565b6000608082840312156109c6576109c5610970565b5b6109d060806108a5565b9050600082013567ffffffffffffffff8111156109f0576109ef610975565b5b6109fc84828501610942565b6000830152506020610a108482850161099b565b6020830152506040610a248482850161099b565b604083015250606082013567ffffffffffffffff811115610a4857610a47610975565b5b610a5484828501610942565b60608301525092915050565b60008060408385031215610a7757610a76610820565b5b600083013567ffffffffffffffff811115610a9557610a94610825565b5b610aa185828601610942565b925050602083013567ffffffffffffffff811115610ac257610ac1610825565b5b610ace858286016109b0565b9150509250929050565b60008115159050919050565b610aed81610ad8565b82525050565b6000602082019050610b086000830184610ae4565b92915050565b600060208284031215610b2457610b23610820565b5b600082013567ffffffffffffffff811115610b4257610b41610825565b5b610b4e84828501610942565b91505092915050565b610b608161097a565b82525050565b6000602082019050610b7b6000830184610b57565b92915050565b600060808284031215610b9757610b96610970565b5b610ba160806108a5565b9050600082013567ffffffffffffffff811115610bc157610bc0610975565b5b610bcd84828501610942565b600083015250602082013567ffffffffffffffff811115610bf157610bf0610975565b5b610bfd84828501610942565b602083015250604082013567ffffffffffffffff811115610c2157610c20610975565b5b610c2d84828501610942565b604083015250606082013567ffffffffffffffff811115610c5157610c50610975565b5b610c5d84828501610942565b60608301525092915050565b60008060408385031215610c8057610c7f610820565b5b600083013567ffffffffffffffff811115610c9e57610c9d610825565b5b610caa85828601610b81565b925050602083013567ffffffffffffffff811115610ccb57610cca610825565b5b610cd785828601610942565b9150509250929050565b600081519050919050565b600082825260208201905092915050565b60005b83811015610d1b578082015181840152602081019050610d00565b60008484015250505050565b6000610d3282610ce1565b610d3c8185610cec565b9350610d4c818560208601610cfd565b610d5581610834565b840191505092915050565b60006080820190508181036000830152610d7a8187610d27565b9050610d896020830186610b57565b610d966040830185610b57565b8181036060830152610da88184610d27565b905095945050505050565b60008060408385031215610dca57610dc9610820565b5b6000610dd88582860161099b565b925050602083013567ffffffffffffffff811115610df957610df8610825565b5b610e0585828601610942565b9150509250929050565b600081905092915050565b6000610e2582610ce1565b610e2f8185610e0f565b9350610e3f818560208601610cfd565b80840191505092915050565b6000610e578284610e1a565b915081905092915050565b7f55736572206e6f7420656e726f6c6c6564000000000000000000000000000000600082015250565b6000610e98601183610cec565b9150610ea382610e62565b602082019050919050565b60006020820190508181036000830152610ec781610e8b565b9050919050565b7f4e6f7420656e6f7567682066756e647320696e2062616e6b0000000000000000600082015250565b6000610f04601883610cec565b9150610f0f82610ece565b602082019050919050565b60006020820190508181036000830152610f3381610ef7565b9050919050565b7f596f7520616c726561647920686176652061206c6f616e206163746976650000600082015250565b6000610f70601e83610cec565b9150610f7b82610f3a565b602082019050919050565b60006020820190508181036000830152610f9f81610f63565b9050919050565b7f4e487b7100000000000000000000000000000000000000000000000000000000600052601160045260246000fd5b6000610fe08261097a565b9150610feb8361097a565b925082820190508082111561100357611002610fa6565b5b92915050565b7f4e487b7100000000000000000000000000000000000000000000000000000000600052602260045260246000fd5b6000600282049050600182168061105057607f821691505b60208210810361106357611062611009565b5b50919050565b60008190508160005260206000209050919050565b60006020601f8301049050919050565b600082821b905092915050565b6000600883026110cb7fffffffffffffffffffffffffffffffffffffffffffffffffffffffffffffffff8261108e565b6110d5868361108e565b95508019841693508086168417925050509392505050565b6000819050919050565b600061111261110d6111088461097a565b6110ed565b61097a565b9050919050565b6000819050919050565b61112c836110f7565b61114061113882611119565b84845461109b565b825550505050565b600090565b611155611148565b611160818484611123565b505050565b5b818110156111845761117960008261114d565b600181019050611166565b5050565b601f8211156111c95761119a81611069565b6111a38461107e565b810160208510156111b2578190505b6111c66111be8561107e565b830182611165565b50505b505050565b600082821c905092915050565b60006111ec600019846008026111ce565b1980831691505092915050565b600061120583836111db565b9150826002028217905092915050565b61121e82610ce1565b67ffffffffffffffff81111561123757611236610845565b5b6112418254611038565b61124c828285611188565b600060209050601f83116001811461127f576000841561126d578287015190505b61127785826111f9565b8655506112df565b601f19841661128d86611069565b60005b828110156112b557848901518255600182019150602085019450602081019050611290565b868310156112d257848901516112ce601f8916826111db565b8355505b6001600288020188555050505b505050505050565b7f496e73756666696369656e742042616c616e6365000000000000000000000000600082015250565b600061131d601483610cec565b9150611328826112e7565b602082019050919050565b6000602082019050818103600083015261134c81611310565b9050919050565b600061135e8261097a565b91506113698361097a565b925082820390508181111561138157611380610fa6565b5b9291505056fea2646970667358221220bcf72073409d3b0f13dea93b706a7f787dc2c049c08d61e5fca3b0fe6c28bf6964736f6c63430008110033",
  "linkReferences": {},
  "deployedLinkReferences": {}
}